:020000040800F2
:10000000180B0020A50200089D1A0008AD18000872
:10001000991A000891050008891C000800000000DA
:100020000000000000000000000000000D1B0008A0
:100030009505000800000000A11A0008111B000827
:10004000BF020008BF020008BF020008BF0200088C
:10005000BF020008BF020008BF020008BF0200087C
:10006000BF020008BF020008BF020008BF0200086C
:10007000BF020008BF020008BF020008BF0200085C
:10008000BF020008BF020008BF020008BF0200084C
:10009000BF020008BF020008BF020008BF0200083C
:1000A000BF020008BF020008BF020008BF0200082C
:1000B000BF020008291B0008BF020008BF02000899
:1000C000BF020008BF020008BF020008BF0200080C
:1000D000BF020008BF020008BF020008BF020008FC
:1000E000BF020008BF020008BF020008BF020008EC
:1000F000BF020008BF020008BF020008BF020008DC
:10010000BF020008BF020008BF020008BF020008CB
:10011000BF020008BF020008BF020008BF020008BB
:10012000BF020008BF020008BF020008BF020008AB
:10013000BF020008BF020008BF020008BF0200089B
:10014000BF020008BF020008BF020008BF0200088B
:10015000BF020008BF020008BF020008BF0200087B
:10016000BF020008BF020008BF020008BF0200086B
:10017000BF020008BF020008BF020008BF0200085B
:10018000BF020008BF020008BF020008BF0200084B
:10019000BF02000800000000BF020008BF02000804
:1001A000BF020008BF020008BF020008BF0200082B
:1001B000BF020008BF020008BF020008BF0200081B
:1001C000BF020008BF020008BF020008BF0200080B
:1001D000BF020008BF02000800F002F800F052F869
:1001E00014A696E8000CB244B344DA4501D100F0FD
:1001F00049F8BAE80F000FA696E83000A5EB040511
:1002000004EB0607AAEB0704A7F101074FEA15154F
:100210004FEA3414A4F10104AC4201D300F032F8E7
:1002200013F0010F18BFFB1A43F0010300F001F8AF
:10023000DBE718470022000020220000103A24BF0C
:1002400078C878C1FAD8520724BF30C830C144BF3B
:1002500004680C6070470000704700000023002411
:1002600000250026103A28BF78C1FBD8520728BFC6
:1002700030C148BF0B6070471FB502F0BEF81FBD0C
:1002800010B510BD00F0F1F81146FFF7F5FF01F0D1
:1002900063FD00F00FF903B4FFF7F2FF03BC00F0B9
:1002A00017F900000948804709480047FEE7FEE7C4
:1002B000FEE7FEE7FEE7FEE7FEE7FEE7FEE7FEE716
:1002C00004480549054A064B70470000151B000805
:1002D000D901000818050020180B0020180700207D
:1002E00018070020032A40F2308010F0030C00F0C1
:1002F000158011F8013BBCF1020F624498BF11F860
:1003000001CB00F8013B38BF11F8013BA2F1040218
:1003100098BF00F801CB38BF00F8013B11F0030390
:1003200000F04A80083AC0F0088051F8043B083ACF
:1003300051F804CBA0E80810F5E7121D5CBF51F896
:10034000043B40F8043BAFF30080D20724BF11F810
:10035000013B11F801CB48BF11F8012B24BF00F875
:10036000013B00F801CB48BF00F8012B70474FF06C
:1003700000020429C0F0128010F0030C00F050803D
:10038000CCF1040CBCF1020F18BF00F8012BA8BF80
:1003900020F8022BA1EB0C0100F042B85FEAC17C0F
:1003A00024BF00F8012B00F8012B48BF00F8012BF7
:1003B000704770477047704710B5203AC0F00B8007
:1003C000B1E81850A0E81850B1E81850A0E818504B
:1003D000203ABFF4F5AF5FEA027C24BFB1E81850C1
:1003E000A0E8185044BF18C918C0BDE810405FEA23
:1003F000827C24BF51F8043B40F8043B08BF70479F
:10040000D20728BF31F8023B48BF11F8012B28BFA3
:1004100020F8023B48BF00F8012B70474FF0000264
:1004200000B5134694469646203922BFA0E80C50EA
:10043000A0E80C50B1F12001BFF4F7AF090728BFC5
:10044000A0E80C5048BF0CC05DF804EB890028BF41
:1004500040F8042B08BF704748BF20F8022B11F06A
:10046000804F18BF00F8012B7047754600F02CF83C
:10047000AE4605006946534620F00700854618B091
:1004800020B5FFF71DFFBDE820404FF000064FF0FC
:1004900000074FF000084FF0000BAC46ACE8C00975
:1004A000ACE8C009ACE8C009ACE8C00921F007011C
:1004B0008D46704710B50446AFF300802046BDE876
:1004C0001040FFF7E8BE0000004870471000002011
:1004D00001491820ABBEFEE726000200704700006D
:1004E000032884BFE12070475FEA016C04BFE3206A
:1004F000704710B540F2BC0EC2F2000E0EEB0014B5
:1005000000014EF80010201DDDF808C080E80C1036
:10051000002010BD10B582B041F6195241F62513E6
:100520000024C0F60002C0F60003002040F20111D2
:100530000094FFF7D5FF41F6295241F63513C0F676
:100540000002C0F60003012040F201110094FFF701
:10055000C7FF41F6395241F64513C0F60002C0F616
:100560000003022040F201110094FFF7B9FF41F6A9
:10057000495241F65513C0F60002C0F600030320AD
:1005800040F201110094FFF7ABFF02B010BD000074
:10059000FEE7000070470000EFF3108072B600BF66
:1005A000FEE70000032884BF0120704780B507A143
:1005B00031F8101040F60000C4F6000000F0E4F836
:1005C000C0B2002818BF012080BD00BF000200019A
:1005D000800040002DE9F04F83B00E68002E00F03F
:1005E000CF8000F1200241F2004C009200F1384728
:1005F000C4F6000C06224FEAB725604508BF052265
:10060000052D38BF4FEAB722002500274FF000081C
:1006100001920AE00E6808F1010836FA08F207F1C3
:10062000020705F1040500F0AB80012202FA08FE82
:1006300016EA0E09EED0D1F804C003220CF0030B29
:10064000ABF1010602FA07F4012E6FEA040A11D891
:100650008468CE6804EA0A04BE4034438460446877
:1006600024EA0E06CCF3001404FA08F4264346608C
:1006700006E000BFBBF1030F02D14FF0030B21E0F6
:10068000C6688C6806EA0A06BC402643BBF1020F26
:10069000C66017D16FF00302009B02EA580605F00E
:1006A0001C020F2453F806C004FA02FE0C692CEA5F
:1006B0000E0C04FA02F242EA0C029A51D1F804C07C
:1006C0000CF0030B02680BFA07F302EA0A021A4362
:1006D0001CF4403F02609DD041F26003C4F202036B
:1006E0001A6840F2004E42F001021A601A68C4F221
:1006F000010E02F001020292029A28F003024FF664
:10070000084C7244CFF6FF7C52F80C3005F00C0612
:100710000F24B440A343019C04FA06F6334342F885
:100720000C30DEF808204B6842EA090640F20C4C17
:10073000DC0258BF22EA0906CEF80860C4F2010CB8
:10074000DCF800209C0242EA090658BF22EA0906AA
:10075000CCF80060DEF804209C0342EA090658BF8A
:1007600022EA0906CEF80460DEF80020DB0342EA44
:10077000090658BF22EA0906CEF800604AE700BF22
:1007800003B0BDE8F08F00000069084018BF0120E9
:1007900070470000426902EA0103914341EA0341C4
:1007A000816170471823002A08BF2823C150704771
:1007B00040F21050C2F200000068704740F20000A2
:1007C00040F21051C2F20000C2F2000140680A6813
:1007D000104408607047000080B5032000F08CF8DA
:1007E0000F2000F009F800281CBF012080BD00F098
:1007F0002BF8002080BD0000B0B540F20005C2F229
:1008000000056968F1B1044640F20800C2F2000038
:100810004FF47A720068B2FBF1F1B0FBF1F000F036
:10082000F7FC01460F2C4FF001000AD8002918BF31
:10083000B0BD4FF0FF302146002200F031F800201B
:100840002C60B0BD0120B0BD82B041F25800C4F2AE
:100850000200816841F001018160816801F00101BD
:1008600001910199016841F080510160006800F038
:1008700080500090009802B000F0D6B8002848BF21
:10088000704700F01F01012202FA01F11C2202EA66
:10089000D0004EF20012CEF20002815070470000EC
:1008A00010B54EF60C5CCEF2000CDCF80030C3F351
:1008B000022E8EF00704042C28BF0424BEF103038B
:1008C0004FF0FF3E0EFA04F438BF0023A1439940D5
:1008D0000EFA03F39A43114300F00F0200F1604354
:1008E0000901043A03F564436244002848BF02F159
:1008F0000C03197010BD00004EF60C51CEF2000131
:100900000A684FF6FF031A4060F30A2242F0806043
:1009100040F0FD700860704747F21401C4F2000116
:1009200051F8142CB0F5007F3CD0002874D1C86E6B
:1009300002F4C06220F48070B2F5806FC8662FD1D7
:1009400051F8140C012262F34A2041F8140C40F2D1
:100950000800C2F200000068322250434DF6836264
:10096000C4F21B32A0FB0202900C00BF0A685205C1
:1009700011D5421C0FD00A6852050CD558B10A682F
:10098000520508D5012806D00A68520503D5022869
:10099000A0F10400EAD10868400544BF0320704775
:1009A00000207047C86E02F4C06240F48070B2F557
:1009B000806FC866F4D151F8140C012262F34A200A
:1009C00041F8140C40F20800C2F200000068322224
:1009D00050434DF68362C4F21B32A0FB0202900C1E
:1009E0000A68520511D5421C0FD00A6852050CD571
:1009F00058B10A68520508D5012806D00A68520580
:100A000003D50228A0F10400EAD10868400544BFDC
:100A100003207047C4E700BF022060F34A2241F878
:100A2000142C00207047000047F20800C4F20000B8
:100A3000016841F480410160704700002DE9F047F2
:100A4000002863D042F2000AC4F2020A0446DAF82F
:100A500000000D4600F00F0088420CD2DAF80000CA
:100A600020F00F002843CAF80000DAF8000000F078
:100A70000F00A8424AD1216841F20808C807C4F211
:100A8000020803D1880740F1D080B5E0606858F8CB
:100A9000082C022838D003283CD1920136D5D8F84A
:100AA0000420D8F8043042F20046C3F3031302F0E6
:100AB0000302D8F804700133C0F2F406032A04BF1D
:100AC00041F20026C0F27A06B6FBF3F2D8F8043001
:100AD000C7F306277A43C3F34163022707EB4303B7
:100AE000B2FBF3F24BF20043C0F2C4439A4259D92D
:100AF000D8F8002012F0F00F49D0890752D5A1682C
:100B000000294FD143E000BF910305D40120BDE887
:100B1000F08700BF5105F9D5D8F8001001F00C019D
:100B200004293FD0D8F8001001F00C01082939D071
:100B3000D8F8001001F00C010C2933D1D8F80410BA
:100B4000D8F8042042F20047C2F3031201F0030177
:100B5000D8F804300132C0F2F407032904BF41F28F
:100B60000027C0F27A07B7FBF2F1D8F80420C3F3EC
:100B700006235943C2F34162022303EB4202B1FB55
:100B8000F2F14BF20042C0F2C44291420AD9D8F8C5
:100B90000010082262F307114FF00109C8F8001095
:100BA00002E000BF4FF00009D8F8001021F0030167
:100BB0000843C8F80000FFF7FBFD064641F28837FE
:100BC000D8F80000616800F00C00B0EB810F07D08E
:100BD000FFF7EEFD801BB842F2D90320BDE8F08795
:100BE0002168880708D4B9F1000F1ED0D8F800009A
:100BF00020F0F00017E000BF480705D5D8F8000046
:100C000040F4E060C8F80000080706D5D8F80000F6
:100C1000072262F30D20C8F80000D8F80000A2688F
:100C200020F0F0001043C8F80000DAF8000000F0EF
:100C30000F00A8421BD9DAF8000020F00F0028436B
:100C4000CAF80000FFF7B4FD064641F2883700BF3E
:100C5000DAF8000000F00F00A84207D0FFF7A8FD67
:100C6000801BB842F4D90320BDE8F087216848070B
:100C700007D5D8F80000E26820F4E0601043C8F817
:100C80000000080708D5D8F80000216920F460505A
:100C900040EAC100C8F80000D8F8000042F2004164
:100CA000C0F2F40100F00C00042808462DD0D8F85A
:100CB000000000F00C00082841F20020C0F27A0089
:100CC00023D0D8F8002002F00C020C2A1CD1D8F84E
:100CD0000420D8F8043002F00302C3F30313D8F859
:100CE00004700133032A08BF0146B1FBF3F0D8F8C2
:100CF0000410C7F30627C1F341610222784302EBD7
:100D00004101B0FBF1F000E00020D8F8001042F201
:100D10002242C1F30311C0F60002515C40F2080206
:100D200001F01F0120FA01F140F20000C2F20000C0
:100D30000068C2F200021160BDE8F047FFF75CBD39
:100D4000002804BF012070472DE9F04182B004461D
:100D5000007841F20006C007C4F202061ED12078D6
:100D600080073DD42078000764D42078400700F144
:100D700087802078800600F1D980E569002D00F099
:100D80004282B06800F00C000C2840F03181012D47
:100D900040F08E81012002B0BDE8F081B06800F023
:100DA0000C01F068082961D0032281F00C0122EACD
:100DB00000000844B0FA80F0400957D161683068FB
:100DC000B1F5803F07D0B1F5A02F40F0E38040F4AB
:100DD00080203060306840F480303060E4E000BF54
:100DE000B068F16800F00C00042871D001F0030134
:100DF00080F00C0081F002010844B0FA80F0400954
:100E000066D1E1683068002900F0E08040F480702D
:100E10003060FFF7CDFC05463068400500F10A81DF
:100E2000FFF7C6FC401B0228F6D9032002B0BDE83C
:100E3000F08100BF6169D6F89400002900F0948029
:100E400040F00100C6F89400FFF7B2FC054600BF71
:100E5000D6F8940080073FF588AFFFF7A9FC401B48
:100E60000228F5D9032002B0BDE8F0813068800384
:100E70007FF575AF606800287FF471AF3EE000BF7A
:100E8000B06D5FEAC00808D4B06D40F08050B06526
:100E9000B06D00F080500190019847F20007C4F255
:100EA00000073868C0052DD4386840F48070386079
:100EB000FFF77EFC054600BF3868C00522D4FFF767
:100EC00077FC401B0228F7D9032002B0BDE8F0816F
:100ED0003068400501D5E06880B17068216920F074
:100EE000FE4040EA0160706040F20000C2F2000083
:100EF0000068FFF781FC00283FF434AF012002B006
:100F0000BDE8F081A168D6F89000012908D0052934
:100F100040F0AE8040F00400C6F89000D6F8900093
:100F200040F00100C6F89000AEE000BFA169D6F81D
:100F30009800002900F0868040F00100C6F8980073
:100F4000FFF736FC054600BFD6F8980080073FF54E
:100F500014AFFFF72DFC401B02284FF00300F3D91C
:100F600002B0BDE8F08100BF20F00100C6F8940097
:100F7000FFF71EFC054600BFD6F8940080077FF5FA
:100F8000F4AEFFF715FC401B0228F5D9032002B090
:100F9000BDE8F08120F4803030603068002920F412
:100FA0008020306000F0BE80FFF702FC054600BFE5
:100FB000306880033FF5D3AEFFF7FAFB401B64288F
:100FC000F6D9032002B0BDE8F08100BF20F48070A4
:100FD0003060FFF7EDFB0546306840057FF5C2AE97
:100FE000FFF7E6FB401B02284FF00300F4D9B7E7F8
:100FF000306820F080703060FFF7DAFB022D054684
:101000000CD100BF3068800140F1B880FFF7D0FB01
:10101000401B02284FF00300F4D9A1E7306880019B
:1010200040F1EA80FFF7C4FB401B02284FF00300A9
:10103000F4D995E77068216920F0FE4040EA01602C
:1010400070608FE620F00100C6F89800FFF7B0FB53
:10105000054600BFD6F8980080077FF58EAEFFF7F3
:10106000A7FB401B02284FF00300F3D978E700BF2D
:1010700020F00100C6F89000D6F89000002920F07A
:101080000400C6F890005DD0FFF792FB054641F2E0
:10109000883700BFD6F89000800765D4FFF788FB3B
:1010A000401BB842F6D9032002B0BDE8F08100BF72
:1010B000F068216A00F003028A427FF41FAF626A7F
:1010C0006FF00F0300F0F00103EB021291427FF486
:1010D00015AFA16A00F4FE42B2EB012F7FF40EAF10
:1010E000E16A00F07842B2EBC16F7FF407AF226B88
:1010F0000023CFF6E07303EA025200F4C001A2F528
:10110000001291427FF4FAAE616B4FF07E4202EA28
:10111000016100F0C06001F17E4188427FF4EEAED3
:1011200071E000BFFFF744FB054600BF3068800355
:101130007FF515AEFFF73CFB401B64284FF0030022
:10114000F4D90DE7FFF734FB054641F2883700BFBD
:10115000D6F89000800707D5FFF72AFB401BB8425E
:101160004FF00300F4D9FBE6B8F1000F3FF501AEF4
:10117000B06D20F08050B065FBE500BFF06848F22C
:101180000C01C0F29F1104F1200700EA010C8ECF80
:101190006FF00F00D4E90C5400EB02100022CFF6E0
:1011A000E07241EA0C0102EA05520843A2F500127E
:1011B0004FF07E4540EA032005EA0465104305F13F
:1011C0007E4540EAC7602843F060306840F0807098
:1011D0003060F06840F08070F060FFF7E9FA044694
:1011E000306880010FD4FFF7E3FA001B02284FF0AC
:1011F0000300F5D9B4E600BFF0684FF6FC71CFF6F6
:10120000EE610840F060002002B0BDE8F08100000F
:10121000411E0020B0EB116F1CBF012070474EF241
:101220001002CEF2000251604EF62351CEF20001C0
:10123000F0230B7007219060116070477047000029
:1012400070470000704700007047000070470000C2
:101250007047000090F83C20012A4FF0020266D04F
:1012600070B580F83D20026842F6004C54689368DF
:10127000C4F2010C45F2000E6245C4F2010E18BF23
:1012800072452BD14D6824F470042C434FF68F75B2
:10129000CFF6FF550E682C4042F6FF35C4F201052B
:1012A0003443AA4254600DDC40F2FF76C4F20006DB
:1012B000B2421BDCB2F1804F2CD040F20046C4F2A7
:1012C000000625E043F6FF74C4F20104A24219DCD3
:1012D00062451FD043F2004618E000BF43F20045CC
:1012E000C4F20105AA42CDD0D0E700BF40F6000607
:1012F000C4F20006B2420DD040F60046C4F2000629
:1013000006E000BF724505D044F20006C4F20106B3
:10131000B24204D1896823F080031943916001210E
:10132000002280F83D1080F83C20BDE87040104657
:101330007047000070470000002804BF012070477C
:1013400010B5044690F83D0028B9002084F83C0010
:10135000204600F023F8022084F83D002068211D7B
:1013600000F0E8FB012084F8480084F83E0084F88F
:101370003F0084F8400084F8410084F8420084F87B
:10138000430084F8440084F8450084F8460084F85B
:10139000470084F83D00002010BD0000006840F2C6
:1013A0000041C4F20001884218BF704780B582B086
:1013B00041F25800C4F202000168002241F002012B
:1013C00001600068012100F00200019001981D20D9
:1013D000FFF766FA1D2002B0BDE88040FFF74EBA65
:1013E00090F83D1001291BD1022180F83D100168C1
:1013F00042F6FF32C868C4F20102914240F0010097
:10140000C8600FDC40F2FF70C4F20000814219DCBA
:10141000B1F1804F2ED040F20040C4F2000027E02E
:101420000120704743F6FF70C4F20100814215DCD1
:1014300042F60040C4F2010081421BD043F200405A
:1014400014E000BF40F60000C4F20000814211D059
:1014500040F60040C4F200000AE000BF45F2000080
:10146000C4F20100814205D044F20000C4F2010040
:1014700081420CD188680722C0F201020240062A8C
:101480004FF00000CDD0B2F5803F08BF704708682C
:1014900040F00100086000207047000090F83C20F8
:1014A000012A4FF0020200F0998080B580F83D20BB
:1014B000D0F800C08822DCF80830CFF6CE721A408F
:1014C000CCF808200B68B3F5005F0DDA3F2B21DD67
:1014D0005F2B3BDD602B00F0AB80702B00F0948025
:1014E000B3F5805F71D0E7E02F22C0F21002934283
:1014F00018DD4F21C0F210018B424FDD5021C0F2A8
:1015000010018B4255D06021C0F210018B4250D0A7
:10151000702149E01F2B0FDC002B4AD0102B48D044
:10152000CAE000BFB3F1101F0CDAB3F5005F57D06B
:10153000B3F5801F3DD0BFE0202B3AD0302B38D000
:10154000BAE000BF35D020212EE000BF402B00F0D4
:101550009180502B40F0B080D1F804E0C968DCF8ED
:101560002030DCF8202022F00102CCF82020DCF82A
:10157000182022F0F00242EA011123F00A0242EAA6
:101580000E02CCF81810CCF82020DCF808104FF62A
:101590008872CFF6CF721140573114E03021C0F27B
:1015A00010018B4205D04021C0F210018B4240F067
:1015B0008380DCF808104FF68872CFF6CF721140A6
:1015C000194341F00701CCF808100022012180F8EE
:1015D0003D10002180F83C10BDE880401046704767
:1015E000D1E901E3C968DCF8082043EA0E0322F4DC
:1015F0007F4243EA01211143CCF80810DCF80810BF
:1016000041F48041DFE700BFD1E901E3C968DCF8BC
:10161000082043EA0E0322F47F4243EA01211143EA
:10162000CCF80810DCF8081041F07701CBE700BFD8
:10163000D1F804E0C968DCF82030DCF8202022F082
:101640001002CCF82020DCF8182022F4704242EA84
:10165000013123F0A00242EA0E12CCF81810CCF8A7
:101660002020DCF808104FF68872CFF6CF721140B8
:101670006731A8E7D1F804E0C968DCF82030DCF86D
:10168000202022F00102CCF82020DCF8182022F0E3
:10169000F00242EA011123F00A0242EA0E02CCF8FB
:1016A0001810CCF82020DCF808104FF68872CFF61E
:1016B000CF721140473186E7012287E7704700006B
:1016C000F0B581B004460068C5680669B10717D552
:1016D00015F0020114D06FF00201016101212177A0
:1016E0008069800704D02046FFF7E8FF06E000BFCE
:1016F000204600F0CBF8204600F0CAF80020207702
:10170000700719D515F0040016D020686FF0040199
:10171000016102212177806910F4407F04D02046C6
:10172000FFF7CCFF06E000BF204600F0AFF82046F0
:1017300000F0AEF800202077300717D515F008002C
:1017400014D020686FF00801016104212177C0697D
:10175000800703D02046FFF7B1FF05E0204600F0E8
:1017600095F8204600F094F800202077F00619D56F
:1017700015F0100016D020686FF0100101610821EB
:101780002177C06910F4407F04D02046FFF796FF10
:1017900006E000BF204600F079F8204600F078F817
:1017A00000202077F00718BF15F0010006D0206850
:1017B0006FF001010161204600F06CF816F4025F41
:1017C00005F0800718BF002F02D1F00509D410E002
:1017D00020686FF4025101612046FFF731FDF005EA
:1017E00007D537B120686FF4807101612046FFF79B
:1017F00025FD700609D515F0400006D020686FF071
:1018000040010161204600F04FF8B00609D515F0FF
:10181000200006D020686FF0200101612046FFF70C
:1018200011FDF00209D515F4801006D020686FF480
:10183000801101612046FFF709FDB00209D515F4BA
:10184000001006D020686FF4001101612046FFF7F8
:10185000FBFC700209D515F4800006D020686FF4F7
:10186000800101612046FFF7F3FC30020CD515F42E
:10187000000009D021686FF4000220460A6101B01F
:10188000BDE8F040FFF756BD01B0F0BD7047000065
:101890007047000040F2C441C2F20001884218BF04
:1018A000704700F0A1BA000070470000FEE700009A
:1018B00040F27001C2F2000100224FF0FF30C1E996
:1018C0000320C1E9050240F2BC038870088048711A
:1018D000A1F8030040F2FC00C2F20003C2F20000D3
:1018E000C1E908221A70C3E90D22DA63C3E90122B3
:1018F000DA601A74C3E90522DA6183F8202083F8DC
:101900003020C3E90922DA620A72CA8081F82820ED
:101910000A6381F83420CA6381F840208A6400F0A9
:10192000EFB8000040F2C040C2F200000121017097
:101930007047000040F2C040C2F200000321017075
:101940007047000040F2C040C2F200000521017063
:101950007047000040F2C040C2F200000721017051
:1019600070470000FFF7A4BF2DE9F04186B00026C4
:1019700041F24C000596CDE90366CDE90166C4F25B
:101980000200016840F6000441F0040101600168B2
:10199000C4F6000401F004010091009901680022DE
:1019A00041F02001016001684FF4604501F0200121
:1019B00000910099016841F00101016000684FF455
:1019C000604100F00100009000982046FEF7EAFE1A
:1019D0004FF09040202100224FF02008FEF7E2FE59
:1019E000019501AD012720462946CDE902760496EE
:1019F000FEF7F0FD4FF090402946CDE90187CDE993
:101A00000366FEF7E7FD4FF47070CDE9010620464E
:101A100029460396FEF7DEFD06B0BDE8F081000022
:101A200080B588B040F2C44040F200420021C2F2CA
:101A30000000C4F20002A92340F2E73C0791CDE97F
:101A400005110291C0E90023C0E9021C0161816116
:101A5000FFF772FC002818BFFEF79EFD4FF4805080
:101A6000049040F2C440C2F2000004A9FFF716FD42
:101A7000002818BFFEF790FD00200190039040F26F
:101A8000C440C2F2000001A9FFF7E4FB002818BF20
:101A9000FEF782FD08B080BDFEE70000FEE7000013
:101AA00070470000B0B5044634F8043B14F803C096
:101AB000BCF1010F1CBFFF20B0BD00F1220CC3EB35
:101AC00043131CF803300546137002880846C2EB26
:101AD00042126244013211461A46FEF703FC29887D
:101AE00048F689004A1CC0F68800A2FB00030020CB
:101AF0006054C3EB0311A2EB41012980B0BD00008B
:101B000080B52221FEF733FC80BD00007047000045
:101B1000FEF754BE4EF68850CEF20000016841F444
:101B2000700101607047000040F2C440C2F2000042
:101B3000FFF7C6BD40F6FF330268C4F2000343F26C
:101B4000FF3C9842C4F2010C0ADD60452EDC40F6F1
:101B50000043C4F20003984234D042F600432DE023
:101B6000B0F1804F2ED040F20043C4F200039842FF
:101B700028D040F60003C4F20003984222D060450A
:101B800026DC40F2FF73C4F20003984236DD40F6D3
:101B90000003C4F20003984246D040F60043C4F26A
:101BA0000003984240D042F6004339E045F200037A
:101BB000C4F20103984205D043F20043C4F201038A
:101BC0009842DCD14B6822F070021A436045D8DDA0
:101BD00044F2FF33C4F20103984219DD44F200439A
:101BE000C4F2010398421FD045F20003C4F201037E
:101BF000984219D044F6000312E000BFB0F1804FC4
:101C000012D040F20043C4F2000398420CD00FE01F
:101C100043F20043C4F20103984205D044F20003AA
:101C2000C4F20103984203D1CB6822F440721A43F4
:101C300080B54B6922F0800E8A6843EA0E03D1F822
:101C400000C00360C262A0F18042A2F596324FEA62
:101C5000B222092AC0F828C0BDE8804008D8012374
:101C600003FA02F240F2E5231A421CBF096901633C
:101C7000012141610169C90708BF7047016921F06D
:101C80000101016170470000FEE700001E2A84BFC9
:101C900001207047B0B54388051DEC5C002C1CBFCB
:101CA0000220B0BDC3EB4313034483F82220233347
:101CB00004461846FEF716FB608848F68902411C68
:101CC000C0F68802A1FB022301222A54C3EB0310B1
:101CD000A1EB400060800020B0BD000010B540F2D4
:101CE000C044C2F2000420780138C0B206280FD8E0
:101CF0005721C140C9070BD042F21441C0F6000180
:101D000031F8101040F60000C4F60000FEF742FD66
:101D10000020207010BD000040F2C040C2F2000060
:101D2000022101707047000040F2C040C2F2000082
:101D3000042101707047000040F2C040C2F2000070
:101D4000042101707047000040F2C040C2F2000060
:101D5000082101707047000094B0FEF73DFD00249B
:101D600000200C94CDE90A44CDE90844FEF7D4FDE7
:101D7000012006904FF48030079002200325552162
:101D80000D90CDE90E50CDE91010CDE9120006A856
:101D9000FEF7D6FF20B1EFF3108072B6FEE700BF6A
:101DA0000F20CDE9010501A80421CDE903440594E4
:101DB000FEF744FE20B1EFF3108072B6FEE700BFDD
:101DC000FFF7D2FDFFF72CFE40F2C440C2F2000044
:101DD000FFF706FBFFF7C6FDFEF79CFBFFF77EFF54
:101DE00000F0C4FAFAE700002DE9F04F89B040F2A4
:101DF000BC00C2F2000040F27006471C0024C2F290
:101E000000064FF0010B0DF11509002510E000BF91
:101E10008AF810B08AF80C409AF8140030B39AF897
:101E200010000135042D07F110078AF814007BD04B
:101E300017F8010C06EB050A0128EDD19AF80C0001
:101E400097F800800130C1B21E298AF80C00E3D354
:101E5000E8B28AF80C40FEF7A5FB0028D8D19AF822
:101E60001800D8B18AF81040D6E700BF9AF81000E1
:101E70000128D4D19AF818000028D0D13878B8B108
:101E800001283AD106EB4500008CA0F13C018908FD
:101E90004A291FD88DF81550012021E0B8F1010F13
:101EA0000ED19AF8140001280AD18AF810400AE0ED
:101EB00006EB4500008C00B302208DF815500FE0B2
:101EC000B8F1000F1ED006EB4500018C1E310184D5
:101ED000A2E700BFB0F5B47F0FD38DF815500020F6
:101EE00003218DF8170040F2FC008DF81610C2F2A5
:101EF000000049460322FFF7C9FE06EB45000484B3
:101F00008DE700BF06EB4500018C002908BF8AF869
:101F100010401E31B7F801208BB29342018428BFD4
:101F20008AF810B078E700BF0DF1180808F1020A2E
:101F30004FF000094FF0010E4FF0000BCDF804A058
:101F400017E000BF407AC9B2081AB0FA80F0400921
:101F500006F80B004FF0000906EB0B04E07878B3AD
:101F600016F80B000BF1010BBBF1030FE07000F052
:101F7000F9810BEB4B0006EB800010F8281F0129BC
:101F8000EAD1C179012935D00029E5D1D0E9003164
:101F9000806813F47F4FCDE90631089050D006EBEE
:101FA0000B074FF0FF30B97950FA93F2032AC3F3CD
:101FB000012451D20023002C40F0A480CFE000BFC8
:101FC00016F80B000128CBD104208DF81500FF2056
:101FD0008DF8170040F2FC00C2F200000DF115016F
:101FE00003228DF816B0FFF751FE4FF0010E84F872
:101FF0000690B5E7D0E90021836806EB0B00CDE938
:10200000062190F9061008930029C9B21CD43F2973
:1020100000F2B2801F2900F2B7800F2900F2BC80C5
:10202000072900F2C1800225022938BF0D46032985
:1020300088BF0325130ADAB295428DD8BAE000BFF3
:1020400006EB0B0081798BE00825130ADAB2954282
:102050003FF682AFAEE000BFC3F30723A3EB040A51
:102060006FF00305CDE9037B029400BF08EB050781
:10207000BA7906F110002C1D825C434697F8078060
:102080000EFA04FC4FF0010921EA0C0E002A05F1BA
:10209000050297F808B07F7A08BF41EA0C0E10F8E5
:1020A000081009FA02F2B4462EEA0206002908BF17
:1020B0004EEA02064FF0010EAA1D10F80B100EFAA0
:1020C00002F2984626EA0203002908BF46EA020304
:1020D000C05DE91D0EFA01F223EA0201002805F1B4
:1020E0000800664608BF43EA020150452546BDD1B7
:1020F0000DF1080B231DDDF804A09BE890084FF0BC
:10210000000964B31AF803000EFA03F23044007CAD
:1021100021EA0205002808BF41EA0205012C2946F0
:102120001DD003EB0A0C9CF8010002213044007C16
:1021300001FA03F225EA0201002808BF45EA02017C
:10214000022C0CD09CF8020004223044007C9A40FF
:1021500021EA0203002808BF41EA02031946B971C7
:1021600006EB0B00407AC9B2081AB0FA80F04009B9
:1021700006F80B00F0E600BF0725130ADAB2954215
:102180003FF6EAAE16E000BF0625130ADAB2954222
:102190003FF6E2AE0EE000BF0525130ADAB2954223
:1021A0003FF6DAAE06E000BF0425130ADAB2954224
:1021B0003FF6D2AE1F067BD034469DF81A605F1EF4
:1021C000FFB22644BD4238BF2F46367C01F0FE01E7
:1021D000B6FA86F676097D1C002F31446ED09DF844
:1021E0001B7001F0FD0127443F7C5FFA85FCB7FAC4
:1021F00087F77F09BCF1020F41EA470126465ED00E
:102200009DF81C7001F0FB0137443F7CBCF1030FCB
:10221000B7FA87F74FEA571741EA87014FD09DF881
:102220001D7001F0F70137443F7CBCF1040FB7FA91
:1022300087F74FEA571741EAC70140D09DF81E7053
:1022400001F0EF0137443F7CBCF1050FB7FA87F787
:102250004FEA571741EA071131D09DF81F7001F07E
:10226000DF0137443F7CBCF1060FB7FA87F74FEA2E
:10227000571741EA471122D09DF8207001F0BF01A5
:1022800037443F7CBCF1070FB7FA87F74FEA57177F
:1022900041EA871113D09DF8217001F07F01374486
:1022A0003F7CB7FA87F77F0941EAC71107E000BF13
:1022B0000025ECB29442BFF445AE05E0264681719C
:1022C000ECB29442BFF43EAE5B1B13F003031FD08D
:1022D0001AF80470651C37443F7C002F04BF0021AE
:1022E0008171012B15D01AF80570A51C37443F7C6D
:1022F000002F04BF00218171022B0AD01AF805308B
:10230000E51C33441B7C002B04BF0021817100E0DD
:102310002546A31A13F1040F3FF614AE521B0AEB25
:10232000050300BF1F7837443F7C002F04BF002106
:1023300081715F7837443F7C002F04BF0021817199
:102340009F7837443F7C002F04BF00218171DF78E4
:10235000043337443F7C002F04BF00218171043ACD
:10236000E0D1EFE509B0BDE8F08F000080B582B0A4
:1023700000208DF8040040F2FC00C2F200000DF1D4
:10238000050101AAFFF78EFBA8BB9DF804000328F6
:1023900031D19DF80600022809D840F2700100EB07
:1023A0004000C2F2000101EB8000006B10BB9DF801
:1023B000050003281FD89DF8071099B1022909D0FC
:1023C000012918D140F2BC01C2F2000101EB00105A
:1023D00080680EE040F2BC01C2F2000101EB001087
:1023E000C06806E040F2BC01C2F2000101EB00103F
:1023F000406800B1804702B080BDF1EE100A4FF690
:10240000FF71C0F2C03120EA010040F04070E1EEFF
:10241000100A7047002000200040002000800020AB
:102420000020000000000000000001020304060775
:1024300008090000582400080000002010000000D7
:102440003C0200086824000810000020080B00006F
:102450005C02000800000000100000000100000005
:082460000024F400000000005C
:04000005080001D915
:00000001FF
