:020000040800F2
:100000007827002091030008394D0008414A000874
:10001000354D000845180008D9760008000000009A
:10002000000000000000000000000000A94D0008D2
:100030009D180008000000003D4D0008AD4D00086F
:10004000AB030008AB030008AB030008AB030008D8
:10005000AB030008AB030008AB030008AB030008C8
:10006000AB030008AB030008AB030008AB030008B8
:10007000AB030008AB030008AB030008AB030008A8
:10008000AB030008AB030008AB030008AB03000898
:1000900081750008AB030008AB030008AB03000840
:1000A000AB030008AB030008AB030008AB03000878
:1000B000AB0300084D4E0008AB030008AB0300087B
:1000C000AB030008AB030008AB030008AB03000858
:1000D000AB030008AB030008AB030008FD570008A2
:1000E000AB030008AB030008AB030008AB03000838
:1000F000AB030008AB030008AB030008AB03000828
:10010000AB030008AB030008AB030008AB03000817
:10011000AB030008AB030008AB030008AB03000807
:10012000AB030008AB030008AB030008AB030008F7
:10013000AB030008AB030008AB030008AB030008E7
:10014000AB030008AB030008AB030008AB030008D7
:10015000AB030008AB030008AB030008AB030008C7
:10016000AB030008AB030008AB030008AB030008B7
:10017000AB030008AB030008AB030008AB030008A7
:10018000AB030008AB030008AB030008AB03000897
:10019000AB03000800000000AB030008AB0300083D
:1001A000AB030008AB030008AB030008AB03000877
:1001B000AB030008AB030008AB030008AB03000867
:1001C000AB030008AB030008AB030008AB03000857
:1001D000AB030008AB03000800F002F800F0C8F819
:1001E00014A696E8000CB244B344DA4501D100F0FD
:1001F000BFF8BAE80F000FA696E83000A5EB04059B
:1002000004EB0607AAEB0704A7F101074FEA15154F
:100210004FEA3414A4F10104AC4201D300F0A8F871
:1002200013F0010F18BFFB1A43F0010300F001F8AF
:10023000DBE71847D4860000F48600000A444FF03C
:10024000000C10F8013B13F0070408BF10F8014B35
:100250001D1108BF10F8015B641E05D010F8016B7A
:10026000641E01F8016BF9D113F0080F1EBF10F8DE
:10027000014BAD1C0C1B09D16D1E58BF01F801CB01
:10028000FAD505E014F8016B01F8016B6D1EF9D584
:100290009142D6D37047000070470000002300242D
:1002A00000250026103A28BF78C1FBD8520728BF86
:1002B00030C148BF0B6070476E2900F04F82702933
:1002C00000F09383662908F00A82652908F0078206
:1002D000672908F00482612908F0038203681B0A79
:1002E00028BF41F08001692900F0FC81642900F0F9
:1002F000F981752900F0F6816F2900F021837829B2
:1003000000F05F83E92900F0BB82E42900F0B882A5
:10031000F52900F0B582EF2900F01E83F82900F0DE
:100320005E830368DB0928BF41F08001632901F087
:100330009180732901F09680E32901F0A180F329CF
:1003400001F0A680002070471FB508F0BBF901F04E
:10035000F9F804000020002108F09EF9401C6060BC
:100360000020002108F082F9E0601FBD10B510BD2B
:1003700001F0BAF81146FFF7E7FF07F037FA01F08E
:1003800097F903B4FFF7F2FF03BC01F0DBF90000BB
:100390000948804709480047FEE7FEE7FEE7FEE719
:1003A000FEE7FEE7FEE7FEE7FEE7FEE70448054955
:1003B000054A064B70470000394E0008D901000875
:1003C000782100207827002078230020782300203F
:1003D00053EA020C00F069802DE9F04B4FF0000663
:1003E000002B1FBFB3FA83F503FA05F424FA05F6D0
:1003F0005E4012BF1643B2FA82F502FA05F4C5F167
:1004000020051EBF22FA05FC44EA0C04203556EAFA
:10041000044C4FEA144418BF641C4FF000084FF01E
:100420000009904271EB030C39D3002919BFB1FACE
:1004300081F701FA07F6B0FA80F700FA07F6C7F17C
:1004400020071EBF20FA07FC46EA0C062037B6FB41
:10045000F4FCA7EB0507103F07F01F0BCBF12006BC
:100460002CFA06F60CFA0BFB44BFB3460026202FED
:10047000A4BF5E464FF0000B5BEA060C08BF4FF0CE
:10048000010B19EB0B0948EB0608ABFB027C06FBE2
:1004900002CC0BFB03CCC01B71EB0C01C1E70B467C
:1004A000024641464846BDE8F08B13B5084318BFE5
:1004B0004FF0FF300146AFF30080BDE81C407047AD
:1004C0007CB51D4616460C00009007D04142A14263
:1004D00002D32044401E01E04FF0FF30064B7B4426
:1004E0002A4669460190304600F051F9002C02D0AE
:1004F000009A002111707CBDD3020000032A40F253
:10050000308010F0030C00F0158011F8013BBCF1B5
:10051000020F624498BF11F801CB00F8013B38BFCD
:1005200011F8013BA2F1040298BF00F801CB38BFDB
:1005300000F8013B11F0030300F02683083AC0F0F5
:10054000088051F8043B083A51F804CBA0E80810A1
:10055000F5E7121D5CBF51F8043B40F8043BAFF3D4
:100560000080D20724BF11F8013B11F801CB48BF2E
:1005700011F8012B24BF00F8013B00F801CB48BF64
:1005800000F8012B70474FF000020429C0F01280E0
:1005900010F0030C00F01B80CCF1040CBCF1020F36
:1005A00018BF00F8012BA8BF20F8022BA1EB0C010B
:1005B00000F00DB85FEAC17C24BF00F8012B00F801
:1005C000012B48BF00F8012B70474FF0000200B527
:1005D000134694469646203922BFA0E80C50A0E866
:1005E0000C50B1F12001BFF4F7AF090728BFA0E814
:1005F0000C5048BF0CC05DF804EB890028BF40F8E0
:10060000042B08BF704748BF20F8022B11F0804F21
:1006100018BF00F8012B704770477047704770B5DE
:10062000044685690068C10601D5302600E0202611
:10063000C00707D070BDD4E9012130469047206A39
:10064000401C20626D1EF6D570BD70B504468569EC
:100650000078C00707D170BDD4E901212020904760
:10066000206A401C20626D1EF6D570BD09684A05DF
:1006700001D540B27047C905FCD500B27047096882
:100680004A0501D5C0B27047C905FCD580B2704794
:1006900070B50C460546012A05D02878800600D59D
:1006A000EA69002302E0012305E05B1C934202D2C9
:1006B000E05C0028F9D1A869E618C01AA861286A88
:1006C000184428622846FFF7AAFF04E0D5E9012173
:1006D00014F8010B9047B442F8D32846FFF7B5FF52
:1006E00070BD00002DE9F041064600241068752910
:1006F000314616A510D0FFF7B9FF002802DA4042B4
:1007000013A507E031688A0701D512A502E0490761
:1007100004D511A5012401E0FFF7B1FF00210A2251
:1007200006F1240709E0B0FBF2FCB0FBF2F302FB98
:100730001C00303078541846491C0028F3D1234659
:100740002A463046BDE8F04100F095BA00000000AE
:100750002D0000002B00000020000000116802683E
:10076000006A530501D508700AE0D30501D5088059
:1007700006E0130603D5C217C1E9000200E00860D5
:100780000120704701694A1C02610878704700B572
:100790008FB0CDE901310021059105497944CDE9BA
:1007A00003101146684600F02BF90FB000BD0000A1
:1007B000E5FFFFFFD1E900239A4202D2531C0B60F0
:1007C000107070472DE9FF5F15468A460446DFF832
:1007D000AC80F8440027D8E900103E46CDE900106F
:1007E00010E03AF816106A4602A800F055FE411CC7
:1007F00007D02178890603D5E269391891420DD8CE
:100800000744761C2078800602D5E069B84205DDF1
:10081000AE42E6DB3AF816000028E2D1A069C01B20
:10082000A0612046FFF7FBFED8E90010CDE90010DB
:10083000002017E03AF818106A4602A800F02CFED3
:10084000B0F1FF3F81460BD000250DF1080B05E00C
:10085000D4E901211BF8050090476D1C4D45F7D3E5
:1008600008F10100B0428046E4DB206A384420628F
:100870002046FFF7EAFEBDE8FF9F0000127F000060
:100880002DE9F0418046D21D22F007020025D2E971
:100890000002F52915A614D0011E72F1000106DA36
:1008A0000023D0EB030063EB020211A608E0D8F8A6
:1008B00000108B0701D50FA602E0490701D50EA64F
:1008C00001251146002408F1240704E000F08EF908
:1008D00030323A55641C50EA0102F7D12B463246B9
:1008E00021464046BDE8F04100F0C5B900000000D7
:1008F0002D0000002B0000002000000030B400217B
:1009000000F1240408E002F00705D208303542EA7D
:100910004372DB086554491C52EA0305F3D10468AD
:10092000002310A2250708D504F020040C4304D0AE
:10093000C46901230CA2641EC46130BC00F09BB9E1
:1009400010B5044621461068FFF799FE024620467E
:10095000BDE810400023D1E7D21D22F00701D1E904
:100960000023CBE70000000030000000F0B40D468B
:100970000188090502D5214C7C4402E01F4C7C44CF
:100980000E34002100F1240608E002F00F071209DE
:10099000E75D42EA03721B097754491C52EA0307D8
:1009A000F3D102780023120704D5702D06D009B1C7
:1009B000022311342246F0BC00F05DB9012310344B
:1009C000F8E770B504460D4621461068FFF757FE5C
:1009D000024629462046BDE870400023C6E7D21DE6
:1009E00022F00703D3E90023C0E70368126843F04D
:1009F000200303600823C3610023B7E7747D000070
:100A00002DE9F05F894604464FF0000ADFF874B123
:100A1000FB44C0F820A02046E1688847002874D035
:100A2000252806D0D4E901219047206A401C206285
:100A3000F1E700265F462046E16888472028054602
:100A400007DB312D05D2781910F8200C08B10643C8
:100A5000F1E7B00701D526F00406C4F81CA0002772
:100A6000C4F818A02A2D09D0284607F0F7FD38B39E
:100A700004EB8708303DC8F8185019E059F8041BFA
:100A8000204604EB87029161E1688847012F054603
:100A900018D1E069002820DA26F020061DE0D8F8F9
:100AA000180000EB800005EB40003038C8F8180053
:100AB0002046E1688847054607F0D0FD0028EED1C2
:100AC000012F0AD02E2D08D12046E16888477F1CCF
:100AD0000546022F46F02006C4DBA069002803DA91
:100AE000404246F00106A061F00701D026F0100652
:100AF0006C2D0BD0682D09D04C2D39D06A2D35D0F6
:100B0000742D35D07A2D33D016E038E0E1682F46C9
:100B100020468847B842054609D16C2F26D04FF4AD
:100B20008060E168064320468847054604E06C2F54
:100B30001AD04FF4807006430DB3A5F14100192877
:100B400002D8203546F400664A46294620462660EB
:100B50004E46FFF7B1FB80B101280BD0F61D26F001
:100B6000070000F1080956E74020E4E78020D8E7B5
:100B70000020D6E706F104094DE7284652E7206A2F
:100B8000BDE8F09F047D000010B5203AC0F00B8056
:100B9000B1E81850A0E81850B1E81850A0E8185073
:100BA000203ABFF4F5AF5FEA027C24BFB1E81850E9
:100BB000A0E8185044BF18C918C0BDE810405FEA4B
:100BC000827C24BF51F8043B40F8043B08BF7047C7
:100BD000D20728BF31F8023B48BF11F8012B28BFCC
:100BE00020F8023B48BF00F8012B704730B5B0F148
:100BF0000A0271F100034FEA900E4EEA817EB0EBDB
:100C00000E0061EB91014FEA101E4EEA017E10EBDF
:100C10000E0041EB11114FEA102E4EEA016E10EB5F
:100C20000E0041EB11214FEA104E4EEA014E10EB3F
:100C30000E0041EB1141401841F100014FEAD00094
:100C400040EA41704FEAD1014FEA810444EA9074CE
:100C500010EB800544EB01046D1944EB0404521BB6
:100C6000A3414FF0000348BF0A3200D530BD401CFD
:100C700041F1000130BD2DE9F0470D4699469246FD
:100C8000044600F124080168880604D5E06921F0D3
:100C90001001216000E00120A84201DD471B00E0B7
:100CA0000027A1697A1902EB0900081AA0612078CF
:100CB000C00602D42046FFF7B2FC002608E0D4E9C3
:100CC00001211AF806009047206A401C761C206219
:100CD0004E45F4DB2078C0060AD52046FFF79FFC7E
:100CE00006E0D4E9012130209047206A401C2062B0
:100CF000381EA7F10107F4DC07E0D4E9012118F858
:100D000005009047206A401C2062281EA5F10105BD
:100D1000F3DC2046FFF799FC2078000602D502207C
:100D2000BDE8F0870120FBE72DE9FF4F0C461E468A
:100D30004FF0FF378BB0D2E90001DDF860800A90F8
:100D40008A46C1F30A5505B93D46002108464FF0D1
:100D50000000BAF1000F00F4400005DA00EB80005B
:100D60004FF4400101EA50004FEA9059B9F1010FE8
:100D700000DDB9460A9850EA4A000ED044F61050F9
:100D8000A5F2FF3545432F14B8F1000F1ED0754270
:100D9000291E1EDDC9F100021CE0B8F1010F4FF061
:100DA000000001D0302103E0F24305E02154401C53
:100DB000B042FBDB30460022002121540B99C1F8E0
:100DC0000880C1E900200FB0BDE8F08FBD1B6D1C8D
:100DD000DEE74A4600DA694206A800F0F7FB06ABF8
:100DE00093E8070003AB83E8070050460A9907F031
:100DF00054F88DE80700A0F500501F3800900398C4
:100E0000002D0ADD42F21F014A460844002303A9CF
:100E10000390684607F0BEFA09E0A0F500504A4684
:100E20001F38002303A90390684607F0C8FA8DE82D
:100E300007000004000C03D04FF0FF30410800E031
:100E40001046B8F1000F03D00022009215461EE0B4
:100E5000751E05D4FFF7CAFE303262556D1EF9D5F6
:100E6000B3460122084302D000227F1C04E0207810
:100E7000302801D100227F1E002A099784D01DE06E
:100E8000112D07DAFFF7B2FE303262556D1C50EAC1
:100E90000102F5D1084302D00098C8B10EE000214C
:100EA000681E05E0235C625C63542254401E491CAA
:100EB0008142F7DBAB46A81B401E0990002004F8D6
:100EC0000B000B98099AC0F80880C0E9002B7AE75C
:100ED00011264FF0000857E72DE9F04F88460446E9
:100EE000D21D22F0070191B0D1E90001CDE90A013C
:100EF00007F09CFB02460B98C00F01D02D2007E0A5
:100F00002068810701D52B2002E0202101EAC000E2
:100F1000032A099001D0072A05DB034641462046F3
:100F200000F014FB0BE12078800601D5E06900E0B9
:100F30000620B8F1650F814606D0B8F1660F18D0CB
:100F4000B8F1670F70D131E00020B9F1110F0090B6
:100F500001DB112301E009F101030AAA01A90CA890
:100F6000FFF7E2FEDDE90C70002609F1010583467A
:100F700047E001204B4600904FF000470AAA01A924
:100F80000CA8FFF7D1FEDDE90DB00C995D460026F7
:100F900010B909F101000D18B9EB050003D4C0F137
:100FA000FF3609F10105A5EB09002BE0B9F1010FAE
:100FB00001DA4FF001090020B9F1110F0090484605
:100FC00001DD112300E003460AAA01A90CA8FFF7DE
:100FD000ABFEDDE90C704D46002683462078000705
:100FE0000AD4AB4500DA5D4601A8012D04DD4119A4
:100FF00011F8011C302907D04F4502DA17F1040F10
:1010000004DA012082460FE06D1EEEE7002F02DCBD
:10101000ED1B3E4403E0781CA84200DD7D1CB81B9C
:1010200000F1010A4FF000472078000703D4AA45D9
:1010300001DB4FF0FF3A0021B7F1004F0DF14308FB
:101040008DF8431024D002202B23002F01DA7F4299
:101050002D230A21021EA0F1010000DC5FB197FBE5
:10106000F1FC97FBF1F201FB1C7C17460CF1300CF4
:1010700008F801CDEEE7A8F1010003702188090509
:1010800001D5452100E06521A0F1010800F8011C0F
:1010900009980FA9A1EB0807FF1D00B10120411914
:1010A00001EBEA70A1693844081A401EA06120785B
:1010B000C00602D42046FFF7B2FA099828B1D4E955
:1010C00001219047206A401C20622078C00622D56A
:1010D0002046FFF7A4FA1EE0002E04DBB34502DD34
:1010E00001A8805D00E03020D4E901219047206A0A
:1010F000401C2062761CAAF101005FEA000A0AD1B6
:1011000000F020FAC0680168405CD4E901219047F2
:10111000206A401C2062281EA5F10105DCDC07E0E6
:10112000D4E9012118F8010B9047206A401C206285
:10113000381EA7F10107F3DC2046FFF786FA0320EB
:1011400011B041E62DE9F04F04460D46D21D22F0C4
:10115000070089B0D0E900974846394607F066FA9B
:101160000246F80F01D02D2307E02068810701D542
:101170002B2302E0202101EAC0038DF820300BB1BF
:10118000012000E00020032A824601D0072A04DB68
:101190002946204600F0DAF93FE12078800601D4A4
:1011A0000D2500E0E569C7F30A560D2D49DA002147
:1011B0004FEA175B08464FF00000002F00F4400094
:1011C00007DA00EB80004FF4400100EBD07001EA39
:1011D00060008115012901DD4FF0FF3100224FEA47
:1011E000850CBCF1180F06D31346ACF118004FF074
:1011F0008052C24003E04FF4801323FA0CF30CF149
:101200000C0CBCF1200F04D3ACF1200C09FA0CF04B
:1012100001E007FA0CF000294FF0004801DD18B991
:101220000FE00ED140450CD319EB02095F4121B903
:10123000404502D19F4329EA0209BBEB175F00D06A
:10124000761C2088000502D57B48784402E07A4865
:101250007844193808AA302302F80A30037C0AF1CE
:101260000101002E0AF1020A53546A4602DC4FF0D3
:10127000300101E04FF031014FF001088DF800100E
:1012800002D0A6F2FF3603E059EA470100D06B4EC8
:10129000002D02DC2178090704D54FF002082E2129
:1012A0008DF80110C44600210BE0C7F303433F0152
:1012B000C35C491C6D1E02F80830052908F10108BD
:1012C00001DA002DF1DC00210CE000EB1973491C60
:1012D0001B786D1E082902F808304FEA091908F139
:1012E000010801DA002DF0DC21688B0602D516E03A
:1012F000A8F10108E04505DD02EB080313F8013C05
:10130000302BF5D0B8F1000F09DD02EB080313F81C
:10131000013C2E2B03D1090701D4A8F10108002DAF
:1013200005DD3E2102F808106D1E08F10108407C21
:10133000002E02F8080008F1010804DA2D20764298
:1013400002F8080002E02B2002F808000A214FF4FE
:101350007A70864208F101080BDB96FBF0F330331C
:1013600002F8083096FBF0F308F1010800FB136661
:1013700001E0642E0CDB642096FBF0F3303302F8BE
:10138000083096FBF0F308F1010800FB136601E05A
:101390000A2E06DB96FBF1F0303002F8080008F167
:1013A000010896FBF1F001FB1060303002F80800F4
:1013B000A16908F1010808EB050202EB0A00081A0E
:1013C000A0612078C00602D42046FFF728F9216AE0
:1013D00008AE01EB0A00206204E0D4E9012116F80E
:1013E000010B9047BAF1010AF7D22078C00602D566
:1013F0002046FFF714F96E4609E016F8010B3E2867
:101400000FD0D4E901219047206A401C2062B8F136
:101410000108F2D22046FFF718F909B00320BDE811
:10142000F08F206A2844206203E0D4E901213020B3
:1014300090476D1EEBD3F8E7EE74000002FCFFFF4F
:1014400010B5436913B1AFF3008001E0FFF720F955
:10145000012010BD127800F124010A7000224A70A8
:101460000122EDE711684FF0FF32E9E710B543695B
:1014700013B1AFF3008001E0FFF7A4F9012010BD24
:10148000128800F1240182840022C2840122EDE747
:1014900011684FF0FF32E9E72DE9F04116460C469E
:1014A000054600F047F8036893F80101012807D0CA
:1014B000FF2C12D8185D80B101202C70BDE8F0819E
:1014C000D3F807013246214603F20713C71828460E
:1014D000BC46BDE8F041002360474FF0FF30EDE728
:1014E00000487047A80100207546FFF7F9FFAE4697
:1014F00005006946534620F00700854618B020B520
:10150000FEF754FFBDE820404FF000064FF0000703
:101510004FF000084FF0000BAC46ACE8C009ACE857
:10152000C009ACE8C009ACE8C00921F007018D464C
:101530007047000010B500F005F8001D10BD00BF99
:101540005971000000487047C80100202DE9F041A2
:101550001F46044603260168072A01F4006004DBE5
:1015600008B116A505E016A503E008B115A500E031
:1015700015A521F010002060A069C01EA0610FB168
:10158000401EA0612046FFF74AF84FB1D4E901217F
:1015900038469047206A401C2062C01C206206E04A
:1015A000206AFAE7D4E9012115F8010B9047761E6D
:1015B000F8D22046FFF749F8BDE8F0814E414E00D1
:1015C0006E616E00494E4600696E66002DE9F04777
:1015D000814616468AB0354878440DC88DE80D001E
:1015E00032487844801C03AC0DC884E80D0041F6F5
:1015F0009B300844372190FBF1F290FBF1F5A5F107
:10160000800501FB12041B3C02D56442012000E06E
:101610000020DFF898A080460027FA44AAF1BE0A0D
:101620000EE0E0070AD03246684607EB4701012387
:101630000AEB810106F0C3FE8DE8070064107F1CF1
:10164000002CEED1194F7F44AE3F19E0E80715D0CA
:1016500007EB04100DF1180A90E80E008AE80E005E
:10166000C068F04201D1981908903246012306A9BA
:1016700003A806F0A4FE03AB83E807006D10641C0A
:10168000002DE3D14FF0010332466946B8F1000F57
:1016900003A802D006F07EFE01E006F090FEC9E944
:1016A0000001C9F808200AB0BDE8F087F071000019
:1016B00010B50446AFF300802046BDE81040FEF7A9
:1016C00060BE00000000000030B44FF0013C50F854
:1016D000042B51F8043BCCFA52F4D51A20D1FCB9B2
:1016E00050F8042B51F8043BCCFA52F4D51A17D118
:1016F000B4B950F8042B51F8043BCCFA52F4D51A83
:101700000ED16CB950F8042B51F8043BCCFA52F4CA
:10171000D51A05D1002CDAD030BC4FF0000070474C
:1017200029BAB1FA81F111F01801D1F120008440F9
:10173000F2D1CA40CB4012F0FF0213F0FF0330BCDD
:10174000D01A704701491820ABBEFEE72600020000
:1017500070470000032884BFE12070475FEA016CF6
:1017600004BFE320704710B540F2542EC2F2000EC1
:101770000EEB001400014EF80010201DDDF808C02B
:1017800080E80C10002010BD10B582B047F2AD7299
:1017900044F6B9230024C0F60002C0F6000300207E
:1017A00040F201110094FFF7D5FF28B148F6F80088
:1017B000C0F6000006F042F847F2BD7244F6C923B5
:1017C000C0F60002C0F60003012040F201110094AF
:1017D000FFF7C0FF28B148F6F800C0F6000006F099
:1017E0002DF847F2CD7244F6D9230024C0F600024A
:1017F000C0F60003022040F201110094FFF7AAFF97
:1018000028B148F6F800C0F6000006F017F847F2D5
:10181000DD7244F6E923C0F60002C0F6000303209F
:1018200040F201110094FFF795FF48B148F6F80027
:10183000C0F6000002B0BDE8104005F0FFBF00BFD9
:1018400002B010BDFEE70000002070470020704786
:1018500010B541F68024C2F2000441F27C21C2F2AC
:1018600000012046002204F007FA40F67C21C2F273
:101870000001204604F0F6F9002010BD10B541F635
:101880008024C2F200040146204604F0EBF9204611
:1018900004F012F9002010BD0020704770470000CE
:1018A000EFF3108072B648F64400C0F6000005F071
:1018B000C5FF00BFFEE70000032884BF012070477A
:1018C00080B507A131F8101040F60000C4F6000002
:1018D00000F05CF9C0B2002818BF012080BD00BF35
:1018E0000002000180004000014690F82500022817
:1018F00028D180B50868D1E910CE8A6C036823F03E
:101900000E030360136823F480731360026822F0EF
:10191000010202600EF01F00012202FA00F0CCF872
:101920000400D1E913205060486D30B1026822F400
:1019300080720260D1E9160242600020BDE880405A
:1019400003E000BF0420C8630120012281F82520A4
:10195000002281F82420704790F82510022931D107
:1019600080B50168D0E910CE826C0B6823F00E03BD
:101970000B600B6823F001030B60116821F4807188
:1019800011600EF01F02012101FA02F2CCF80420CE
:10199000D0E913325A60426D32B1136823F4807378
:1019A0001360D0E91623536080F82510826B002164
:1019B00080F824100AB190470021BDE88040084615
:1019C000704700BF0421C1630121002280F8251067
:1019D00080F82420084670472DE9F04F83B00E6848
:1019E000002E00F0CF8000F1200241F2004C009266
:1019F00000F13847C4F6000C06224FEAB7256045CF
:101A000008BF0522052D38BF4FEAB7220025002761
:101A10004FF0000801920AE00E6808F1010836FA5A
:101A200008F207F1020705F1040500F0AB8001227E
:101A300002FA08FE16EA0E09EED0D1F804C003221D
:101A40000CF0030BABF1010602FA07F4012E6FEA6A
:101A5000040A11D88468CE6804EA0A04BE403443FC
:101A60008460446824EA0E06CCF3001404FA08F4F7
:101A70002643466006E000BFBBF1030F02D14FF0E2
:101A8000030B21E0C6688C6806EA0A06BC402643C0
:101A9000BBF1020FC66017D16FF00302009B02EA90
:101AA000580605F01C020F2453F806C004FA02FE83
:101AB0000C692CEA0E0C04FA02F242EA0C029A516A
:101AC000D1F804C00CF0030B02680BFA07F302EA2A
:101AD0000A021A431CF4403F02609DD041F26003A9
:101AE000C4F202031A6840F2004E42F001021A608A
:101AF0001A68C4F2010E02F001020292029A28F062
:101B000003024FF6084C7244CFF6FF7C52F80C30BB
:101B100005F00C060F24B440A343019C04FA06F61A
:101B2000334342F80C30DEF808204B6842EA0906DD
:101B300040F20C4CDC0258BF22EA0906CEF80860DD
:101B4000C4F2010CDCF800209C0242EA090658BFEE
:101B500022EA0906CCF80060DEF804209C0342EA81
:101B6000090658BF22EA0906CEF80460DEF8002014
:101B7000DB0342EA090658BF22EA0906CEF80060F4
:101B80004AE700BF03B0BDE8F08F000000690840DD
:101B900018BF012070470000426902EA0103914327
:101BA00041EA0341816170471823002A08BF2823B6
:101BB000C150704742F27410C2F2000000687047D2
:101BC00040F2000042F27411C2F20000C2F20001C1
:101BD00040680A68104408607047000080B5032020
:101BE00000F08CF80F2000F009F800281CBF01203D
:101BF00080BD00F02BF8002080BD0000B0B540F2A1
:101C00000005C2F200056968F1B1044640F22800FF
:101C1000C2F200004FF47A720068B2FBF1F1B0FB3F
:101C2000F1F001F099FE01460F2C4FF001000AD8A7
:101C3000002918BFB0BD4FF0FF302146002200F050
:101C400031F800202C60B0BD0120B0BD82B041F25F
:101C50005800C4F20200816841F00101816081688E
:101C600001F0010101910199016841F08051016089
:101C7000006800F080500090009802B001F09EB81B
:101C8000002848BF704700F01F01012202FA01F14D
:101C90001C2202EAD0004EF20012CEF20002815065
:101CA0007047000010B54EF60C5CCEF2000CDCF86C
:101CB0000030C3F3022E8EF00704042C28BF042446
:101CC000BEF103034FF0FF3E0EFA04F438BF0023C9
:101CD000A14399400EFA03F39A43114300F00F0217
:101CE00000F160430901043A03F5644362440028AB
:101CF00048BF02F10C03197010BD00004EF60C51E4
:101D0000CEF200010A684FF6FF031A4060F30A2280
:101D100042F0806040F0FD70086070470122016869
:101D2000C0F8D022002280F8C822B1F8540040F058
:101D30000100A1F85400B1F8540040F00202002064
:101D4000A1F854207047000010B50129044613D0B3
:101D500011BB607A48B103F02BF84EF61050CEF26A
:101D60000000016821F006010160D4F8D802BDE846
:101D7000104004F03BBA00BFD4F8D80204F0BEFA19
:101D8000607A002808BF10BD4EF61050CEF2000059
:101D9000016841F00601016010BD000080B501F04E
:101DA000070C0CEB8C0C00EBCC0C0CF1100C01EBC9
:101DB000810E090600EBCE0058BF00F5A87C5AB191
:101DC000ACF808301B0C01210A202CF80030002050
:101DD0008CF80C1080BD00BF002106202CF80030CC
:101DE00000208CF80C1080BD01EB8102D0F8D832B5
:101DF00000EBC200426A184604F0B8B801EB810259
:101E0000D0F8D83200EBC200D0F86421184604F0B4
:101E100001B9000010B501F0070E0A464FFA81FC27
:101E20000EEB8E0100EBC10303F5A871BCF1000FAE
:101E300048BF03F1100190F89032D209012B4A708B
:101E400081F800E004BF022010BD0268012380F881
:101E500090320446104604F06FFE002084F8900291
:101E600010BD0000027901F00F03934284BF0120EE
:101E7000704710B501F0070303EB830200EBC202C9
:101E80004FFA81FC8E4602F5A871BCF1000F48BFE5
:101E900002F110014FEADE124A7090F890224FF0E2
:101EA000000C012A81F802C00B7004BF022010BD93
:101EB0000268012380F890320446104604F0D0FEF8
:101EC000002084F8900210BD01F0070101EB8101B0
:101ED00000EBC100D0F86C0170470000B0B501F014
:101EE00007048C464FFA81FE04EB840100EBC10528
:101EF00005F5A871BEF1000F48BF05F110014FEACA
:101F0000DC154D700C700A61022BCB7004BF0022EF
:101F10000A7190F89022012A04BF0220B0BD026825
:101F2000012380F890320446104604F0C7FC0020DC
:101F300084F89002B0BD000010B501F0070C0CEB66
:101F40008C0100EBC10E00680EF5A8710024CEF8DC
:101F50006421CEF86831CEF86C418EF851418EF88C
:101F600050C104F0D5FE002010BD0000027901F040
:101F7000070C94454FF001022AD810B501EB8103FC
:101F800000EBC3034FFA81FE03F5A8730CEB8C043E
:101F9000C90900EBC404BEF1000F48BF04F11003EF
:101FA000597090F890129A70012983F800C001D1FD
:101FB00002220BE00168012280F8902204460846C4
:101FC000194604F08BFE002284F89022BDE81040F0
:101FD0001046704780B501F0070C0CEB8C0100EB4C
:101FE000C10101F810CF00684FF0010C01F1140796
:101FF00081F824C04FF0000E87E80C400B6281F896
:1020000001C004F085FE002080BD00002DE9F04FE6
:1020100083B00446006805F0B9FA010422D44105F2
:1020200000F1E283410400F1F183810400F10684B0
:10203000C10400F10D84010500F13084010600F1B6
:102040004784810500F15484C00540F1DB8320689A
:10205000B0F8441021F48071A0F8441003B0BDE83A
:10206000F08F00BF2068B0F94410B1F1FF3F00F3DA
:10207000C98304F5A871019104F1100148F2C0056B
:10208000029104F5267140F60F78009123E000BF1D
:10209000B0F8501094F85021014401EBC201B1F89E
:1020A0000634B4F8562100996FF39F23C4F86C31BD
:1020B00005F070FA2068018801EA0801803101808A
:1020C000204600F0C1FD00BF2068B0F94410B1F116
:1020D000FF3F00F39783B0F8442012F00F090DD0B2
:1020E00030F929104FEA490BB1F1FF3F1FFA81FA8D
:1020F0002EDD5FEA0A60E7D544E100BF0188D20621
:102100005ED401EA080101F500410180B0F85010E9
:10211000227C084400EBC200B0F80204616A6FF34D
:102120009F20E0620844606220460021FFF75CFEC9
:10213000207B0028C8D0A06A0028C5D1207B216858
:1021400040F08000C0B2A1F84C0000202073BBE733
:1021500030F81B1001EA0801803120F81B10019AA9
:1021600009EB890102EBC106317B00297CD0F178B3
:10217000022940F08980B0F850303178B2690344C8
:102180005FEA4A4703EBC10300F19680B3F8067497
:1021900000236FF39F27D21B38BF1A46B26140F26B
:1021A000A1805FEA4A6200F1AD8030F8212002EAA6
:1021B00008022A4320F82120002F40F0A480C3E029
:1021C0000A053FF565AF09B2B1F1FF3F3FF77CAFBC
:1021D000018801EA080180310180B0F8501094F8BC
:1021E0005021014401EBC201B1F806346FF39F2383
:1021F000C4F86C3193B1D4F8641179B1B4F85621B4
:1022000005F0C8F9D4F86401D4F86C110844C4F896
:10221000640120460021FFF7F1FD206801880A05CE
:102220003FF552AF01F44051B1F5405F3FF44CAF80
:10223000B0F8501000F20642535A6FF39F235352E6
:10224000D4F860313F2BC0F0E781DE068E5A4FEAAA
:1022500053174FF0FF3508BF05EB531748F2C00581
:1022600046EA872361E200BFB0F85010327801449B
:1022700001EBC201B1F806746FF39F27002F63D002
:102280007169F2885BE000BF317830F8212002EA02
:1022900008022A4320F8212030F82120B0F85030DD
:1022A00000EBC1015204194416D4B1F806746FF35F
:1022B0009F2747BB48E000BFB3F8027400236FF3C9
:1022C0009F27D21B38BF1A46B2611FD95FEA4A6204
:1022D0002BD497BB38E000BFB1F802746FF39F278F
:1022E0005FBB31E030F8212043F60F731A404CF207
:1022F0008003A3F500535A4020F821205FEA4A6288
:102300007FF553AF07B37169728918E030F8212067
:1023100043F60F731A404CF28003A3F500535A4062
:1023200020F821205FEA4A62D3D530F8212002EA62
:1023300008022A4320F8212037B1716932893B46CF
:1023400005F028F901E000BF0027F169D6E9050290
:1023500039443844F161706112B13069B84209D929
:1023600031782046FFF74AFD5FEA0A607FF5ACAEA0
:1023700008E000BF2068314604F0CAFC5FEA0A604A
:102380007FF5A2AE206809EB890130F81B20029B83
:1023900003EBC10602EA080101F5004120F81B1019
:1023A000F178012922D1317B00294FF00001B16180
:1023B00000F02D815FEA4A6100F17E807178012989
:1023C00000F01281002940F02281B0F850103278DC
:1023D000084400EBC200B0F806146FF39F21A0F888
:1023E0000614B0F8061441F4004104E15FEACA5152
:1023F0001CD4B0F850203178024402EBC102B2F88C
:102400000224B3696FF39F229B1A4FF0000738BF75
:102410003B46B36140F2FC807169F369114471611C
:102420009918F161314604F073FC4DE6B0F8503074
:102430003178B5695FEA4A6200EBC10754D407F20C
:10244000064E3EF8033000226FF39F23ED1A38BF8B
:102450001546B5617CD95FEA4A4708D430F8217047
:102460004CF2800507EA08072F4320F8217096F800
:10247000241048F2C005012940F0A981D6E904C121
:10248000D6E9075719441D4467457161F56180F02D
:10249000FB80002F00F06081BC46326286F8242069
:1024A000737848F2C005012B40F0F780B0F8503047
:1024B0002EF803C07CE100BF7178012900F09E80F6
:1024C000002940F0A480B0F850103278084400EBA6
:1024D000C200B0F802146FF39F21A0F80214B0F804
:1024E000021441F4004190E007F2024939F8033048
:1024F00000226FF39F23ED1A38BF1546B5614DD901
:102500005FEA4A4708D530F821704CF2800507EAA7
:1025100008072F4320F8217096F8241048F2C005D0
:10252000012940F05481D6E90471D6E9075E1944C7
:102530001D44BE457161F56180F0CE804FF0000C06
:10254000BEF1000F86F824C040F0C9809E46C8E066
:10255000737848F2C005012B6AD0002B71D1B0F816
:1025600050303B44B3F802746FF39F27A3F8027412
:10257000B3F8027447F40047A3F80274B0F85000AF
:102580003EF800306FF39F232EF800303EF8003005
:1025900043F400432EF8003053E000BF737848F254
:1025A000C005012B54D0002B5BD1B0F8503039F866
:1025B00003506FF39F2529F8035039F8035045F471
:1025C000004529F80350B0F8500048F2C0053844DF
:1025D000B0F806246FF39F22A0F80624B0F8062472
:1025E00042F400423BE000BFB0F85010327808449B
:1025F00000EBC2000021A0F8061408E0B0F850106B
:102600003278084400EBC2000021A0F802143178AF
:102610002046FFF7E9FB57E5002B00F0858003F02B
:102620000107565A07EB530346EA832382E000BFB3
:10263000B0F850303B44A3F80224B0F850002EF814
:1026400000202046FFF7D0FB5FEA4A4010D5BEE0ED
:10265000B0F8503029F80320B0F850003844A0F802
:1026600006242046FFF7C0FB5FEA4A4040F1AF80F6
:10267000206831784CF2800330F8212002EA080209
:102680001A4320F82120A2E0A7EB0C0333627378F1
:1026900048F2C005012B3FF409AF002B40F08880C1
:1026A000B0F85030BCF13F0F3EF803706FF39F2736
:1026B0002EF803705AD35FEACC654FEA5C173EF8F8
:1026C00003504FF0FF3208BF02EB5C1745EA872743
:1026D00048F2C00568E000BFAEEB070CBE46C6F886
:1026E00020C0737848F2C005012B2FD0002B69D190
:1026F000B0F85030BEF13F0F39F803706FF39F27E9
:1027000029F8037040D35FEACE654FEA5E1739F8C7
:1027100003504FF0FF3208BF02EB5E1745EA8727F0
:1027200048F2C0054AE000BF535A48F20007CFF60E
:10273000FF773B438B52018843F60F7211404CF2F6
:102740008002A2F5805251400180BDE4B0F85030C3
:1027500029F803E036E000BF002786F824709C4685
:10276000737848F2C005012B97D19FE6BCF1000FAA
:1027700018D00CF001073EF8035007EB5C0745EA60
:10278000872748F2C00511E0BEF1000F14D00EF00B
:10279000010739F8035007EB5E0745EA872748F23F
:1027A000C0050DE03EF8037047F400472EF80370B3
:1027B00072891FFA8CF308E039F8037047F4004778
:1027C00029F8037032891FFA8EF304F039FF20686C
:1027D000317840F63F7330F821201A40A5F11003FC
:1027E0005A4020F821206FE42068B0F8441021F40A
:1027F0008061A0F84410204600F0E8F994F89002B7
:1028000001280DD103B0BDE8F08F00BF2068B0F8FB
:10281000441021F48041A0F8441003B0BDE8F08FCB
:102820000120002584F8900225732068002104F01F
:10283000FFFE84F8905203B0BDE8F08F2068B0F836
:10284000441021F40051A0F8441003B0BDE8F08F0B
:102850002068B0F8401021F00401A0F84010B0F852
:10286000401021F00801A0F8401094F8C802012897
:1028700006D1002084F8C80220460021FFF764FA40
:10288000204600F0B5F92068B0F8441021F48051DA
:10289000A0F8441003B0BDE8F08F00BF2168B1F884
:1028A000400040F00800A1F84000B1F8440020F4D6
:1028B0000060A1F84400B1F8400040F00402204656
:1028C000A1F8402003B0BDE8F04F00F0DBB900BF35
:1028D0002068B0F8441021F08001A0F8441094F86A
:1028E000C81299B1204603B0BDE8F04F00F0CAB954
:1028F0002168B1F8440020F400722046A1F8442079
:1029000003B0BDE8F04F00F087B900BFB0F8401049
:1029100041F00401A0F84010B0F8401041F0080167
:10292000A0F84010012184F8C812B0F854003C21EE
:1029300001EA900220460121C4F8CC2203B0BDE890
:10294000F04FFFF701BA0000002804BF01207047D4
:10295000F0B581B0044690F8910228B9002084F8BF
:102960009002204600F0FEF8032084F891022068CF
:1029700004F06CF994F804E0BEF1000F00F0E08080
:102980000EF0030CBEF1040F4FF0000238D30EF02E
:10299000FC03A4F1A0000321012500BFCE1E80F896
:1029A000B0608E1E80F8D8604E1E80F8006180F8FE
:1029B00028110E1D013180F8B15080F8B320C0E914
:1029C0003022C0F8C82080F8D95080F8DB20C0E958
:1029D0003A22C0F8F02080F8015180F80321C0E9C4
:1029E0004422C0F8182180F8295180F82B21C0E931
:1029F0004E22C0F84021A03099423146CED1F21E7D
:102A0000BCF1000F2ED004F1100002EB820100EBAC
:102A1000C105012300F831200021BCF1010F6B70CA
:102A2000E970C5E90411A9611CD0551C05EB8506A8
:102A300000EBC607BCF1020F7B7000F83650F9704E
:102A4000C7E90411B9610DD0911C01EB810200EBC3
:102A5000C203012500F8321000205D70D870C3E970
:102A600004009861BEF1000F6AD0BEF1040F4FF070
:102A7000000235D30EF0FC0003212346CF1E83F85D
:102A800050718F1E83F878714F1E83F8C8110D1D89
:102A9000013183F8512183F85321C3E95822C3F847
:102AA000682183F8792183F87B21C3E96222C3F886
:102AB000902183F8A12183F8A07183F8A321C3E9B1
:102AC0006C22C3F8B82183F8C92183F8CB21C3E96C
:102AD0007622C3F8E021A03381422946CED1EA1EF6
:102AE000BCF1000F2CD004F5A87002EB820300EBC0
:102AF000C3070021BCF1010F797000F83320F97091
:102B0000C7E90411B9611BD0531C03EB830700EB29
:102B1000C706BCF1020F717000F83730F170C6E9DA
:102B20000411B1610CD0911C01EB810200EBC203D6
:102B300000275F7000F83210DF70C3E904779F61EF
:102B400094E8070004F074F800200121207384F851
:102B50009112A17A012903D12046FFF7DFF8002066
:102B600001B0F0BD10B596B0044601A80430502164
:102B7000FDF72BFD206845F60041C4F200018842B4
:102B800002D016B010BD00BF4FF40050019001A854
:102B900000F01EF9002818BFFEF782FE41F258002F
:102BA000C4F202000168002241F4000101600068E3
:102BB000002100F40000009000981420FFF772F844
:102BC0001420FFF75DF816B010BD000010B50446E4
:102BD0004079022818BFFEF763FED4F8D80201211D
:102BE00003F020FBD4F8D802BDE8104003F0CABAC5
:102BF00010B50446407A48B14EF61050CEF20000AF
:102C0000016821F00601016002F0D2F8D4F8D80280
:102C1000BDE8104003F0EABAD0F8D80203F0F0BAE9
:102C200090F89022012A04BF0220704710B50122BB
:102C300080F89022017302680446104604F0F8FC04
:102C4000002084F8900210BDD0F8D82200F526713B
:102C5000104603F0FDBA000090F89012012904BF5D
:102C60000220704710B50168012280F890220446C6
:102C7000084604F07BFC206803F0D0FF002084F8B5
:102C8000900210BD10B50446D0F8D80203F036FB10
:102C9000607A002808BF10BD4EF61050CEF200003A
:102CA000016841F00601016010BD000047F2140107
:102CB000C4F2000151F8142CB0F5007F3CD000287C
:102CC00074D1C86E02F4C06220F48070B2F5806FD7
:102CD000C8662FD151F8140C012262F34A2041F842
:102CE000140C40F22800C2F2000000683222504367
:102CF0004DF68362C4F21B32A0FB0202900C00BFAF
:102D00000A68520511D5421C0FD00A6852050CD52D
:102D100058B10A68520508D5012806D00A6852053C
:102D200003D50228A0F10400EAD10868400544BF99
:102D30000320704700207047C86E02F4C06240F460
:102D40008070B2F5806FC866F4D151F8140C01227E
:102D500062F34A2041F8140C40F22800C2F200004D
:102D60000068322250434DF68362C4F21B32A0FB4E
:102D70000202900C0A68520511D5421C0FD00A6855
:102D800052050CD558B10A68520508D5012806D05D
:102D90000A68520503D50228A0F10400EAD10868A8
:102DA000400544BF03207047C4E700BF022060F322
:102DB0004A2241F8142C00207047000047F2080016
:102DC000C4F20000016841F48041016070470000D6
:102DD0002DE9F04182B00446807841F28806000770
:102DE000C4F2020602D400202FE000BF56F8300CD7
:102DF0005FEAC0080BD456F8300C40F0805046F81B
:102E0000300C56F8300C00F080500190019847F2D9
:102E10000007C4F20007386840F480703860FEF79D
:102E2000C9FE05463868C00500F10C81FEF7C2FEF8
:102E3000401B0228F6D90320B8F1000F05D456F83C
:102E4000301C21F0805146F8301C2168CA0717D188
:102E50008A071DD44A0723D40A0729D4CA062FD4C7
:102E60008A0635D44A063BD40A0641D4CA0547D45B
:102E70008A034DD48A0553D44A0559D467E000BF6C
:102E80003268636822F003021A4332608A07E1D590
:102E90003268A36822F00C021A4332604A07DBD57D
:102EA0003268E36822F030021A4332600A07D5D54F
:102EB0003268236922F0C0021A433260CA06CFD5B5
:102EC0003268636922F440721A4332608A06C9D5B7
:102ED0003268A36922F440621A4332604A06C3D5BD
:102EE0003268E36922F440521A4332600A06BDD5C3
:102EF0003268236A22F440421A433260CA05B7D5C9
:102F00003268636A22F440321A4332608A03B1D5D0
:102F10007269A36A22F003021A4372618A05ABD573
:102F20003268E36A22F440221A4332604A050ED521
:102F30003268236B22F440121A43B3F5801F3260CB
:102F400005D156F87C2C42F4801246F87C2C0A05F8
:102F50000ED53268636B22F440021A43B3F5800F3A
:102F6000326005D156F87C2C42F4801246F87C2C55
:102F7000CA040ED53268A36B22F040721A43B3F133
:102F8000807F326005D156F87C2C42F4801246F8DE
:102F90007C2C8A040ED53268E36B22F040621A431F
:102FA000B3F1006F326005D156F87C2C42F48012E8
:102FB00046F87C2C4A040ED53268236C22F040621D
:102FC0001A43B3F1006F326005D156F87C2C42F4FD
:102FD000801246F87C2C0A040ED53268636C22F00D
:102FE00040521A43B3F1805F326005D156F87C2C11
:102FF00042F4803246F87C2CCA030ED53268A36CAA
:1030000022F040421A43B3F1804F326005D156F8A6
:103010007C2C42F4803246F87C2C49030ED5716931
:10302000E26C21F440111143B2F5001F716105D12A
:1030300056F87C1C41F4801146F87C1C02B0BDE8B7
:10304000F08100BFB06810F4407010D0216D88424C
:103050000BD0B068B16820F4407041F48031B160A9
:10306000B16821F48031B160B060C0070CD1B068A4
:10307000216D20F440700843B0600020B8F1000FCB
:103080003FF5E3AEDBE600BFFEF794FD054641F2F7
:10309000883700BFB0688007E9D4FEF78BFD401B7E
:1030A000B842F7D9C7E600002DE9F047002863D001
:1030B00042F2000AC4F2020A0446DAF800000D46A1
:1030C00000F00F0088420CD2DAF8000020F00F0068
:1030D0002843CAF80000DAF8000000F00F00A84208
:1030E0004AD1216841F20808C807C4F2020803D196
:1030F000880740F1D080B5E0606858F8082C0228B5
:1031000038D003283CD1920136D5D8F80420D8F81D
:10311000043042F20046C3F3031302F00302D8F86E
:1031200004700133C0F2F406032A04BF41F2002602
:10313000C0F27A06B6FBF3F2D8F80430C7F30627DC
:103140007A43C3F34163022707EB4303B2FBF3F275
:103150004BF20043C0F2C4439A4259D9D8F8002038
:1031600012F0F00F49D0890752D5A16800294FD13C
:1031700043E000BF910305D40120BDE8F08700BF04
:103180005105F9D5D8F8001001F00C0104293FD001
:10319000D8F8001001F00C01082939D0D8F8001037
:1031A00001F00C010C2933D1D8F80410D8F8042010
:1031B00042F20047C2F3031201F00301D8F80430D1
:1031C0000132C0F2F407032904BF41F20027C0F224
:1031D0007A07B7FBF2F1D8F80420C3F3062359436A
:1031E000C2F34162022303EB4202B1FBF2F14BF264
:1031F0000042C0F2C44291420AD9D8F80010082215
:1032000062F307114FF00109C8F8001002E000BF97
:103210004FF00009D8F8001021F003010843C8F866
:103220000000FEF7C7FC064641F28837D8F80000D8
:10323000616800F00C00B0EB810F07D0FEF7BAFC1C
:10324000801BB842F2D90320BDE8F08721688807C7
:1032500008D4B9F1000F1ED0D8F8000020F0F0001B
:1032600017E000BF480705D5D8F8000040F4E0603B
:10327000C8F80000080706D5D8F80000072262F356
:103280000D20C8F80000D8F80000A26820F0F00077
:103290001043C8F80000DAF8000000F00F00A84260
:1032A0001BD9DAF8000020F00F002843CAF800000C
:1032B000FEF780FC064641F2883700BFDAF80000CE
:1032C00000F00F00A84207D0FEF774FC801BB84244
:1032D000F4D90320BDE8F0872168480707D5D8F85E
:1032E0000000E26820F4E0601043C8F8000008071E
:1032F00008D5D8F80000216920F4605040EAC100E8
:10330000C8F80000D8F8000042F20041C0F2F40111
:1033100000F00C00042808462DD0D8F8000000F07A
:103320000C00082841F20020C0F27A0023D0D8F81F
:10333000002002F00C020C2A1CD1D8F80420D8F886
:10334000043002F00302C3F30313D8F8047001330E
:10335000032A08BF0146B1FBF3F0D8F80410C7F305
:103360000627C1F341610222784302EB4101B0FB21
:10337000F1F000E00020D8F8001048F2F272C1F33A
:103380000311C0F60002515C40F2280201F01F0157
:1033900020FA01F140F20000C2F200000068C2F21F
:1033A00000021160BDE8F047FEF728BC40F228009B
:1033B00041F20801C2F20000C4F20201006809688B
:1033C00048F60202C1F30221C0F60002515C01F08E
:1033D0001F01C8407047000040F2280041F2080178
:1033E000C2F20000C4F202010068096848F6020255
:1033F000C1F3C221C0F60002515C01F01F01C840B8
:103400007047000041F20C01C4F2020151F8040CB3
:1034100042F20042C0F2F40200F00C000428104610
:1034200008BF704751F8040C00F00C00082841F266
:103430000020C0F27A0025D051F8043C03F00C03C0
:103440000C2B1CBF0020704780B5D1F800C00B6862
:103450000CF0030CC3F3031E0B680EF1010EBCF15C
:10346000030F08BF02460968B2FBFEF0C3F3062350
:10347000C1F341610222584302EB4101B0FBF1F07C
:10348000BDE8804070470000002804BF012070475D
:103490002DE9F04182B00446007841F20006C007F1
:1034A000C4F202061ED1207880073DD420780007A0
:1034B00064D42078400700F187802078800600F1EE
:1034C000D980E569002D00F04282B06800F00C0060
:1034D0000C2840F03181012D40F08E81012002B096
:1034E000BDE8F081B06800F00C01F068082961D0F7
:1034F000032281F00C0122EA00000844B0FA80F0B7
:10350000400957D161683068B1F5803F07D0B1F507
:10351000A02F40F0E38040F480203060306840F419
:1035200080303060E4E000BFB068F16800F00C006B
:10353000042871D001F0030180F00C0081F0020139
:103540000844B0FA80F0400966D1E168306800298B
:1035500000F0E08040F480703060FEF72BFB054601
:103560003068400500F10A81FEF724FB401B022869
:10357000F6D9032002B0BDE8F08100BF6169D6F83A
:103580009400002900F0948040F00100C6F89400F7
:10359000FEF710FB054600BFD6F8940080073FF504
:1035A00088AFFEF707FB401B0228F5D9032002B0C5
:1035B000BDE8F081306880037FF575AF6068002852
:1035C0007FF471AF3EE000BFB06D5FEAC00808D481
:1035D000B06D40F08050B065B06D00F0805001904B
:1035E000019847F20007C4F200073868C0052DD4DF
:1035F000386840F480703860FEF7DCFA054600BF9A
:103600003868C00522D4FEF7D5FA401B0228F7D946
:10361000032002B0BDE8F0813068400501D5E068C4
:1036200080B17068216920F0FE4040EA016070605E
:1036300040F20000C2F200000068FEF7DFFA002846
:103640003FF434AF012002B0BDE8F081A168D6F8A4
:103650009000012908D0052940F0AE8040F0040018
:10366000C6F89000D6F8900040F00100C6F890002F
:10367000AEE000BFA169D6F89800002900F086806E
:1036800040F00100C6F89800FEF794FA054600BF26
:10369000D6F8980080073FF514AFFEF78BFA401B71
:1036A00002284FF00300F3D902B0BDE8F08100BF5B
:1036B00020F00100C6F89400FEF77CFA054600BF32
:1036C000D6F8940080077FF5F4AEFEF773FA401B3E
:1036D0000228F5D9032002B0BDE8F08120F4803043
:1036E00030603068002920F48020306000F0BE8017
:1036F000FEF760FA054600BF306880033FF5D3AEA1
:10370000FEF758FA401B6428F6D9032002B0BDE842
:10371000F08100BF20F480703060FEF74BFA054660
:10372000306840057FF5C2AEFEF744FA401B022820
:103730004FF00300F4D9B7E7306820F080703060B4
:10374000FEF738FA022D05460CD100BF3068800123
:1037500040F1B880FEF72EFA401B02284FF003001C
:10376000F4D9A1E73068800140F1EA80FEF722FA3F
:10377000401B02284FF00300F4D995E770682169D7
:1037800020F0FE4040EA016070608FE620F001000A
:10379000C6F89800FEF70EFA054600BFD6F8980066
:1037A00080077FF58EAEFEF705FA401B02284FF02A
:1037B0000300F3D978E700BF20F00100C6F89000BD
:1037C000D6F89000002920F00400C6F890005DD0E3
:1037D000FEF7F0F9054641F2883700BFD6F89000B1
:1037E000800765D4FEF7E6F9401BB842F6D90320FE
:1037F00002B0BDE8F08100BFF068216A00F003026A
:103800008A427FF41FAF626A6FF00F0300F0F0018D
:1038100003EB021291427FF415AFA16A00F4FE425D
:10382000B2EB012F7FF40EAFE16A00F07842B2EB09
:10383000C16F7FF407AF226B0023CFF6E07303EA7A
:10384000025200F4C001A2F5001291427FF4FAAED8
:10385000616B4FF07E4202EA016100F0C06001F14D
:103860007E4188427FF4EEAE71E000BFFEF7A2F920
:10387000054600BF306880037FF515AEFEF79AF964
:10388000401B64284FF00300F4D90DE7FEF792F9CE
:10389000054641F2883700BFD6F89000800707D56B
:1038A000FEF788F9401BB8424FF00300F4D9FBE65D
:1038B000B8F1000F3FF501AEB06D20F08050B0655B
:1038C000FBE500BFF06848F20C01C0F29F1104F163
:1038D000200700EA010C8ECF6FF00F00D4E90C54E2
:1038E00000EB02100022CFF6E07241EA0C0102EA7E
:1038F00005520843A2F500124FF07E4540EA03202E
:1039000005EA0465104305F17E4540EAC760284397
:10391000F060306840F080703060F06840F0807097
:10392000F060FEF747F90446306880010FD4FEF7D7
:1039300041F9001B02284FF00300F5D9B4E600BF9F
:10394000F0684FF6FC71CFF6EE610840F0600020A1
:1039500002B0BDE8F0810000411E0020B0EB116F05
:103960001CBF012070474EF21002CEF200025160DF
:103970004EF62351CEF20001F0230B700721906028
:1039800011607047704700007047000070470000EA
:1039900070470000704700007047000090F83C201E
:1039A000012A4FF0020266D070B580F83D2002680F
:1039B00042F6004C54689368C4F2010C45F2000EC4
:1039C0006245C4F2010E18BF72452BD14D6824F434
:1039D00070042C434FF68F75CFF6FF550E682C40C0
:1039E00042F6FF35C4F201053443AA4254600DDCAF
:1039F00040F2FF76C4F20006B2421BDCB2F1804F07
:103A00002CD040F20046C4F2000625E043F6FF74D5
:103A1000C4F20104A24219DC62451FD043F2004601
:103A200018E000BF43F20045C4F20105AA42CDD020
:103A3000D0E700BF40F60006C4F20006B2420DD047
:103A400040F60046C4F2000606E000BF724505D00D
:103A500044F20006C4F20106B24204D1896823F0A0
:103A60008003194391600121002280F83D1080F805
:103A70003C20BDE8704010467047000070470000D1
:103A8000002804BF0120704710B5044690F83D009F
:103A900028B9002084F83C00204600F023F80220DA
:103AA00084F83D002068211D01F0D6F9012084F83A
:103AB000480084F83E0084F83F0084F8400084F811
:103AC000410084F8420084F8430084F8440084F8FC
:103AD000450084F8460084F8470084F83D00002043
:103AE00010BD0000006840F20041C4F200018842AD
:103AF00018BF704780B582B041F25800C4F202008E
:103B00000168002241F0020101600068012100F01B
:103B10000200019001981D20FEF7C4F81D2002B09C
:103B2000BDE88040FEF7ACB890F83D1001291BD1EC
:103B3000022180F83D10016842F6FF32C868C4F2E5
:103B40000102914240F00100C8600FDC40F2FF70BA
:103B5000C4F20000814219DCB1F1804F2ED040F256
:103B60000040C4F2000027E00120704743F6FF70D8
:103B7000C4F20100814215DC42F60040C4F20100AB
:103B800081421BD043F2004014E000BF40F6000029
:103B9000C4F20000814211D040F60040C4F200009F
:103BA0000AE000BF45F20000C4F20100814205D0E6
:103BB00044F20000C4F2010081420CD1886807225F
:103BC000C0F201020240062A4FF00000CDD0B2F54B
:103BD000803F08BF7047086840F00100086000207F
:103BE0007047000090F83C20012A4FF0020200F0DC
:103BF000998080B580F83D20D0F800C08822DCF89C
:103C00000830CFF6CE721A40CCF808200B68B3F516
:103C1000005F0DDA3F2B21DD5F2B3BDD602B00F0D9
:103C2000AB80702B00F09480B3F5805F71D0E7E03B
:103C30002F22C0F21002934218DD4F21C0F2100172
:103C40008B424FDD5021C0F210018B4255D06021D4
:103C5000C0F210018B4250D0702149E01F2B0FDCC5
:103C6000002B4AD0102B48D0CAE000BFB3F1101F80
:103C70000CDAB3F5005F57D0B3F5801F3DD0BFE03D
:103C8000202B3AD0302B38D0BAE000BF35D02021DD
:103C90002EE000BF402B00F09180502B40F0B08010
:103CA000D1F804E0C968DCF82030DCF8202022F0EC
:103CB0000102CCF82020DCF8182022F0F00242EAC1
:103CC000011123F00A0242EA0E02CCF81810CCF8D7
:103CD0002020DCF808104FF68872CFF6CF72114022
:103CE000573114E03021C0F210018B4205D0402141
:103CF000C0F210018B4240F08380DCF808104FF6D0
:103D00008872CFF6CF721140194341F00701CCF809
:103D100008100022012180F83D10002180F83C109D
:103D2000BDE8804010467047D1E901E3C968DCF87E
:103D3000082043EA0E0322F47F4243EA01211143A3
:103D4000CCF80810DCF8081041F48041DFE700BF30
:103D5000D1E901E3C968DCF8082043EA0E0322F444
:103D60007F4243EA01211143CCF80810DCF8081027
:103D700041F07701CBE700BFD1F804E0C968DCF877
:103D80002030DCF8202022F01002CCF82020DCF8D3
:103D9000182022F4704242EA013123F0A00242EAE4
:103DA0000E12CCF81810CCF82020DCF808104FF6D2
:103DB0008872CFF6CF7211406731A8E7D1F804E0DE
:103DC000C968DCF82030DCF8202022F00102CCF8B1
:103DD0002020DCF8182022F0F00242EA011123F042
:103DE0000A0242EA0E02CCF81810CCF82020DCF8C7
:103DF00008104FF68872CFF6CF721140473186E730
:103E0000012287E770470000F0B581B004460068E2
:103E1000C5680669B10717D515F0020114D06FF017
:103E200002010161012121778069800704D02046C9
:103E3000FFF7E8FF06E000BF204600F0CBF8204681
:103E400000F0CAF800202077700719D515F004009B
:103E500016D020686FF0040101610221217780698A
:103E600010F4407F04D02046FFF7CCFF06E000BFEF
:103E7000204600F0AFF8204600F0AEF80020207792
:103E8000300717D515F0080014D020686FF008012E
:103E9000016104212177C069800703D02046FFF724
:103EA000B1FF05E0204600F095F8204600F094F8B8
:103EB00000202077F00619D515F0100016D02068E4
:103EC0006FF01001016108212177C06910F4407F73
:103ED00004D02046FFF796FF06E000BF204600F022
:103EE00079F8204600F078F800202077F00718BF16
:103EF00015F0010006D020686FF001010161204635
:103F000000F06CF816F4025F05F0800718BF002F70
:103F100002D1F00509D410E020686FF4025101616C
:103F20002046FFF731FDF00507D537B120686FF463
:103F3000807101612046FFF725FD700609D515F057
:103F4000400006D020686FF040010161204600F07B
:103F50004FF8B00609D515F0200006D020686FF0A4
:103F6000200101612046FFF711FDF00209D515F48B
:103F7000801006D020686FF4801101612046FFF7A1
:103F800009FDB00209D515F4001006D020686FF4C1
:103F9000001101612046FFF7FBFC700209D515F402
:103FA000800006D020686FF4800101612046FFF791
:103FB000F3FC30020CD515F4000009D021686FF431
:103FC000000220460A6101B0BDE8F040FFF756BD8F
:103FD00001B0F0BD704700007047000042F23001B0
:103FE000C2F20001884218BF704703F04DBC0000C8
:103FF0007047000090F88410012904BF0220704728
:104000002421C0F8881001680A680B6822F0005269
:1040100023F001030B60002343660A602021C0F8EF
:10402000881080F88430002070470000704700003E
:104030007047000090F88420012A04BF02207047D6
:10404000B0B52422C0F888200268D0F864E0D2F825
:1040500000C01368BEF1000F23F0010313609368E2
:1040600023F0606341EA0301916019D0936891687D
:1040700048F6340E490FC0F6000E48F63C051EF80F
:104080000140C0F60005695CC3F34263E400B4FB81
:10409000F1F11EF80340EB5CE500B5FBF3F301E042
:1040A00001210123A0F86A102021A0F86830C2F88D
:1040B00000C0C0F88810002180F884100020B0BD36
:1040C00090F88420012A04BF02207047B0B5242252
:1040D000C0F888200268D0F864E0D2F800C0136805
:1040E000BEF1000F23F001031360936823F06043D7
:1040F00041EA0301916019D09368916848F6340E43
:10410000490FC0F6000E48F63C051EF80140C0F607
:104110000005695CC3F34263E400B4FBF1F11EF8EF
:104120000340EB5CE500B5FBF3F301E00121012363
:10413000A0F86A102021A0F86830C2F800C0C0F8CA
:104140008810002180F884100020B0BD7047000066
:10415000704700007047000070B5026840F62F04F9
:10416000D369116896681C40202C0BD101F0200403
:1041700006F080552D1916D0416F61B3BDE870402F
:10418000084700BF40F60F052B420CD00125C1F2B5
:10419000000506EA050C40F22015C0F200450D406E
:1041A00015EB0C0524D1C46EDD0615D5012C13D1F9
:1041B00011F0100510D0102111629168490661D4E8
:1041C000B0F85C10B0F85E20B0F85E30002B18BF7D
:1041D000914240F03F8270BDDD0215D516F4800596
:1041E00012D04FF480111162BDE87040FFF7B0BFEC
:1041F000DD0718BF11F4807540F00E819D0706F0B1
:10420000010E00F115811EE11A0606D501F08002AB
:1042100006F40006921940F09D825A0640F1F080A3
:1042200011F0400200F0EC80016851E8001F0268C4
:1042300021F0400142E80013DBB1016851E8001FA2
:10424000026821F0400142E8001393B1016851E88F
:10425000001F026821F0400142E800134BB10168E1
:1042600051E8001F026821F0400142E80013002BD2
:10427000DAD12021C0F8881000218167BDE87040A4
:1042800000F0DCBBD0F8801009684A6893B2002BBC
:10429000A1D0B0F85C60B3429DD2A0F85E2009685E
:1042A000890600F1A180016851E8001F026821F42D
:1042B000807142E80013DBB1016851E8001F026819
:1042C00021F4807142E8001393B1016851E8001FA6
:1042D000026821F4807142E800134BB1016851E893
:1042E000001F026821F4807142E80013002BDAD12C
:1042F000016851E8021F026821F0010142E802133F
:10430000BBB3016851E8021F026821F0010142E8D5
:10431000021373B3016851E8021F026821F0010122
:1043200042E802132BB3016851E8021F026821F032
:10433000010142E80213002BDAD11AE0016851E8CA
:10434000021F026821F0400142E80213DBB101685C
:1043500051E8021F026821F0400142E8021393B1C4
:10436000016851E8021F026821F0400142E802138F
:104370004BB1016851E8021F026821F0400142E898
:104380000213002BDAD12021C0F88C100021C16665
:10439000016851E8001F026821F0100142E8001393
:1043A000DBB1016851E8001F026821F0100142E80A
:1043B000001393B1016851E8001F026821F0100159
:1043C00042E800134BB1016851E8001F026821F078
:1043D000100142E80013002BDAD1D0F88010044617
:1043E0000846FDF781FA204602210167B0F85C100B
:1043F000B0F85E20891A89B2BDE87040FFF716BE9A
:104400001A0240F1B38111F0804200F0AF81BDE8A3
:104410007040FFF79BBE00BF01251562D0F8905099
:1044200045F00105C0F890509D0706F0010E0AD531
:10443000BEF1000F07D002241462D0F8904044F07F
:104440000404C0F890405C070AD5BEF1000F07D005
:1044500004251562D0F8905045F00205C0F8905040
:104460001D070CD501F0200555EA0C0507D00825DD
:104470001562D0F8905045F00805C0F890501D0521
:104480000BD511F0806508D04FF400651562D0F8A7
:10449000905045F02005C0F89050D0F89050002D75
:1044A0003FF499AE9B060BD501F0200106F0805336
:1044B000C91805D0416F19B10446884722682046C3
:1044C000D0F89010926801F0280102F0400289189B
:1044D00006D10446FFF73EFE0020C4F8900070BDF0
:1044E000016851E8001F026821F4907142E800134E
:1044F000DBB1016851E8001F026821F4907142E8C5
:10450000001393B1016851E8001F026821F4907113
:1045100042E800134BB1016851E8001F026821F422
:10452000907142E80013002BDAD14FF6FE71CEF6FF
:10453000FF7100BF026852E8022F03680A4043E897
:104540000226C6B1026852E8022F03680A4043E817
:10455000022686B1026852E8022F03680A4043E847
:10456000022646B1026852E8022F03680A4043E877
:104570000226002EDED1C16E012924D1016851E846
:10458000001F026821F0100142E80013DBB101684E
:1045900051E8001F026821F0100142E8001393B1B6
:1045A000016851E8001F026821F0100142E8001381
:1045B0004BB1016851E8001F026821F0100142E888
:1045C0000013002BDAD12021C0F88C100021C16625
:1045D000026841679168490640F1C480016851E86A
:1045E000021F026821F0400142E80213DBB10168BA
:1045F00051E8021F026821F0400142E8021393B122
:10460000016851E8021F026821F0400142E80213EC
:104610004BB1016851E8021F026821F0400142E8F5
:104620000213002BDAD1D0F88010002900F09A8014
:1046300045F20122C0F60002044608468A63FDF7EF
:104640008BF900283FF4C7ADD4F88000816BBDE83A
:1046500070400847891A00BF026852E8002F0368BB
:1046600022F4907243E80026DEB1026852E8002F7F
:10467000036822F4907243E8002696B1026852E87B
:10468000002F036822F4907243E800264EB10268BE
:1046900052E8002F036822F4907243E80026002EAF
:1046A000DAD14FF6FE72CEF6FF7200BF036853E810
:1046B000023F0668134046E80235C5B1036853E877
:1046C000023F0668134046E8023585B1036853E8A7
:1046D000023F0668134046E8023545B1036853E8D7
:1046E000023F0668134046E80235002DDED1202245
:1046F000C0F88C200022C266426700BF026852E800
:10470000002F036822F0100243E80026DEB10268A1
:1047100052E8002F036822F0100243E8002696B109
:10472000026852E8002F036822F0100243E80026D6
:104730004EB1026852E8002F036822F0100243E8ED
:104740000026002EDAD1022289B20267BDE870404D
:10475000FFF76CBC816F00293FF43DADBDE87040B0
:10476000084700BFBDE87040FFF7F4BCDA017FF5F1
:1047700032ADB1F1FF3FC8BF70BDBDE87040FFF77B
:1047800057BC000010B5D0B10446D0F8880028B955
:10479000002084F88400204600F026F82420C4F885
:1047A00088002068A16A026822F00102026011B14B
:1047B000204600F0FBFB204600F02AFD10B101204E
:1047C00010BD00BF2168486820F4904048608868A8
:1047D00020F02A008860086840F0010220460A6044
:1047E000BDE8104000F056BC10B59CB00446002057
:1047F0001B90CDE91900CDE9170002A80430502123
:10480000FBF7E3FE206844F60001C4F20001884291
:1048100002D01CB010BD00BF0420029002A8FEF719
:10482000D7FA002818BFFDF73BF841F24C00C4F25C
:104830000200C16841F48021C160C16801F4802197
:1048400001910199016841F002010160006817A916
:1048500000F00200019001984FF440601790022090
:1048600018900020CDE9190007201B9040F200406D
:10487000C4F60000FDF7B0F8272000210022FDF764
:1048800011FA2720FDF7FCF91CB010BD2DE9F0430B
:1048900081B00446D0F88800202809D100294FF0C3
:1048A000010018BF002A07D101B0BDE8F08300BFA6
:1048B000022001B0BDE8F0830020C4F89000212060
:1048C0001D460E46C4F888001746FDF773F9A4F894
:1048D0005470A4F85670A1688146B1F5805F02D18A
:1048E0002069002866D037460020B4F85620216899
:1048F000002A67D06A1C28D0002D53D0804600BF04
:10490000C86900060AD4FDF755F9A0EB0900A842D2
:1049100000F2848021680868F2E700BF17B117F839
:10492000010B04E038F8020B00276FF35F20886268
:10493000B4F856000138A4F85600B4F85600002820
:10494000DED13FE0CA69120609D4CA69120606D44C
:10495000CA6912065CBFCA695FEA0262F2D51FB17A
:1049600017F8012B05E000BF30F8022B00276FF38A
:104970005F228A62B4F85620013AA4F85620B4F8AF
:104980005620002AE1D11DE030F8022B00276FF3FA
:104990005F228A62B4F85620013AA4F85620B4F88F
:1049A00056207AB1CA69120636D5002FECD017F816
:1049B000012BEEE700273046B4F856202168002A84
:1049C0007FF498AFC86940061ED42DB3681C14D17B
:1049D000C86940062AD4C869400627D4C869400679
:1049E00024D4C86940064FF00000F1D50DE000BFA7
:1049F00020680168C069400618D4FDF7DBF8A0EB19
:104A00000900A842F4D909E000202021C4F8881048
:104A100001B0BDE8F08300BFFDF7CCF803202021F2
:104A2000C4F8881001B0BDE8F08300BF0020202149
:104A3000C4F8881001B0BDE8F083000070470000A2
:104A4000FEE7000040F20821C2F2000100224FF010
:104A5000FF30C1E90320C1E9050240F25423887008
:104A600008804871A1F8030040F29420C2F20003CC
:104A7000C2F20000C1E908221A70C3E90D22DA630C
:104A8000C3E90122DA601A74C3E90522DA6183F806
:104A9000202083F83020C3E90922DA620A72CA8032
:104AA00081F828200A6381F83420CA6381F8402005
:104AB0008A6400F073B9000041F67C20C2F2000065
:104AC000012101707047000041F67C20C2F2000015
:104AD000032101707047000041F67C20C2F2000003
:104AE000052101707047000041F67C20C2F20000F1
:104AF0000721017070470000FFF7A4BF2DE9F041C6
:104B000086B0002641F24C000596CDE90366CDE95A
:104B10000166C4F20200016840F6000441F004019D
:104B200001600168C4F6000401F0040100910099DD
:104B30000168002241F02001016001684FF46045E6
:104B400001F0200100910099016841F0010101602C
:104B5000016801F0010100910099016841F0020132
:104B6000016000684FF4604100F00200009000987E
:104B70002046FDF719F84FF09040202100224FF019
:104B80002008FDF711F8019501AD012720462946BF
:104B9000CDE902760496FCF71FFF4FF090402946BE
:104BA000CDE90187CDE90366FCF716FF4FF470707D
:104BB000CDE90106204629460396FCF70DFF06B015
:104BC000BDE8F08180B588B042F2300040F200428A
:104BD0000021C2F20000C4F20002A92340F2E73C27
:104BE0000791CDE905110291C0E90023C0E9021C3B
:104BF00001618161FEF744FF002818BFFCF750FEF9
:104C00004FF48050049042F23000C2F2000004A938
:104C1000FEF7E8FF002818BFFCF742FE00200190D5
:104C2000039042F23000C2F2000001A9FEF7B6FE86
:104C3000002818BFFCF734FE08B080BD80B542F2F2
:104C40007C0044F60001C2F20000C4F2000100231F
:104C50004FF00C0C4FF4E13280E80E00C0E9033352
:104C6000C0E905C3C0E90733C0E90933FFF78AFD8E
:104C7000002818BFFCF714FE42F27C00C2F20000CC
:104C80000021FFF71DFA002818BFFCF709FE42F2C9
:104C90007C00C2F200000021FFF7CCF9002818BF09
:104CA000FCF7FEFD42F27C00C2F20000FFF7A2F921
:104CB000002808BF80BDBDE88040FCF7F1BD0000C2
:104CC00080B541F6802040F20801C2F20000C2F235
:104CD0000001002201F010F9002818BFFCF7E0FDE8
:104CE00041F6802040F22C01C2F20000C2F2000125
:104CF00001F02CFB002818BFFCF7D2FD41F6802004
:104D000040F25011C2F20000C2F2000100F0EAFECF
:104D1000002818BFFCF7C4FD41F68020C2F2000055
:104D200001F034FB002808BF80BDBDE88040FCF7DF
:104D3000B7BD0000FEE70000FEE70000704700007E
:104D4000B0B5044634F8043B14F803C0BCF1010FBD
:104D50001CBFFF20B0BD00F1220CC3EB43131CF8B5
:104D600003300546137002880846C2EB42126244C3
:104D7000013211461A46FBF7C1FB298848F6890023
:104D80004A1CC0F68800A2FB000300206054C3EB5D
:104D90000311A2EB41012980B0BD000080B52221A2
:104DA000FBF7F1FB80BD000070470000FCF708BF77
:104DB000B0B594B000244FF40070CDE90A44CDE9B9
:104DC0000844FDF773FF212006904FF480300790D0
:104DD000012003250C900221CDE90E500C20CDE9D5
:104DE000100106A80D91CDE91211FEF74DFB58B147
:104DF000EFF3108072B648F64400C0F6000002F0EF
:104E00001DFD00BFFEE700BF0F20CDE9010501A891
:104E10000121CDE903440594FEF746F950B1EFF3C3
:104E2000108072B648F64400C0F6000002F006FD9D
:104E3000FEE700BF14B0B0BD4EF68850CEF20000C1
:104E4000016841F4700101607047000042F23000D7
:104E5000C2F20000FEF7D8BF40F6FF330268C4F28A
:104E6000000343F2FF3C9842C4F2010C0ADD6045A6
:104E70002EDC40F60043C4F20003984234D042F6E0
:104E800000432DE0B0F1804F2ED040F20043C4F239
:104E90000003984228D040F60003C4F20003984271
:104EA00022D0604526DC40F2FF73C4F20003984232
:104EB00036DD40F60003C4F20003984246D040F6C7
:104EC0000043C4F20003984240D042F6004339E068
:104ED00045F20003C4F20103984205D043F20043B7
:104EE000C4F201039842DCD14B6822F070021A43ED
:104EF0006045D8DD44F2FF33C4F20103984219DD66
:104F000044F20043C4F2010398421FD045F200036B
:104F1000C4F20103984219D044F6000312E000BF26
:104F2000B0F1804F12D040F20043C4F20003984227
:104F30000CD00FE043F20043C4F20103984205D0C5
:104F400044F20003C4F20103984203D1CB6822F477
:104F500040721A4380B54B6922F0800E8A6843EA9A
:104F60000E03D1F800C00360C262A0F18042A2F536
:104F700096324FEAB222092AC0F828C0BDE8804024
:104F800008D8012303FA02F240F2E5231A421CBFBB
:104F900009690163012141610169C90708BF7047BF
:104FA000016921F00101016170470000816A0A076F
:104FB0000CD4CA0715D18A071ED44A0727D4CA06BB
:104FC00030D48A0639D44A0642D457E00268D0F871
:104FD00038C0536823F4004343EA0C035360CA0704
:104FE000E9D00268D0F82CC0536823F4003343EAB8
:104FF0000C0353608A07E0D50268D0F830C05368CC
:1050000023F4803343EA0C0353604A07D7D5026880
:10501000D0F834C0536823F4802343EA0C03536070
:10502000CA06CED50268D0F83CC0936823F48053FA
:1050300043EA0C0393608A06C5D50268D0F840C0E5
:10504000936823F4005343EA0C0393604A0615D592
:10505000D0F800C0436CDCF80420B3F5801F22F4C4
:10506000801242EA0302CCF8042007D1DCF80420C5
:10507000836C22F4C0021A43CCF80420090658BFFE
:1050800070470168C06C4A6822F4002210434860EF
:1050900070470000B0B582B004460020C4F890000C
:1050A000FCF788FD216805460A68120737D56FF0BE
:1050B0007E4C20464FF4001100222B46CDF800C054
:1050C00000F000FA50B300BF206850E8000F2168DC
:1050D00020F0800041E80002DAB1206850E8000FBB
:1050E000216820F0800041E8000292B1206850E879
:1050F000000F216820F0800041E800024AB12068DA
:1051000050E8000F216820F0800041E80002002AEA
:10511000DAD10320202188226BE000BF21680868D3
:1051200040075DD56FF07E4C20464FF48001002291
:105130002B46CDF800C000F0C5F9002850D000BFC4
:10514000206850E8000F216820F4907041E80002C8
:10515000BAB3206850E8000F216820F4907041E84D
:10516000000272B3206850E8000F216820F49070AC
:1051700041E800022AB3206850E8000F216820F4BB
:10518000907041E80002002ADAD11AE0206850E865
:10519000020F216820F0010041E80202DAB1206824
:1051A00050E8020F216820F0010041E8020292B1AC
:1051B000206850E8020F216820F0010041E8020257
:1051C0004AB1206850E8020F216820F0010041E850
:1051D0000202002ADAD1032020218C2209E000BF3C
:1051E0002020C4F88800C4F88C0000217022002020
:1051F000E166A150002184F8841002B0B0BD000027
:10520000806A0021A0F85E10A0F85610FEF7A2BF39
:1052100070B5054605F108041ECC0068194341EA43
:105220000403EE69046846F6F311CCF6FF712140E1
:10523000194331430160416848F2000C21F44051A8
:1052400011434160AA69C4F2000C60451CBF296A81
:105250000A4381684FF2FF43C1F2FF131940114323
:105260008160C16AD5F824E021F00F0141EA0E0106
:10527000C16244F6FF71C4F2000188424FF010038E
:1052800018DC44F20041C4F20001884228D044F600
:105290000001C4F20001884232D044F60041C4F259
:1052A0000001884242D141F28801C4F2020109683A
:1052B0008B0933E045F20001C4F20001884217D0A7
:1052C000604525D043F60001C4F2010188422DD18A
:1052D00041F28801C4F202010B6876A222E000BF0D
:1052E00041F28801C4F2020109688B0816E000BF90
:1052F00041F28801C4F2020109680B0A0EE000BF06
:1053000041F28801C4F2020109680B0906E000BFFE
:1053100041F28801C4F2020109688B0A48F62402AE
:10532000C0F6000203F0030152F82130604542F25A
:105330000040C0F2F40015D0B6F5004F22D1082B82
:105340004FF0010100F2AD80DFE803F0065C74ABC2
:1053500064ABABAB720000BFFEF728F8002840F04A
:105360005D809AE0082B4FF0010100F29A80DFE89F
:1053700003F0059825981B9898982300FEF716F8D7
:10538000B0B98AE0082B4FF0010100F28A80DFE813
:1053900003F0053D6F88498888886D00FEF706F8A0
:1053A000002842D179E000BFFEF72CF8002874D025
:1053B000D5F824E002E000BF4FF4004048F60A01AF
:1053C000C0F6000131F81E106A68B0FBF1F002EB84
:1053D000420188424FF0010163D31303984260D821
:1053E000010E000210EB520041F100010023FAF718
:1053F000EFFF4FF60052A0F54071C0F20F0291424C
:1054000049D34DE0FDF7E8FF40B946E0FDF7E4FF82
:1054100058B942E0FDF7F6FF00283ED0D5F824E069
:1054200008E000BFFDF7EEFFB8B3D5F824E01FE0B9
:105430004FF4004048F60A01C0F6000131F81E1092
:105440006A68B0FBF1F0510801EB4000B0FBF2F0EC
:105450004FF6EF72A0F11001914221D84FF6F07192
:105460000140C0F34200084415E000BF4FF4004083
:1054700048F60A01C0F6000131F81E104FF6EF722F
:10548000B0FBF1F0696800EB5100B0FBF1F0A0F166
:105490001001914204D82968C860002101E000BFD2
:1054A00001214FF00110A866002208466A67AA672A
:1054B00070BD00BF010000000400000002000000F9
:1054C000080000002DE9F041804600681546C269D9
:1054D0000E461140891BB1FA81F14909A94223D135
:1054E000069C2CB3611C29D1C1693140891BB1FADA
:1054F00081F14909A94217D1C1693140891BB1FA2B
:1055000081F14909A9420FD1C1693140891BB1FA22
:1055100081F14909A94207D1C1693140891BB1FA1A
:1055200081F14909A942DFD00020BDE8F08100BF28
:10553000FCF740FB0320BDE8F08100BF1F4607E0F9
:10554000C0693040801BB0FA80F04009A842EBD11E
:10555000FCF730FBC01BA04200F2AE80D8F8000080
:1055600001684907ECD5402EEAD0802EE8D0C16909
:10557000090700F1A580C1690905E1D54FF4006173
:105580000162D8F8000050E8000FD8F8001020F4AD
:10559000907041E800020AB3D8F8000050E8000F0C
:1055A000D8F8001020F4907041E80002B2B1D8F8A9
:1055B000000050E8000FD8F8001020F4907041E887
:1055C00000025AB1D8F8000050E8000FD8F80010D7
:1055D00020F4907041E80002002AD2D14FF6FE700C
:1055E000CEF6FF70D8F8001051E8021FD8F800205E
:1055F000014042E80213F3B1D8F8001051E8021F4D
:10560000D8F80020014042E80213A3B1D8F80010F6
:1056100051E8021FD8F80020014042E8021353B1BC
:10562000D8F8001051E8021FD8F80020014042E8E5
:105630000213002BD6D1D8F86C0001282CD1D8F851
:10564000000050E8000FD8F8001020F0100041E8EA
:1056500000020AB3D8F8000050E8000FD8F8001094
:1056600020F0100041E80002B2B1D8F8000050E884
:10567000000FD8F8001020F0100041E800025AB1E5
:10568000D8F8000050E8000FD8F8001020F0100003
:1056900041E80002002AD2D120200021C8F88C0065
:1056A000C8F86C10C8F87410C8F89000032088F887
:1056B0008410BDE8F08100BF0320BDE8F08100BF89
:1056C00008210162D8F8000050E8000FD8F8001057
:1056D00020F4907041E800020AB3D8F8000050E8C6
:1056E000000FD8F8001020F4907041E80002B2B129
:1056F000D8F8000050E8000FD8F8001020F490709F
:1057000041E800025AB1D8F8000050E8000FD8F87C
:10571000001020F4907041E80002002AD2D14FF628
:10572000FE70CEF6FF70D8F8001051E8021FD8F8CE
:105730000020014042E80213F3B1D8F8001051E80C
:10574000021FD8F80020014042E80213A3B1D8F8A4
:10575000001051E8021FD8F80020014042E802136F
:1057600053B1D8F8001051E8021FD8F800200140CA
:1057700042E80213002BD6D1D8F86C0001282CD1B6
:10578000D8F8000050E8000FD8F8001020F0100002
:1057900041E800020AB3D8F8000050E8000FD8F83A
:1057A000001020F0100041E80002B2B1D8F800006B
:1057B00050E8000FD8F8001020F0100041E8000277
:1057C0005AB1D8F8000050E8000FD8F8001020F0C7
:1057D000100041E80002002AD2D12020C8F88C0035
:1057E00000200821C8F86C00C8F87400C8F89010B0
:1057F00088F884000120BDE8F081000042F27C00BE
:10580000C2F20000FEF7A8BC10B540F25C64C2F220
:1058100000040A4602A0214600F000FB204610BD0D
:1058200043444320436F6E666967000010B5D0F8AB
:10583000BC323BB38E4601EB810100EB810151F894
:10584000184F64B1D0F8C4C20EEB8E020CEBC2024A
:10585000D2F820C0B4FBFCF202FB1C42A2B100242F
:10586000C3F81442D0F8C002D0F810C0BCF1000F49
:1058700006D0D3F8080203F504717246E04700240D
:10588000204610BD032010BD00240C60714600228C
:10589000002300F03DFD204610BD0000B0B5D0F85B
:1058A000BC527DB1044600F0E9FBD4F8C02205F5F6
:1058B0000371D368D5F80422C5F80C021046984746
:1058C0000020B0BD0320B0BDB0B58121044600F07A
:1058D0003BFB002520460121258700F035FB2046B3
:1058E0008221A4F8785100F02FFBD4F8BC02E564C3
:1058F00048B1D4F8C00240688047D4F8BC0200F038
:10590000D5FFC4F8BC520020B0BD000040F2EC004E
:105910001222C2F200000A807047000010B5D0F8D1
:10592000BC428CB1D0F8C01259B194F80002FF28E3
:1059300007D08B6894F8012221469847FF2084F80D
:105940000002002010BD00BF032010BD014640F240
:1059500000100A22C2F200000A807047014640F29D
:1059600064004322C2F200000A807047014640F200
:10597000A8004322C2F200000A807047014640F2AC
:105980000C104322C2F200000A807047F0B581B0CB
:1059900004464FF4077000F08BFFE8B3217C4025EC
:1059A000C4F8BC02002908BF4FF400750646204623
:1059B000812102222B4600F0BFFB01272046012156
:1059C00002222B46278700F0B7FB1020A4F84E00D8
:1059D0002046822103220823A4F8787100F0ACFB52
:1059E000D4F8C002A4F84C70006880470020C6F8C4
:1059F0001402C6F81802207CD6F80422002820469B
:105A00004FF0010114BF40234FF4007300F0A8FBD6
:105A1000002001B0F0BD00BF0020C4F8BC0202208D
:105A200001B0F0BD10B540F25C64C2F200040A4659
:105A300002A0214600F0F2F9204610BD4344432065
:105A4000496E7465726661636500000040F264101F
:105A50000422C2F200000A807047000010B540F234
:105A60005C64C2F200040A4602A0214600F0D6F9A6
:105A7000204610BD53544D6963726F656C65637445
:105A8000726F6E696373000010B540F25C64C2F21D
:105A900000040A4602A0214600F0C0F9204610BDCD
:105AA00053544D3332205669727475616C20436FC4
:105AB0006D506F7274000000D0F8BC12002904BF52
:105AC0000320704780B590F810C0D1F8042240231D
:105AD0000121BCF1000F08BF4FF4007300F040FB40
