:020000040800F2
:10000000102D0020910300084D740008196D0008A0
:1000100049740008811A0008F19D000800000000E2
:100020000000000000000000000000007D740008D7
:10003000111B0008000000005174000881740008C2
:10004000AB030008AB030008AB030008AB030008D8
:10005000AB030008AB030008AB030008AB030008C8
:10006000AB030008AB030008AB030008AB030008B8
:10007000AB030008AB030008AB030008AB030008A8
:10008000AB030008AB0300086D170008AB030008C2
:10009000999C0008AB030008AB030008AB03000801
:1000A000AB0300081D750008AB030008AB03000894
:1000B000AB03000829750008AB030008AB03000878
:1000C000AB030008AB030008AB0300086174000831
:1000D000AB030008AB030008AB030008D97E00089F
:1000E000AB030008AB030008AB030008AB03000838
:1000F000AB030008AB030008AB030008AB03000828
:10010000AB030008AB030008AB030008AB03000817
:10011000AB030008AB030008AB030008AB03000807
:10012000AB030008AB030008AB030008AB030008F7
:10013000AB030008AB030008AB030008AB030008E7
:10014000AB030008AB030008AB030008AB030008D7
:10015000AB030008AB030008AB030008AB030008C7
:10016000AB030008AB030008AB030008AB030008B7
:10017000AB030008AB030008AB030008AB030008A7
:10018000AB030008AB030008AB030008AB03000897
:10019000AB03000800000000AB030008AB0300083D
:1001A000AB030008AB030008AB030008AB03000877
:1001B000AB030008AB030008AB030008AB03000867
:1001C000AB030008AB030008AB030008AB03000857
:1001D000AB030008AB03000800F002F800F0C8F819
:1001E00014A696E8000CB244B344DA4501D100F0FD
:1001F000BFF8BAE80F000FA696E83000A5EB04059B
:1002000004EB0607AAEB0704A7F101074FEA15154F
:100210004FEA3414A4F10104AC4201D300F0A8F871
:1002200013F0010F18BFFB1A43F0010300F001F8AF
:10023000DBE71847B8B90000D8B900000A444FF00E
:10024000000C10F8013B13F0070408BF10F8014B35
:100250001D1108BF10F8015B641E05D010F8016B7A
:10026000641E01F8016BF9D113F0080F1EBF10F8DE
:10027000014BAD1C0C1B09D16D1E58BF01F801CB01
:10028000FAD505E014F8016B01F8016B6D1EF9D584
:100290009142D6D37047000070470000002300242D
:1002A00000250026103A28BF78C1FBD8520728BF86
:1002B00030C148BF0B6070476E2900F05982702929
:1002C00000F09D8366290BF0738365290BF0708322
:1002D00067290BF06D8361290BF06C8303681B0A9F
:1002E00028BF41F08001692900F00682642900F0EE
:1002F0000382752900F000826F2900F02B83782992
:1003000000F06983E92900F0C582E42900F0C28287
:10031000F52900F0BF82EF2900F02883F82900F0CA
:1003200068830368DB0928BF41F08001632901F07D
:100330009F80732901F0A480E32901F0AF80F329A5
:1003400001F0B480002070471FB50BF024FB01F0D2
:1003500007F90400002000210BF090FA401C6060B7
:10036000002000210BF074FAE0601FBD10B510BD35
:1003700001F0C8F81146FFF7E7FF09F0D9FD01F0D9
:10038000A5F903B4FFF7F2FF03BC01F0E7F90000A1
:100390000948804709480047FEE7FEE7FEE7FEE719
:1003A000FEE7FEE7FEE7FEE7FEE7FEE70448054955
:1003B000054A064B7047000009750008D90100087E
:1003C00010270020102D00201029002010290020C7
:1003D00053EA020C00F069802DE9F04B4FF0000663
:1003E000002B1FBFB3FA83F503FA05F424FA05F6D0
:1003F0005E4012BF1643B2FA82F502FA05F4C5F167
:1004000020051EBF22FA05FC44EA0C04203556EAFA
:10041000044C4FEA144418BF641C4FF000084FF01E
:100420000009904271EB030C39D3002919BFB1FACE
:1004300081F701FA07F6B0FA80F700FA07F6C7F17C
:1004400020071EBF20FA07FC46EA0C062037B6FB41
:10045000F4FCA7EB0507103F07F01F0BCBF12006BC
:100460002CFA06F60CFA0BFB44BFB3460026202FED
:10047000A4BF5E464FF0000B5BEA060C08BF4FF0CE
:10048000010B19EB0B0948EB0608ABFB027C06FBE2
:1004900002CC0BFB03CCC01B71EB0C01C1E70B467C
:1004A000024641464846BDE8F08B13B5084318BFE5
:1004B0004FF0FF300146AFF30080BDE81C407047AD
:1004C0007CB51D4616460C00009007D04142A14263
:1004D00002D32044401E01E04FF0FF30064B7B4426
:1004E0002A4669460190304600F05BF9002C02D0A4
:1004F000009A002111707CBDE7020000032A40F23F
:10050000308010F0030C00F0158011F8013BBCF1B5
:10051000020F624498BF11F801CB00F8013B38BFCD
:1005200011F8013BA2F1040298BF00F801CB38BFDB
:1005300000F8013B11F0030300F03083083AC0F0EB
:10054000088051F8043B083A51F804CBA0E80810A1
:10055000F5E7121D5CBF51F8043B40F8043BAFF3D4
:100560000080D20724BF11F8013B11F801CB48BF2E
:1005700011F8012B24BF00F8013B00F801CB48BF64
:1005800000F8012B70474FF000020429C0F01280E0
:1005900010F0030C00F01B80CCF1040CBCF1020F36
:1005A00018BF00F8012BA8BF20F8022BA1EB0C010B
:1005B00000F00DB85FEAC17C24BF00F8012B00F801
:1005C000012B48BF00F8012B70474FF0000200B527
:1005D000134694469646203922BFA0E80C50A0E866
:1005E0000C50B1F12001BFF4F7AF090728BFA0E814
:1005F0000C5048BF0CC05DF804EB890028BF40F8E0
:10060000042B08BF704748BF20F8022B11F0804F21
:1006100018BF00F8012B704770477047704710B53E
:1006200000F0EEFA006810BD10B5044600F0E8FADC
:10063000046010BD70B5044685690068C10601D527
:10064000302600E02026C00707D070BDD4E9012184
:1006500030469047206A401C20626D1EF6D570BD62
:1006600070B5044685690078C00707D170BDD4E92C
:10067000012120209047206A401C20626D1EF6D583
:1006800070BD09684A0501D540B27047C905FCD55F
:1006900000B2704709684A0501D5C0B27047C90564
:1006A000FCD580B2704770B50C460546012A05D0CE
:1006B0002878800600D5EA69002302E0012305E0DE
:1006C0005B1C934202D2E05C0028F9D1A869E618CD
:1006D000C01AA861286A184428622846FFF7AAFFB2
:1006E00004E0D5E9012114F8010B9047B442F8D396
:1006F0002846FFF7B5FF70BD2DE9F04106460024FE
:1007000010687529314616A510D0FFF7BAFF0028EA
:1007100002DA404213A507E031688A0701D512A525
:1007200002E0490704D511A5012401E0FFF7B2FF5B
:1007300000210A2206F1240709E0B0FBF2FCB0FB1D
:10074000F2F302FB1C00303078541846491C002894
:10075000F3D123462A463046BDE8F04100F099BA6D
:10076000000000002D0000002B0000002000000011
:1007700011680268006A530501D508700AE0D305C4
:1007800001D5088006E0130603D5C217C1E90002AF
:1007900000E008600120704701694A1C0261087886
:1007A000704700B58FB0CDE90131002105910549B1
:1007B0007944CDE903101146684600F02BF90FB0DB
:1007C00000BD0000E5FFFFFFD1E900239A4202D2FD
:1007D000531C0B60107070472DE9FF5F15468A4669
:1007E0000446DFF8AC80F8440027D8E900103E4604
:1007F000CDE9001010E03AF816106A4602A800F0A1
:1008000059FE411C07D02178890603D5E2693918C1
:1008100091420DD80744761C2078800602D5E06905
:10082000B84205DDAE42E6DB3AF816000028E2D118
:10083000A069C01BA0612046FFF7FCFED8E90010AC
:10084000CDE90010002017E03AF818106A4602A817
:1008500000F030FEB0F1FF3F81460BD000250DF1D6
:10086000080B05E0D4E901211BF8050090476D1C39
:100870004D45F7D308F10100B0428046E4DB206A21
:10088000384420622046FFF7EBFEBDE8FF9F0000E2
:10089000CEB100002DE9F0418046D21D22F00702C2
:1008A0000025D2E90002F52915A614D0011E72F127
:1008B000000106DA0023D0EB030063EB020211A66D
:1008C00008E0D8F800108B0701D50FA602E0490711
:1008D00001D50EA601251146002408F1240704E0E5
:1008E00000F092F930323A55641C50EA0102F7D117
:1008F0002B46324621464046BDE8F04100F0C9B9DA
:10090000000000002D0000002B000000200000006F
:1009100030B4002100F1240408E002F00705D208F9
:10092000303542EA4372DB086554491C52EA03053C
:10093000F3D10468002310A2250708D504F0200491
:100940000C4304D0C46901230CA2641EC46130BCF2
:1009500000F09FB910B5044621461068FFF79AFED3
:1009600002462046BDE810400023D1E7D21D22F008
:100970000701D1E90023CBE70000000030000000B0
:10098000F0B40D460188090502D5214C7C4402E0F3
:100990001F4C7C440E34002100F1240608E002F0D4
:1009A0000F071209E75D42EA03721B097754491CDD
:1009B00052EA0307F3D102780023120704D5702D01
:1009C00006D009B1022311342246F0BC00F061B90F
:1009D00001231034F8E770B504460D46214610682F
:1009E000FFF758FE024629462046BDE87040002326
:1009F000C6E7D21D22F00703D3E90023C0E703684E
:100A0000126843F0200303600823C3610023B7E7A3
:100A100030B000002DE9F05F894604464FF0000A2F
:100A2000DFF874B1FB44C0F820A02046E168884795
:100A3000002874D0252806D0D4E901219047206AE7
:100A4000401C2062F1E700265F462046E1688847A7
:100A50002028054607DB312D05D2781910F8200C27
:100A600008B10643F1E7B00701D526F00406C4F843
:100A70001CA00027C4F818A02A2D09D028460AF087
:100A8000DFFE38B304EB8708303DC8F8185019E092
:100A900059F8041B204604EB87029161E1688847FE
:100AA000012F054618D1E069002820DA26F020063B
:100AB0001DE0D8F8180000EB800005EB400030384E
:100AC000C8F818002046E168884705460AF0B8FED5
:100AD0000028EED1012F0AD02E2D08D12046E16842
:100AE00088477F1C0546022F46F02006C4DBA0691C
:100AF000002803DA404246F00106A061F00701D069
:100B000026F010066C2D0BD0682D09D04C2D39D055
:100B10006A2D35D0742D35D07A2D33D016E038E0DB
:100B2000E1682F4620468847B842054609D16C2F18
:100B300026D04FF48060E16806432046884705468A
:100B400004E06C2F1AD04FF4807006430DB3A5F16A
:100B50004100192802D8203546F400664A46294645
:100B6000204626604E46FFF7A7FB80B101280BD038
:100B7000F61D26F0070000F1080956E74020E4E7DB
:100B80008020D8E70020D6E706F104094DE7284683
:100B900052E7206ABDE8F09FC0AF000010B5203AD0
:100BA000C0F00B80B1E81850A0E81850B1E8185018
:100BB000A0E81850203ABFF4F5AF5FEA027C24BFEA
:100BC000B1E81850A0E8185044BF18C918C0BDE8D3
:100BD00010405FEA827C24BF51F8043B40F8043B9C
:100BE00008BF7047D20728BF31F8023B48BF11F851
:100BF000012B28BF20F8023B48BF00F8012B7047AB
:100C0000004870478801002030B5B0F10A0271F148
:100C100000034FEA900E4EEA817EB0EB0E0061EBCE
:100C200091014FEA101E4EEA017E10EB0E0041EBDF
:100C300011114FEA102E4EEA016E10EB0E0041EB3F
:100C400011214FEA104E4EEA014E10EB0E0041EB1F
:100C50001141401841F100014FEAD00040EA4170D3
:100C60004FEAD1014FEA810444EA907410EB800509
:100C700044EB01046D1944EB0404521BA3414FF0F3
:100C8000000348BF0A3200D530BD401C41F10001CD
:100C900030BD2DE9F0470D4699469246044600F1D5
:100CA00024080168880604D5E06921F0100121605C
:100CB00000E00120A84201DD471B00E00027A169F8
:100CC0007A1902EB0900081AA0612078C00602D444
:100CD0002046FFF7AFFC002608E0D4E901211AF80E
:100CE00006009047206A401C761C20624E45F4DBCB
:100CF0002078C0060AD52046FFF79CFC06E0D4E920
:100D0000012130209047206A401C2062381EA7F144
:100D10000107F4DC07E0D4E9012118F80500904749
:100D2000206A401C2062281EA5F10105F3DC204644
:100D3000FFF796FC2078000602D50220BDE8F08778
:100D40000120FBE72DE9FF4F0C461E464FF0FF3711
:100D50008BB0D2E90001DDF860800A908A46C1F3C9
:100D60000A5505B93D46002108464FF00000BAF18A
:100D7000000F00F4400005DA00EB80004FF4400162
:100D800001EA50004FEA9059B9F1010F00DDB94670
:100D90000A9850EA4A000ED044F61050A5F2FF35EA
:100DA00045432F14B8F1000F1ED07542291E1EDDD9
:100DB000C9F100021CE0B8F1010F4FF0000001D0B2
:100DC000302103E0F24305E02154401CB042FBDB3C
:100DD00030460022002121540B99C1F80880C1E956
:100DE00000200FB0BDE8F08FBD1B6D1CDEE74A464A
:100DF00000DA694206A800F0F7FB06AB93E80700AB
:100E000003AB83E8070050460A9909F0F6FE8DE827
:100E10000700A0F500501F3800900398002D0ADD50
:100E200042F21F014A460844002303A90390684682
:100E30000AF060F909E0A0F500504A461F38002387
:100E400003A9039068460AF06AF98DE807000004D8
:100E5000000C03D04FF0FF30410800E01046B8F11D
:100E6000000F03D00022009215461EE0751E05D427
:100E7000FFF7CAFE303262556D1EF9D5B346012226
:100E8000084302D000227F1C04E02078302801D1E2
:100E900000227F1E002A099784D01DE0112D07DA59
:100EA000FFF7B2FE303262556D1C50EA0102F5D1F7
:100EB000084302D00098C8B10EE00021681E05E08A
:100EC000235C625C63542254401E491C8142F7DB60
:100ED000AB46A81B401E0990002004F80B000B989D
:100EE000099AC0F80880C0E9002B7AE711264FF074
:100EF000000857E72DE9F04F88460446D21D22F03E
:100F0000070191B0D1E90001CDE90A010AF03EFAEA
:100F100002460B98C00F01D02D2007E02068810702
:100F200001D52B2002E0202101EAC000032A09900C
:100F300001D0072A05DB03464146204600F014FB9A
:100F40000BE12078800601D5E06900E00620B8F1C9
:100F5000650F814606D0B8F1660F18D0B8F1670F5B
:100F600070D131E00020B9F1110F009001DB1123A5
:100F700001E009F101030AAA01A90CA8FFF7E2FEAA
:100F8000DDE90C70002609F10105834647E00120E8
:100F90004B4600904FF000470AAA01A90CA8FFF7A2
:100FA000D1FEDDE90DB00C995D46002610B909F1BE
:100FB00001000D18B9EB050003D4C0F1FF3609F1AB
:100FC0000105A5EB09002BE0B9F1010F01DA4FF0A3
:100FD00001090020B9F1110F0090484601DD1123ED
:100FE00000E003460AAA01A90CA8FFF7ABFEDDE961
:100FF0000C704D4600268346207800070AD4AB4586
:1010000000DA5D4601A8012D04DD411911F8011C2B
:10101000302907D04F4502DA17F1040F04DA012016
:1010200082460FE06D1EEEE7002F02DCED1B3E4412
:1010300003E0781CA84200DD7D1CB81B00F1010A0A
:101040004FF000472078000703D4AA4501DB4FF09A
:10105000FF3A0021B7F1004F0DF143088DF843101E
:1010600024D002202B23002F01DA7F422D230A21D6
:10107000021EA0F1010000DC5FB197FBF1FC97FBC1
:10108000F1F201FB1C7C17460CF1300C08F801CD85
:10109000EEE7A8F1010003702188090501D545217B
:1010A00000E06521A0F1010800F8011C09980FA9D2
:1010B000A1EB0807FF1D00B10120411901EBEA7007
:1010C000A1693844081A401EA0612078C00602D4E5
:1010D0002046FFF7AFFA099828B1D4E901219047DB
:1010E000206A401C20622078C00622D52046FFF7E7
:1010F000A1FA1EE0002E04DBB34502DD01A8805DED
:1011000000E03020D4E901219047206A401C206291
:10111000761CAAF101005FEA000A0AD100F020FA69
:10112000C0680168405CD4E901219047206A401CF6
:101130002062281EA5F10105DCDC07E0D4E90121CD
:1011400018F8010B9047206A401C2062381EA7F156
:101150000107F3DC2046FFF783FA032011B041E6D4
:101160002DE9F04F04460D46D21D22F0070089B04C
:10117000D0E90097484639460AF008F90246F80FC8
:1011800001D02D2307E02068810701D52B2302E041
:10119000202101EAC0038DF820300BB1012000E0CE
:1011A0000020032A824601D0072A04DB2946204674
:1011B00000F0DAF93FE12078800601D40D2500E047
:1011C000E569C7F30A560D2D49DA00214FEA175B8E
:1011D00008464FF00000002F00F4400007DA00EB53
:1011E00080004FF4400100EBD07001EA60008115EF
:1011F000012901DD4FF0FF3100224FEA850CBCF1DF
:10120000180F06D31346ACF118004FF08052C240BD
:1012100003E04FF4801323FA0CF30CF10C0CBCF137
:10122000200F04D3ACF1200C09FA0CF001E007FA0E
:101230000CF000294FF0004801DD18B90FE00ED185
:1012400040450CD319EB02095F4121B9404502D159
:101250009F4329EA0209BBEB175F00D0761C208868
:10126000000502D57B48784402E07A487844193872
:1012700008AA302302F80A30037C0AF10101002E8B
:101280000AF1020A53546A4602DC4FF0300101E0D1
:101290004FF031014FF001088DF8001002D0A6F296
:1012A000FF3603E059EA470100D06B4E002D02DC07
:1012B0002178090704D54FF002082E218DF801107E
:1012C000C44600210BE0C7F303433F01C35C491C44
:1012D0006D1E02F80830052908F1010801DA002D19
:1012E000F1DC00210CE000EB1973491C1B786D1E2A
:1012F000082902F808304FEA091908F1010801DA53
:10130000002DF0DC21688B0602D516E0A8F101085B
:10131000E04505DD02EB080313F8013C302BF5D066
:10132000B8F1000F09DD02EB080313F8013C2E2B86
:1013300003D1090701D4A8F10108002D05DD3E21E4
:1013400002F808106D1E08F10108407C002E02F81A
:10135000080008F1010804DA2D20764202F808009E
:1013600002E02B2002F808000A214FF47A7086422E
:1013700008F101080BDB96FBF0F3303302F808307C
:1013800096FBF0F308F1010800FB136601E0642E00
:101390000CDB642096FBF0F3303302F8083096FB48
:1013A000F0F308F1010800FB136601E00A2E06DBEA
:1013B00096FBF1F0303002F8080008F1010896FBC6
:1013C000F1F001FB1060303002F80800A16908F16B
:1013D000010808EB050202EB0A00081AA061207858
:1013E000C00602D42046FFF725F9216A08AE01EBBA
:1013F0000A00206204E0D4E9012116F8010B9047AD
:10140000BAF1010AF7D22078C00602D52046FFF7CC
:1014100011F96E4609E016F8010B3E280FD0D4E909
:1014200001219047206A401C2062B8F10108F2D2E5
:101430002046FFF715F909B00320BDE8F08F206AB8
:101440002844206203E0D4E90121302090476D1E3A
:10145000EBD3F8E7C5A7000002FCFFFF10B5436916
:1014600013B1AFF3008001E0FFF71DF9012010BDBB
:10147000127800F124010A7000224A700122EDE77F
:1014800011684FF0FF32E9E710B5436913B1AFF3CC
:10149000008001E0FFF7A0F9012010BD128800F1E3
:1014A000240182840022C2840122EDE711684FF0FA
:1014B000FF32E9E72DE9F04116460C46054600F0FB
:1014C00047F8036893F80101012807D0FF2C12D8D0
:1014D000185D80B101202C70BDE8F081D3F80701C0
:1014E0003246214603F20713C7182846BC46BDE81A
:1014F000F041002360474FF0FF30EDE700487047B0
:10150000880100207546FFF7F9FFAE4605006946E1
:10151000534620F00700854618B020B5FEF746FF79
:10152000BDE820404FF000064FF000074FF00008E4
:101530004FF0000BAC46ACE8C009ACE8C009ACE821
:10154000C009ACE8C00921F007018D4670470000D2
:1015500010B500F005F8001D10BD00BF21A300006C
:1015600000487047A80100202DE9F0411F460446BD
:1015700003260168072A01F4006004DB08B116A500
:1015800005E016A503E008B115A500E015A521F0BA
:1015900010002060A069C01EA0610FB1401EA061B4
:1015A0002046FFF747F84FB1D4E90121384690476C
:1015B000206A401C2062C01C206206E0206AFAE714
:1015C000D4E9012115F8010B9047761EF8D2204688
:1015D000FFF746F8BDE8F0814E414E006E616E00A7
:1015E000494E4600696E66002DE9F0478146164671
:1015F0008AB0354878440DC88DE80D0032487844EB
:10160000801C03AC0DC884E80D0041F69B300844F3
:10161000372190FBF1F290FBF1F5A5F1800501FB7C
:1016200012041B3C02D56442012000E00020DFF8D8
:1016300098A080460027FA44AAF1BE0A0EE0E0070F
:101640000AD03246684607EB470101230AEB8101C5
:1016500009F065FD8DE8070064107F1C002CEED1B9
:10166000194F7F44AE3F19E0E80715D007EB04108F
:101670000DF1180A90E80E008AE80E00C068F042EA
:1016800001D1981908903246012306A903A809F050
:1016900046FD03AB83E807006D10641C002DE3D109
:1016A0004FF0010332466946B8F1000F03A802D09B
:1016B00009F020FD01E009F032FDC9E90001C9F897
:1016C00008200AB0BDE8F087C8A4000010B50446A1
:1016D000AFF300802046BDE81040FEF752BE000088
:1016E00030B44FF0013C50F8042B51F8043BCCFAD5
:1016F00052F4D51A20D1FCB950F8042B51F8043B10
:10170000CCFA52F4D51A17D1B4B950F8042B51F8C9
:10171000043BCCFA52F4D51A0ED16CB950F8042B14
:1017200051F8043BCCFA52F4D51A05D1002CDAD08A
:1017300030BC4FF00000704729BAB1FA81F111F0C6
:101740001801D1F120008440F2D1CA40CB4012F000
:10175000FF0213F0FF0330BCD01A70470149182074
:10176000ABBEFEE7260002007047000041F6CC50F9
:10177000C2F2000001F0A2B870B52DED028B84B06A
:1017800041F6CC5440F2E8161025C2F20004C2F231
:10179000000600BF012001F015FC2046092100F0E1
:1017A00043FD3080204640F20F1100F03DFD708077
:1017B000204640F2152100F037FD3188F288338948
:1017C0000A447188B08019447389013D1844F2803D
:1017D00031817081DED112B200EE102A9FED1A1A0B
:1017E000B8EEC00A20EE010A09B286ED040A00EE46
:1017F000101AB8EEC00A20EE010A00B286ED050A02
:1018000000EE100AB8EEC00A20EE010A86ED060AC4
:1018100030690AF04FF8044670690D460AF04AF83C
:1018200041EC180BB0690AF045F841EC100B07A029
:1018300022462B468DED008B8DED020B08F0D8FB78
:1018400004B0BDEC028B70BD0000803D49615F6F4C
:101850006666736574203D2025662C2049625F6FA3
:101860006666736574203D2025662C2049635F6F92
:101870006666736574203D2025660D0A0000000031
:1018800070B582B004460020019021688A68D207B2
:1018900011D14FF6C076C7F6FF76886806F17F0251
:1018A00010420BD0E06D40F01000E065206E40F07B
:1018B00001002066012002B070BD00BF88684FF4AF
:1018C000C162304040F00100886040F20010C5F273
:1018D0000000814208BF4FF40272B1F1A04F08BF6F
:1018E0004FF402721058000222D401F065FC216806
:1018F0000A68D20718D1054603E000BF0868C00790
:1019000012D18868C00704D18868304040F00100D7
:10191000886001F051FC401B21680328EED3086861
:10192000C007EBD1BEE700BF002002B070BD00BF12
:1019300040F22800C2F20000006842F663518009BC
:10194000C0F23E51A0FB0101880900EB40000C21D0
:1019500001EB8000019001980028C6D00198013861
:10196000019001980028C0D0019801380190019899
:101970000028BAD001980138019001980028B4D00D
:1019800001980138019001980028E7D1ADE70000E7
:10199000032884BFE12070475FEA016C04BFE320A5
:1019A000704710B540F2C02EC2F2000E0EEB0014CC
:1019B00000014EF80010201DDDF808C080E80C1072
:1019C000002010BD10B582B049F6F16246F6915381
:1019D0000024C0F60002C0F60003002040F201110E
:1019E0000094FFF7D5FF28B14BF6DC30C0F60000BD
:1019F00008F0FEFA49F6017246F6A153C0F600025D
:101A0000C0F60003012040F201110094FFF7C0FF6F
:101A100028B14BF6DC30C0F6000008F0E9FA49F6D0
:101A2000117246F6B1530024C0F60002C0F600035E
:101A3000022040F201110094FFF7AAFF28B14BF6F3
:101A4000DC30C0F6000008F0D3FA49F6217246F601
:101A5000C153C0F60002C0F60003032040F201119A
:101A60000094FFF795FF48B14BF6DC30C0F600005C
:101A700002B0BDE8104008F0BBBA00BF02B010BD14
:101A8000FEE70000002070470020704710B541F6C7
:101A9000FC24C2F2000441F2E821C2F20001204617
:101AA000002206F057FC40F6E821C2F20001204671
:101AB00006F046FC002010BD10B541F6FC24C2F231
:101AC00000040146204606F03BFC204606F062FB7F
:101AD000002010BD0020704741F6FC22C2F2000237
:101AE000D2F8BC22D2F81432002B1CBF0120704760
:101AF00010B541F6FC24C2F200040A460146204615
:101B000006F028FC2046BDE8104006F09BBC000013
:101B100070470000EFF3108072B64BF62830C0F625
:101B2000000008F065FA00BFFEE70000032884BF4C
:101B30000120704780B507A131F8101040F6000071
:101B4000C4F6000001F02CFBC0B2002818BF012031
:101B500080BD00BF0002000180004000704700000F
:101B60002DE9F04181B00022009290F85820012A1E
:101B700006D14FF0020C604601B0BDE8F08100BF15
:101B80004269012380F8583012B10B6A012B21D130
:101B90004A68092A1AD10A688B6A4FF4785707EA0B
:101BA000524223B1CF6A03F07C033B431A43D0F87F
:101BB000008044F20006D8F84C70C0F2104637405E
:101BC0001743C8F84C7042662EE000BFD0F8008082
:101BD0002AE000BF866E1EB1456E00220AE000BFFB
:101BE0008F6A5A1E27B1CE6A07F07C0737433A4303
:101BF00000251E46D1E90037D0F8008007F01F0706
:101C0000C3F38463BB401A43771E42EA0502C0E96E
:101C1000192709D1D8F84C7044F20006C0F21046DA
:101C200037403A43C8F84C20D8F80820120714D49B
:101C3000D8F80C2091F8257091F8266022F4401213
:101C4000002F4FEA465701D03A4304E091F8246050
:101C500042EA06523A43C8F80C20D8F80820D8F8CF
:101C6000087002F0040207F00807D21916D18A6A38
:101C7000C2B1CA6AB2B191F82520012A1CD1C26D45
:101C80004FF0010C42F02002C26591F83070D8F894
:101C90001020012F1ED022F0020223E04FF0000C92
:101CA000E9E000BF91F82570D8F80C20012F05D18C
:101CB00042F0007204E000BFD8F80C2022F000725D
:101CC0004FF0000CC8F80C2091F83070D8F81020B4
:101CD000012FE0D1D1E90D7622F4FF723A4332436D
:101CE00042F00202C8F810200F6808F1140204261E
:101CF000C7F340648D6806EAD75E52F82440C7F304
:101D000004570726BE40B5F1004F24EA060405D16A
:101D100042F80E40126842F0004206E0BD402C43FB
:101D200042F80E40126822F00042C8F81420D1E9AF
:101D30000427D8F80C60042A70D1D8F86020D8F8AD
:101D400060200C68C2F3846694FAA4F52246B5FAC2
:101D500085F5C4F3846E6FF3DF422C46002A08BF7A
:101D60007446A6424FF6FF74C0F207040ED1D8F8AD
:101D7000602022F00042C8F860200D6805EA0402E5
:101D8000C5F3846E95FAA5F5B5FA85F5D8F86460C3
:101D9000D8F86460002AC6F384662F4608BF7746E9
:101DA000BE420ED1D8F8642022F00042C8F8642068
:101DB0000D6805EA0402C5F3846E95FAA5F5B5FA37
:101DC00085F5D8F86860D8F86860002AC6F384669C
:101DD0002F4608BF7746BE420ED1D8F8682022F0C1
:101DE0000042C8F868200D6805EA040295FAA5F4D7
:101DF000C5F3846EB4FA84F5D8F86C40D8F86C401A
:101E0000002AC4F3846408BF7546AC4233D1D8F8C5
:101E10006C2022F00042C8F86C202CE0062505EA70
:101E2000960607FA06FE0E6808F1600555F822408E
:101E30004FF20007C0F2FF3706F0F8463C404EEA8A
:101E40000607274347F0004745F822700A698F6963
:101E500055F8226026F08076374345F822700A69EB
:101E60000F7F55F82260012F26F0007608BF06F19B
:101E7000007645F82260D8F808200F68D2074ED1C6
:101E8000CE684FF6FF73D8F8B0503A4606F0180403
:101E9000C0F207036FF3DF42E34095433B402B431F
:101EA0000025C4F27F05AE42C8F8B03037D18AB100
:101EB00097FAA7F2B2FA82F2013202F01E03092B5E
:101EC00002F01F020FD80123934002EB420243EAC3
:101ED000025214E0012202EB976202F01E030A2B69
:101EE00002F01F02EFD301230027934002EB4202CE
:101EF000CFF6206707EB02521A4342F00072C2F39A
:101F0000406708EB87078B687E69C2F30452072598
:101F10009540AE4303FA02F232437A610F68002122
:101F2000C8F208010F4200F07D8040F20014C5F2B3
:101F3000000408F13041A8EB0402B1FA81F1B2FAD1
:101F400082F249095209114304F5C1654FF4C16198
:101F50001CBF4FF4027104F502750E590022CCF239
:101F60002132974206F0E07E04D01022C9F2C0026E
:101F700097423DD1320255D440F20062C5F20002D0
:101F8000904502D0B8F1A04F4CD1625822F0E072D7
:101F900042EA0E0242F40002625040F22801C2F20C
:101FA0000001096842F663528909C0F23E52A1FB62
:101FB0000212910901EB4101182202EB810100910B
:101FC000009979B3009901390091009951B30099B2
:101FD00001390091009929B30099013900910099C4
:101FE00001B300990139009100990029EAD119E063
:101FF0000021CCF252718F420CD1BEF1807F09D208
:102000004FF080712A6822F0E072114341EA0E011C
:10201000296007E00021CCF684318F4208BF16F416
:10202000800107D0002180F85810604601B0BDE85B
:10203000F08100BFB8F1A04F06D0A045F2D0A04576
:1020400002D004F5C06101E004F5007101F108055A
:102050004FF48001D6E700000068B0F1A04F18BF30
:10206000704770B540F60004C4F6000420464FF4F3
:102070000051012201F09AF841F6CC55C2F2000558
:102080002846092100F0D0F800EE100A40F2E816C8
:10209000B8EE400AC2F20006284640F20F1186ED63
:1020A000070A00F0C1F800EE100AB8EE400A284610
:1020B00040F2152186ED080A00F0B6F800EE100A8D
:1020C000B8EE400A86ED090A96ED070A96ED041A65
:1020D0009FED502A30EE410A9FED4F1A20EE020A82
:1020E0009FED4E3A20EE010A80EE030A40F2942062
:1020F000C2F2000080ED000A96ED080A96ED054A4E
:1021000040F2982030EE440A20EE020A20EE010A46
:1021100080EE030AC2F2000080ED000A96ED090A83
:1021200096ED064A40F29C2030EE440A20EE020A68
:1021300020EE010A80EE030AC2F2000080ED000AE0
:1021400007F0A6FE07F07AFFF06800285AD004F0E6
:1021500041FE40F2841086ED0A0AC2F2000090EDC2
:10216000000A96ED0B1A9FED2F2A30EE010A9FED23
:102170002C1A40F26420B4EE410AF1EE10FAC8BF06
:10218000B0EE420A86ED0B0ABDEEC00A40F288218D
:10219000B8EEC00AC2F20000C2F200014FF07C5259
:1021A00080ED000A0A6090ED000A08F0EBFB07F0F2
:1021B0006BFF07F047FE07F079FF40F2A820C2F25C
:1021C000000090ED000A42F63441BDEEC00A10EE68
:1021D000100AC4F20101086040F2AC20C2F2000013
:1021E00090ED000ABDEEC00A10EE100A486040F201
:1021F000B020C2F2000090ED000ABDEEC00A10EE61
:10220000100A886020464FF400510022BDE870405B
:1022100000F0CCBF3333534000008039CCCCCC3DF0
:102220000000B44300000000006840F20F12914229
:1022300010D040F21B32914208D040F21522914258
:1022400014BF802188214058704700BF8C2140581E
:10225000704700BF8421405870470000704700005D
:1022600070B540F20044C5F200040168A4F5407264
:102270004FF44273914208BF6FF0F703B1F1A04FE2
:1022800008BF6FF0F7031D598A68120744BF022088
:1022900070BDCA68C96C11F4C07F07D1002A05D48B
:1022A000C16D41F02001C165012070BD90F858104A
:1022B000012904BF022070BD012180F85810064694
:1022C000FFF7DEFA20B1002186F8581070BD00BF7C
:1022D000F16D3046C90546BF016E21F008010021AD
:1022E0000166C16D43F20103994301F58051C16557
:1022F000016840F2001EC5F2000E40F2005C05F0DD
:102300001F027145C5F2000C30D0614504D126464C
:102310008E4218BF002A03D1C66D26F48016C6650A
:1023200060260E60002680F85860CE68B60203D59D
:102330004E6846F480664E6086694D686FF04003D3
:10234000082E08BF6FF0200303EA05034B604B68BB
:102350004FF0200608BF4026334371454B600DD037
:10236000614517D18C420DD114E000BF4FF0A0465B
:102370008E4218BF002ACFD0D2E700BF4FF0A04452
:102380008C4207D0072A15D8012303FA02F212F073
:10239000C10F0FD0C868800144BF002070BD88689D
:1023A0004FF6C072C7F6FF721040083088600020F8
:1023B00070BD00BFC16D41F48011C165002070BDCA
:1023C000704700007047000090F85820012A04BFB1
:1023D0000220704770B582B000220192009202681C
:1023E00040F2080EC5F2000EB2F1A04F0EF1F80552
:1023F00008D040F20043C5F200039A4234D10EF5F2
:102400009F6300E02B469B68946823435B072BD4B3
:102410004FF4E063D1F800C0AA4208BF4FF4407304
:10242000B2F1A04F08BF4FF440735EF80340BCF117
:10243000000F24F4604425D04D6890F8386042F4D1
:10244000807245EA46352C4340F20015C5F200057E
:10245000AA424EF8034027D1DEF80020DEF8004102
:102460002243D20748D129E0C16D41F02001C16566
:102470000121002280F8582002B0BDE870400846D3
:10248000704700BF42F4807140F20012C5F20002B2
:1024900091424EF803401BD1DEF80010DEF8002117
:1024A0001143C90728D11DE0DEF80044DEF80055CD
:1024B000DEF800262C432243D2071DD15EF803200C
:1024C00040F61F748968A243114341EA0C010EE0F3
:1024D000DEF80024DEF80065DEF800163243114312
:1024E000C90709D15EF8031040F61F7291434EF8F8
:1024F00003100021BDE700BF0021BAE7F0B581B0AD
:102500000022009290F85820012A03D102210846A7
:1025100001B0F0BD0123076880F85830BB685B0745
:1025200034D4D1E900351F26C5F3012407EB840418
:10253000226B05F01F05AE40C3F38463B243AB408A
:102540001A432263BA68BB6802F0040203F008036E
:10255000D21840F0BC800A6807F114030426C2F3C5
:102560004064D1F808E006EAD25C53F82440C2F394
:1025700004550722AA40BEF1004F24EA02040BD101
:1025800043F80C401A6842F000430DE0C16D41F081
:102590002001C165012167E10EFA05F2224343F8EB
:1025A0000C201A6822F000437B61D1E90435FC68F5
:1025B000042B5FD13A6E3A6E0B68C2F3846293FAD1
:1025C000A3F6C3F3846C6FF3DF43B6FA86F5002BF2
:1025D0002C464FF6FF7E08BF6446A242C0F2070EAB
:1025E0000CD13A6E22F000423A660A6802EA0E0303
:1025F000C2F3846C92FAA2F2B2FA82F57A6E7A6E23
:10260000002BC2F384622C4608BF6446A2420CD160
:102610007A6E22F000427A660A6802EA0E03C2F37A
:10262000846C92FAA2F2B2FA82F5BA6EBA6E002BFC
:10263000C2F384622C4608BF6446A2420CD1BA6E33
:1026400022F00042BA660A6802EA0E03C2F3846C02
:1026500092FAA2F2B2FA82F5FA6EFA6E002BC2F387
:10266000846208BF6546AA4231D1FA6E22F0004268
:10267000FA662CE0062202EA940205FA02FC0E68D1
:1026800007F1600555F823404FF20002C0F2FF3217
:1026900006F0F846224046EA0C06324342F0004279
:1026A00045F823200A698B6955F8226026F0807668
:1026B000334345F822300A690B7F55F82260012B1D
:1026C00026F0007608BF06F1007645F82260BA6869
:1026D0000D68D20750D1CA68D7F8B0602B466FF3A7
:1026E000DF4326EA030C4FF6FF7602F01804C0F22F
:1026F0000706E64000242E40C4F27F0446EA0C069A
:10270000A242C7F8B06037D193B195FAA5F2B2FAF8
:1027100082F2013202F01E03092B02F01F0310D8CF
:1027200001229A4003EB430342EA035315E000BF42
:10273000012202EB956202F01E030A2B02F01F0336
:10274000EED3012200269A4003EB4303CFF6206626
:1027500006EB03531A4342F00073C3F3406607EBE2
:1027600086068A687569C3F3045307249C40A54311
:102770009A402A4372610D680021C8F208010D4297
:1027800071D040F2001CC5F2000C4FF4C1616745E6
:1027900008BF4FF40271B7F1A04F08BF4FF40271A8
:1027A00051F80C400022CCF22132954204F0E07E38
:1027B00004D01022C9F2C002954241D1220252D463
:1027C00040F20062C5F20002974202D0B7F1A04F7A
:1027D00049D15CF8012022F0E07242EA0E0242F494
:1027E00000024CF8012040F22801C2F20001096801
:1027F00042F663528909C0F23E52A1FB02129109CE
:1028000001EB41010C2202EB81010091009951B3CF
:10281000009901390091009929B30099013900917B
:10282000009901B30099013900910099D9B100993B
:1028300001390091009900294FF00001E8D113E01F
:102840000022CCF25272954214D10022B2EB1E6FDC
:1028500010D15CF8012022F0E07242EA0E0242F050
:1028600080724CF801200021002280F85820084690
:1028700001B0F0BD0021CCF684318D424FF0000153
:1028800008BF14F48002EFD1B7F1A04F06D067451E
:10289000EAD0674502D00CF5C06101E00CF500718B
:1028A0008A6822F0E07242EA0E0242F480028A60F4
:1028B000D9E7000070470000704700002DE9F04F95
:1028C00081B040F200480168C5F200080446A8F54E
:1028D00040794FF442700E684D68494508BF6FF06B
:1028E000F700B1F1A04F08BF6FF0F70050F80800F3
:1028F000B20700F01F0B0FD515F002000CD0E06DF1
:10290000C00603D4E06D40F40060E0652046FFF7A8
:1029100025F921680220086040F2001A7007C5F20C
:10292000000A02D515F0040004D1300756D515F081
:10293000080053D0204650F85C2FD20603D402681A
:1029400042F400720260CA6812F4406F40D15145EF
:102950000CD040F20052C5F2000291420A4617D153
:1029600042468A420A4606D112E000BF4FF0A0421A
:102970008A420A460CD0BBF1090F00F21D810122E8
:1029800002FA0BF240F221231A420A4600F01481A7
:10299000D26892041CD40A68120719D58A685207B3
:1029A0000CD44A6822F00C024A60016821F480715C
:1029B00001600168C90407D50AE000BFE06D40F07E
:1029C0001000E06504F16000016841F00101016060
:1029D0002046FFF76FFF21680C200860B00602D583
:1029E00015F0200004D1700637D515F0400034D022
:1029F000204650F85C2FD20603D4026842F40052FD
:102A00000260CB6CCA6851450CD040F20057C5F249
:102A10000007B9420F4616D147468F420F4606D1EE
:102A200011E000BF4FF0A0478F420F460BD0BBF123
:102A3000070F00F2A980012707FA0BF717F0C10F63
:102A40000F4600F0A180FF6813F4C07F76D02046C7
:102A5000FFF702FB21686020086030060CD515F0F6
:102A6000800009D0E06D40F48030E065204600F041
:102A7000E3F9216880200860F0050DD515F4807019
:102A80000AD0E06D40F40030E0652046FFF798FC86
:102A900021684FF480700860B0050DD515F4007002
:102AA0000AD0E06D40F48020E0652046FFF78AFC04
:102AB00021684FF400700860F00625D515F010006D
:102AC00022D0E06B90B1BBF1000F59D04FF44270AF
:102AD000494508BF6FF0F700B1F1A04F08BF6FF094
:102AE000F70058F8000010F4604F0BD0E06D40F490
:102AF0008060E065206E40F0020020662046FFF70F
:102B0000DBFE216810200860700513D515F4806085
:102B100010D0E06D4FF4806240F48040E065206E9C
:102B200040F00800206620460A6001B0BDE8F04F82
:102B3000FFF794BB01B0BDE8F08F00BFBB0106D525
:102B400002F4406207F40053D2187FF480AF0A68A1
:102B500052067FF57CAF17F400127FF478AF8A68D5
:102B600012071DD44A6822F060024A60016821F40D
:102B7000805101600168C9053FF569AF16E000BFEB
:102B8000C868C007B2D1BDE7514521D040F2005717
:102B9000C5F20007B9420F4608BF474653E700BFDA
:102BA000E06D40F01000E06504F16000016841F064
:102BB000010101604BE700BF51450DD040F20052CA
:102BC000C5F2000291420A4608BF4246E0E600BF55
:102BD0004FF0A04737E700BF4FF0A042D8E6000013
:102BE00070B582B000210028019153D0C16D39B970
:102BF000044600F023F920460021216684F858108D
:102C00000268916889004FF6C071C5F6FF7102D560
:102C100093680B4093609368DB002ED4936801F1B6
:102C20008051194041F08051916040F22801C2F278
:102C30000001096842F663538909C0F23E53A1FBC3
:102C400003139909022303EB410101910199A1B1F9
:102C5000019901390191019979B1019901390191E4
:102C6000019951B1019901390191019929B1019954
:102C70000139019101990029EAD19168C9000DD467
:102C8000C16D012641F01001C165016E41F00101E5
:102C9000016604E00126304602B070BD002693684C
:102CA000C46D03F0040304F010041B19C36D77D145
:102CB00023F481730233C3659368DB072AD140F2A2
:102CC000001442F48073C5F2000440F2080CA342E1
:102CD000C5F2000C40F0A280DCF80040DCF80031C6
:102CE0002343DB0716D10CF1F8034FF4E064D0F86E
:102CF00004E09A4208BF4FF44074B2F1A04F08BFFD
:102D00004FF440745CF8043023F47C1343EA0E0360
:102D10004CF80430437FC46BD0E9021544EA4333D6
:102D20002B4390F824501943012D41EA054306D165
:102D3000816A0025CFF6FE7505EB41410B43C46A5D
:102D400024B1016B04F4787529430B43D16844F234
:102D50000705CFF6F07529401943D1601169436B1F
:102D600021F04061194311619168090743D490F83B
:102D70003810037F490041EA8331D36844F20205E9
:102D8000AB431943D160036914698BB144F48031BA
:102D90001161D2F8C01043F6FF75A9430B4310E050
:102DA00043F010020126C265304602B070BD00BF7C
:102DB00024F480311161D2F8C01043F6FF7321EA88
:102DC0000303C2F8C03090F84010136901290FD1F5
:102DD00040F2FD7123EA010CD0E91135D0E913412D
:102DE00043EA0C032B432343194341F0010301E061
:102DF00023F0010313614169136B012923F00F03D1
:102E000002D1016A01390B431363C26D012161F3E1
:102E10000102C265304602B070BD00BFDCF800E4BC
:102E2000DCF80035DCF8004643EA0E032343DB07F9
:102E30003FF459AF6EE700007047000010B59CB03A
:102E4000044600201B90CDE91900CDE9170002A827
:102E500004305021FDF7B9FB2068B0F1A04F01D03C
:102E60001CB010BD4FF4004002904FF00050139082
:102E700002A801F0AFFA002818BFFEF74BFE41F29E
:102E80004C00C4F20200016841F400510160016885
:102E900001F4005101910199016841F001010160C3
:102EA000006817A900F00100019001980720179011
:102EB00003201890002019904FF0904000F096F8F1
:102EC00012200021002200F0EFF9122000F0DAF9C0
:102ED0001CB010BD014690F82500022828D180B50D
:102EE0000868D1E910CE8A6C036823F00E030360F2
:102EF000136823F480731360026822F001020260F9
:102F00000EF01F00012202FA00F0CCF80400D1E913
:102F100013205060486D30B1026822F48072026064
:102F2000D1E9160242600020BDE8804003E000BF06
:102F30000420C8630120012281F82520002281F8A5
:102F40002420704790F82510022931D180B50168FE
:102F5000D0E910CE826C0B6823F00E030B600B6877
:102F600023F001030B60116821F4807111600EF0F1
:102F70001F02012101FA02F2CCF80420D0E9133239
:102F80005A60426D32B1136823F480731360D0E944
:102F90001623536080F82510826B002180F82410DE
:102FA0000AB190470021BDE880400846704700BF45
:102FB0000421C1630121002280F8251080F824201B
:102FC00008467047B0B5044600F0F6F8054640F2F2
:102FD0000000C2F200004068611C18BF044400BF3A
:102FE00000F0EAF8401BA042FAD3B0BD2DE9F04F43
:102FF00083B00E68002E00F0CF8000F1200241F275
:10300000004C009200F13847C4F6000C06224FEA4B
:10301000B725604508BF0522052D38BF4FEAB72206
:10302000002500274FF0000801920AE00E6808F121
:10303000010836FA08F207F1020705F1040500F06D
:10304000AB80012202FA08FE16EA0E09EED0D1F892
:1030500004C003220CF0030BABF1010602FA07F4E3
:10306000012E6FEA040A11D88468CE6804EA0A04C3
:10307000BE4034438460446824EA0E06CCF3001456
:1030800004FA08F42643466006E000BFBBF1030FD4
:1030900002D14FF0030B21E0C6688C6806EA0A06ED
:1030A000BC402643BBF1020FC66017D16FF003028C
:1030B000009B02EA580605F01C020F2453F806C0D4
:1030C00004FA02FE0C692CEA0E0C04FA02F242EA3F
:1030D0000C029A51D1F804C00CF0030B02680BFAF1
:1030E00007F302EA0A021A431CF4403F02609DD033
:1030F00041F26003C4F202031A6840F2004E42F04B
:1031000001021A601A68C4F2010E02F00102029272
:10311000029A28F003024FF6084C7244CFF6FF7C67
:1031200052F80C3005F00C060F24B440A343019C68
:1031300004FA06F6334342F80C30DEF808204B68F8
:1031400042EA090640F20C4CDC0258BF22EA0906AA
:10315000CEF80860C4F2010CDCF800209C0242EAC0
:10316000090658BF22EA0906CCF80060DEF8042000
:103170009C0342EA090658BF22EA0906CEF8046019
:10318000DEF80020DB0342EA090658BF22EA0906FE
:10319000CEF800604AE700BF03B0BDE8F08F000042
:1031A0000069084018BF0120704700001823002A5A
:1031B00008BF2823C150704742F20870C2F20000D5
:1031C0000068704740F2000042F20871C2F200004D
:1031D000C2F2000140680A681044086070470000AD
:1031E00080B5032000F08CF80F2000F009F80028CB
:1031F0001CBF012080BD00F02BF8002080BD000026
:10320000B0B540F20005C2F200056968F1B10446AC
:1032100040F22800C2F200004FF47A720068B2FB5C
:10322000F1F1B0FBF1F001F0E7FF01460F2C4FF098
:1032300001000AD8002918BFB0BD4FF0FF30214669
:10324000002200F031F800202C60B0BD0120B0BD9C
:1032500082B041F25800C4F20200816841F00101DD
:103260008160816801F0010101910199016841F0DB
:1032700080510160006800F080500090009802B01A
:1032800001F09EB8002848BF704700F01F010122DE
:1032900002FA01F11C2202EAD0004EF20012CEF234
:1032A000000281507047000010B54EF60C5CCEF263
:1032B000000CDCF80030C3F3022E8EF00704042C5F
:1032C00028BF0424BEF103034FF0FF3E0EFA04F4BE
:1032D00038BF0023A14399400EFA03F39A431143E8
:1032E00000F00F0200F160430901043A03F5644362
:1032F0006244002848BF02F10C03197010BD0000A1
:103300004EF60C51CEF200010A684FF6FF031A4048
:1033100060F30A2242F0806040F0FD700860704760
:1033200001220168C0F8D022002280F8C822B1F83A
:10333000540040F00100A1F85400B1F8540040F0EE
:1033400002020020A1F854207047000010B50129A6
:10335000044613D011BB607A48B104F093F84EF6DE
:103360001050CEF20000016821F006010160D4F88F
:10337000D802BDE8104005F0C5BA00BFD4F8D802A5
:1033800005F048FB607A002808BF10BD4EF61050CB
:10339000CEF20000016841F00601016010BD00009E
:1033A00080B501F0070C0CEB8C0C00EBCC0C0CF195
:1033B000100C01EB810E090600EBCE0058BF00F5A2
:1033C000A87C5AB1ACF808301B0C01210A202CF85B
:1033D000003000208CF80C1080BD00BF00210620BA
:1033E0002CF8003000208CF80C1080BD01EB81021D
:1033F000D0F8D83200EBC200426A184605F042B954
:1034000001EB8102D0F8D83200EBC200D0F8642181
:10341000184605F08BB9000010B501F0070E0A46FA
:103420004FFA81FC0EEB8E0100EBC10303F5A8718E
:10343000BCF1000F48BF03F1100190F89032D2099F
:10344000012B4A7081F800E004BF022010BD026821
:10345000012380F890320446104605F0F9FE002062
:1034600084F8900210BD0000027901F00F0393422E
:1034700084BF0120704710B501F0070303EB8302FE
:1034800000EBC2024FFA81FC8E4602F5A871BCF136
:10349000000F48BF02F110014FEADE124A7090F8A7
:1034A00090224FF0000C012A81F802C00B7004BF7B
:1034B000022010BD0268012380F8903204461046B5
:1034C00005F05AFF002084F8900210BD01F00701BA
:1034D00001EB810100EBC100D0F86C0170470000E6
:1034E000B0B501F007048C464FFA81FE04EB84016D
:1034F00000EBC10505F5A871BEF1000F48BF05F14D
:1035000010014FEADC154D700C700A61022BCB7074
:1035100004BF00220A7190F89022012A04BF022001
:10352000B0BD0268012380F890320446104605F0D1
:1035300051FD002084F89002B0BD000010B501F0EC
:10354000070C0CEB8C0100EBC10E00680EF5A871A6
:103550000024CEF86421CEF86831CEF86C418EF8A4
:1035600051418EF850C105F05FFF002010BD0000F2
:10357000027901F0070C94454FF001022AD810B5EA
:1035800001EB810300EBC3034FFA81FE03F5A8733F
:103590000CEB8C04C90900EBC404BEF1000F48BF5A
:1035A00004F11003597090F890129A70012983F871
:1035B00000C001D102220BE00168012280F89022B4
:1035C00004460846194605F015FF002284F89022AB
:1035D000BDE810401046704780B501F0070C0CEBB9
:1035E0008C0100EBC10101F810CF00684FF0010C15
:1035F00001F1140781F824C04FF0000E87E80C4059
:103600000B6281F801C005F00FFF002080BD0000B3
:103610002DE9F04F83B00446006806F043FB010437
:1036200022D4410500F1E283410400F1F1838104D9
:1036300000F10684C10400F10D84010500F130841D
:10364000010600F14784810500F15484C00540F172
:10365000DB832068B0F8441021F48071A0F8441096
:1036600003B0BDE8F08F00BF2068B0F94410B1F19D
:10367000FF3F00F3C98304F5A871019104F1100123
:1036800048F2C005029104F5267140F60F780091CA
:1036900023E000BFB0F8501094F85021014401EB32
:1036A000C201B1F80634B4F8562100996FF39F2394
:1036B000C4F86C3106F0FAFA2068018801EA0801C2
:1036C00080310180204600F0C1FD00BF2068B0F9C4
:1036D0004410B1F1FF3F00F39783B0F8442012F09B
:1036E0000F090DD030F929104FEA490BB1F1FF3F16
:1036F0001FFA81FA2EDD5FEA0A60E7D544E100BFD8
:103700000188D2065ED401EA080101F5004101807A
:10371000B0F85010227C084400EBC200B0F802045C
:10372000616A6FF39F20E0620844606220460021D6
:10373000FFF75CFE207B0028C8D0A06A0028C5D116
:10374000207B216840F08000C0B2A1F84C0000202E
:103750002073BBE730F81B1001EA0801803120F824
:103760001B10019A09EB890102EBC106317B00298C
:103770007CD0F178022940F08980B0F8503031785F
:10378000B26903445FEA4A4703EBC10300F1968044
:10379000B3F8067400236FF39F27D21B38BF1A4675
:1037A000B26140F2A1805FEA4A6200F1AD8030F878
:1037B000212002EA08022A4320F82120002F40F0AD
:1037C000A480C3E00A053FF565AF09B2B1F1FF3F40
:1037D0003FF77CAF018801EA080180310180B0F831
:1037E000501094F85021014401EBC201B1F80634A5
:1037F0006FF39F23C4F86C3193B1D4F8641179B19D
:10380000B4F8562106F052FAD4F86401D4F86C11D9
:103810000844C4F8640120460021FFF7F1FD206848
:1038200001880A053FF552AF01F44051B1F5405F00
:103830003FF44CAFB0F8501000F20642535A6FF309
:103840009F235352D4F860313F2BC0F0E781DE064E
:103850008E5A4FEA53174FF0FF3508BF05EB531749
:1038600048F2C00546EA872361E200BFB0F8501075
:103870003278014401EBC201B1F806746FF39F275F
:10388000002F63D07169F2885BE000BF317830F8B7
:10389000212002EA08022A4320F8212030F82120C2
:1038A000B0F8503000EBC1015204194416D4B1F8FD
:1038B00006746FF39F2747BB48E000BFB3F802745C
:1038C00000236FF39F27D21B38BF1A46B2611FD95E
:1038D0005FEA4A622BD497BB38E000BFB1F80274AC
:1038E0006FF39F275FBB31E030F8212043F60F7361
:1038F0001A404CF28003A3F500535A4020F82120CF
:103900005FEA4A627FF553AF07B37169728918E0C5
:1039100030F8212043F60F731A404CF28003A3F5D0
:1039200000535A4020F821205FEA4A62D3D530F88C
:10393000212002EA08022A4320F8212037B17169C8
:1039400032893B4606F0B2F901E000BF0027F16979
:10395000D6E9050239443844F161706112B1306929
:10396000B84209D931782046FFF74AFD5FEA0A607C
:103970007FF5ACAE08E000BF2068314605F054FD8D
:103980005FEA0A607FF5A2AE206809EB890130F892
:103990001B20029B03EBC10602EA080101F500416E
:1039A00020F81B10F178012922D1317B00294FF03A
:1039B0000001B16100F02D815FEA4A6100F17E8073
:1039C0007178012900F01281002940F02281B0F8BD
:1039D00050103278084400EBC200B0F806146FF3C0
:1039E0009F21A0F80614B0F8061441F4004104E148
:1039F0005FEACA511CD4B0F850203178024402EB7F
:103A0000C102B2F80224B3696FF39F229B1A4FF0F0
:103A1000000738BF3B46B36140F2FC807169F3692F
:103A2000114471619918F161314605F0FDFC4DE6D4
:103A3000B0F850303178B5695FEA4A6200EBC107EF
:103A400054D407F2064E3EF8033000226FF39F2352
:103A5000ED1A38BF1546B5617CD95FEA4A4708D4EC
:103A600030F821704CF2800507EA08072F4320F850
:103A7000217096F8241048F2C005012940F0A98170
:103A8000D6E904C1D6E9075719441D446745716159
:103A9000F56180F0FB80002F00F06081BC4632624F
:103AA00086F82420737848F2C005012B40F0F78097
:103AB000B0F850302EF803C07CE100BF71780129C6
:103AC00000F09E80002940F0A480B0F850103278B9
:103AD000084400EBC200B0F802146FF39F21A0F875
:103AE0000214B0F8021441F4004190E007F20249D8
:103AF00039F8033000226FF39F23ED1A38BF1546C3
:103B0000B5614DD95FEA4A4708D530F821704CF2CB
:103B1000800507EA08072F4320F8217096F8241043
:103B200048F2C005012940F05481D6E90471D6E974
:103B3000075E19441D44BE457161F56180F0CE8079
:103B40004FF0000CBEF1000F86F824C040F0C98091
:103B50009E46C8E0737848F2C005012B6AD0002B5E
:103B600071D1B0F850303B44B3F802746FF39F2723
:103B7000A3F80274B3F8027447F40047A3F8027480
:103B8000B0F850003EF800306FF39F232EF800305D
:103B90003EF8003043F400432EF8003053E000BFFD
:103BA000737848F2C005012B54D0002B5BD1B0F8DC
:103BB000503039F803506FF39F2529F8035039F836
:103BC000035045F4004529F80350B0F8500048F27E
:103BD000C0053844B0F806246FF39F22A0F80624ED
:103BE000B0F8062442F400423BE000BFB0F85010A9
:103BF0003278084400EBC2000021A0F8061408E067
:103C0000B0F850103278084400EBC2000021A0F850
:103C1000021431782046FFF7E9FB57E5002B00F04E
:103C2000858003F00107565A07EB530346EA8323C6
:103C300082E000BFB0F850303B44A3F80224B0F853
:103C400050002EF800202046FFF7D0FB5FEA4A40E4
:103C500010D5BEE0B0F8503029F80320B0F850007D
:103C60003844A0F806242046FFF7C0FB5FEA4A402C
:103C700040F1AF80206831784CF2800330F8212089
:103C800002EA08021A4320F82120A2E0A7EB0C0365
:103C90003362737848F2C005012B3FF409AF002B63
:103CA00040F08880B0F85030BCF13F0F3EF8037010
:103CB0006FF39F272EF803705AD35FEACC654FEA63
:103CC0005C173EF803504FF0FF3208BF02EB5C1761
:103CD00045EA872748F2C00568E000BFAEEB070C55
:103CE000BE46C6F820C0737848F2C005012B2FD01D
:103CF000002B69D1B0F85030BEF13F0F39F8037096
:103D00006FF39F2729F8037040D35FEACE654FEA2F
:103D10005E1739F803504FF0FF3208BF02EB5E1711
:103D200045EA872748F2C0054AE000BF535A48F2E7
:103D30000007CFF6FF773B438B52018843F60F72A3
:103D400011404CF28002A2F5805251400180BDE446
:103D5000B0F8503029F803E036E000BF002786F8BD
:103D600024709C46737848F2C005012B97D19FE6DA
:103D7000BCF1000F18D00CF001073EF8035007EB20
:103D80005C0745EA872748F2C00511E0BEF1000F45
:103D900014D00EF0010739F8035007EB5E0745EA2F
:103DA000872748F2C0050DE03EF8037047F400474E
:103DB0002EF8037072891FFA8CF308E039F803704B
:103DC00047F4004729F8037032891FFA8EF305F093
:103DD000C3FF2068317840F63F7330F821201A4045
:103DE000A5F110035A4020F821206FE42068B0F8B4
:103DF000441021F48061A0F84410204600F0E8F956
:103E000094F8900201280DD103B0BDE8F08F00BFF7
:103E10002068B0F8441021F48041A0F8441003B0A9
:103E2000BDE8F08F0120002584F8900225732068FA
:103E3000002105F089FF84F8905203B0BDE8F08FAF
:103E40002068B0F8441021F40051A0F8441003B0E9
:103E5000BDE8F08F2068B0F8401021F00401A0F810
:103E60004010B0F8401021F00801A0F8401094F87C
:103E7000C802012806D1002084F8C802204600218B
:103E8000FFF764FA204600F0B5F92068B0F8441056
:103E900021F48051A0F8441003B0BDE8F08F00BFBA
:103EA0002168B1F8400040F00800A1F84000B1F8E6
:103EB000440020F40060A1F84400B1F8400040F054
:103EC00004022046A1F8402003B0BDE8F04F00F006
:103ED000DBB900BF2068B0F8441021F08001A0F8E1
:103EE000441094F8C81299B1204603B0BDE8F04FD1
:103EF00000F0CAB92168B1F8440020F400722046ED
:103F0000A1F8442003B0BDE8F04F00F087B900BF2E
:103F1000B0F8401041F00401A0F84010B0F8401093
:103F200041F00801A0F84010012184F8C812B0F84F
:103F300054003C2101EA900220460121C4F8CC2221
:103F400003B0BDE8F04FFFF701BA0000002804BF3E
:103F500001207047F0B581B0044690F8910228B96D
:103F6000002084F89002204600F0FEF8032084F838
:103F70009102206805F0F6F994F804E0BEF1000F14
:103F800000F0E0800EF0030CBEF1040F4FF00002D1
:103F900038D30EF0FC03A4F1A0000321012500BFDB
:103FA000CE1E80F8B0608E1E80F8D8604E1E80F85D
:103FB000006180F828110E1D013180F8B15080F8A1
:103FC000B320C0E93022C0F8C82080F8D95080F86A
:103FD000DB20C0E93A22C0F8F02080F8015180F8D7
:103FE0000321C0E94422C0F8182180F8295180F843
:103FF0002B21C0E94E22C0F84021A0309942314621
:10400000CED1F21EBCF1000F2ED004F1100002EB55
:10401000820100EBC105012300F831200021BCF131
:10402000010F6B70E970C5E90411A9611CD0551C22
:1040300005EB850600EBC607BCF1020F7B7000F8AC
:104040003650F970C7E90411B9610DD0911C01EB2C
:10405000810200EBC203012500F8321000205D70E0
:10406000D870C3E904009861BEF1000F6AD0BEF1B8
:10407000040F4FF0000235D30EF0FC00032123465D
:10408000CF1E83F850718F1E83F878714F1E83F80E
:10409000C8110D1D013183F8512183F85321C3E963
:1040A0005822C3F8682183F8792183F87B21C3E97A
:1040B0006222C3F8902183F8A12183F8A07183F8CC
:1040C000A321C3E96C22C3F8B82183F8C92183F87E
:1040D000CB21C3E97622C3F8E021A03381422946EF
:1040E000CED1EA1EBCF1000F2CD004F5A87002EB73
:1040F000820300EBC3070021BCF1010F797000F8C7
:104100003320F970C7E90411B9611BD0531C03EBCC
:10411000830700EBC706BCF1020F717000F837305F
:10412000F170C6E90411B1610CD0911C01EB810260
:1041300000EBC20300275F7000F83210DF70C3E9A4
:1041400004779F6194E8070005F0FEF80020012144
:10415000207384F89112A17A012903D12046FFF738
:10416000DFF8002001B0F0BD10B596B0044601A8FC
:1041700004305021FCF729FA206845F60041C4F2CA
:104180000001884202D016B010BD00BF4FF40050AD
:10419000019001A800F01EF9002818BFFDF7BAFC35
:1041A00041F25800C4F202000168002241F400010B
:1041B00001600068002100F40000009000981420C5
:1041C000FFF772F81420FFF75DF816B010BD00007D
:1041D00010B504464079022818BFFDF79BFCD4F8BF
:1041E000D802012104F0AAFBD4F8D802BDE810409F
:1041F00004F054BB10B50446407A48B14EF6105056
:10420000CEF20000016821F00601016003F03AF9E6
:10421000D4F8D802BDE8104004F074BBD0F8D8023E
:1042200004F07ABB90F89022012A04BF0220704764
:1042300010B5012280F890220173026804461046EE
:1042400005F082FD002084F8900210BDD0F8D8223D
:1042500000F52671104604F087BB000090F890121C
:10426000012904BF0220704710B50168012280F8BF
:1042700090220446084605F005FD206805F05AF82E
:10428000002084F8900210BD10B50446D0F8D80282
:1042900004F0C0FB607A002808BF10BD4EF6105035
:1042A000CEF20000016841F00601016010BD00007F
:1042B00047F21401C4F2000151F8142CB0F5007F4C
:1042C0003CD0002874D1C86E02F4C06220F4807023
:1042D000B2F5806FC8662FD151F8140C012262F339
:1042E0004A2041F8140C40F22800C2F20000006895
:1042F000322250434DF68362C4F21B32A0FB02020D
:10430000900C00BF0A68520511D5421C0FD00A68F4
:1043100052050CD558B10A68520508D5012806D0B7
:104320000A68520503D50228A0F10400EAD1086802
:10433000400544BF0320704700207047C86E02F458
:10434000C06240F48070B2F5806FC866F4D151F855
:10435000140C012262F34A2041F8140C40F22800A8
:10436000C2F200000068322250434DF68362C4F26C
:104370001B32A0FB0202900C0A68520511D5421CA8
:104380000FD00A6852050CD558B10A68520508D5F5
:10439000012806D00A68520503D50228A0F10400BE
:1043A000EAD10868400544BF03207047C4E700BF56
:1043B000022060F34A2241F8142C002070470000CC
:1043C00047F20800C4F20000016841F48041016036
:1043D000704700002DE9F04182B00446807841F238
:1043E00088060007C4F2020602D400202FE000BFB6
:1043F00056F8300C5FEAC0080BD456F8300C40F089
:10440000805046F8300C56F8300C00F08050019087
:10441000019847F20007C4F20007386840F4807042
:104420003860FEF7C9FE05463868C00500F10C810A
:10443000FEF7C2FE401B0228F6D90320B8F1000F98
:1044400005D456F8301C21F0805146F8301C216804
:10445000CA0717D18A071DD44A0723D40A0729D4CB
:10446000CA062FD48A0635D44A063BD40A0641D45C
:10447000CA0547D48A034DD48A0553D44A0559D472
:1044800067E000BF3268636822F003021A433260BB
:104490008A07E1D53268A36822F00C021A43326021
:1044A0004A07DBD53268E36822F030021A433260F3
:1044B0000A07D5D53268236922F0C0021A43326058
:1044C000CA06CFD53268636922F440721A4332605B
:1044D0008A06C9D53268A36922F440621A43326061
:1044E0004A06C3D53268E36922F440521A43326067
:1044F0000A06BDD53268236A22F440421A4332606C
:10450000CA05B7D53268636A22F440321A43326072
:104510008A03B1D57269A36A22F003021A43726159
:104520008A05ABD53268E36A22F440221A4332602E
:104530004A050ED53268236B22F440121A43B3F5B4
:10454000801F326005D156F87C2C42F4801246F868
:104550007C2C0A050ED53268636B22F440021A43A4
:10456000B3F5800F326005D156F87C2C42F48012EE
:1045700046F87C2CCA040ED53268A36B22F0407238
:104580001A43B3F1807F326005D156F87C2C42F497
:10459000801246F87C2C8A040ED53268E36B22F038
:1045A00040621A43B3F1006F326005D156F87C2C9B
:1045B00042F4801246F87C2C4A040ED53268236CF3
:1045C00022F040621A43B3F1006F326005D156F811
:1045D0007C2C42F4801246F87C2C0A040ED53268FA
:1045E000636C22F040521A43B3F1805F326005D110
:1045F00056F87C2C42F4803246F87C2CCA030ED547
:104600003268A36C22F040421A43B3F1804F32600B
:1046100005D156F87C2C42F4803246F87C2C4903B4
:104620000ED57169E26C21F440111143B2F5001FFF
:10463000716105D156F87C1C41F4801146F87C1C50
:1046400002B0BDE8F08100BFB06810F4407010D037
:10465000216D88420BD0B068B16820F4407041F4FD
:104660008031B160B16821F48031B160B060C007C1
:104670000CD1B068216D20F440700843B060002078
:10468000B8F1000F3FF5E3AEDBE600BFFEF794FDA7
:10469000054641F2883700BFB0688007E9D4FEF7CD
:1046A0008BFD401BB842F7D9C7E600002DE9F04763
:1046B000002863D042F2000AC4F2020A0446DAF883
:1046C00000000D4600F00F0088420CD2DAF800001E
:1046D00020F00F002843CAF80000DAF8000000F0CC
:1046E0000F00A8424AD1216841F20808C807C4F265
:1046F000020803D1880740F1D080B5E0606858F81F
:10470000082C022838D003283CD1920136D5D8F89D
:104710000420D8F8043042F20046C3F3031302F039
:104720000302D8F804700133C0F2F406032A04BF70
:1047300041F20026C0F27A06B6FBF3F2D8F8043054
:10474000C7F306277A43C3F34163022707EB43030A
:10475000B2FBF3F24BF20043C0F2C4439A4259D980
:10476000D8F8002012F0F00F49D0890752D5A1687F
:1047700000294FD143E000BF910305D40120BDE8DB
:10478000F08700BF5105F9D5D8F8001001F00C01F1
:1047900004293FD0D8F8001001F00C01082939D0C5
:1047A000D8F8001001F00C010C2933D1D8F804100E
:1047B000D8F8042042F20047C2F3031201F00301CB
:1047C000D8F804300132C0F2F407032904BF41F2E3
:1047D0000027C0F27A07B7FBF2F1D8F80420C3F340
:1047E00006235943C2F34162022303EB4202B1FBA9
:1047F000F2F14BF20042C0F2C44291420AD9D8F819
:104800000010082262F307114FF00109C8F80010E8
:1048100002E000BF4FF00009D8F8001021F00301BA
:104820000843C8F80000FEF7C7FC064641F2883787
:10483000D8F80000616800F00C00B0EB810F07D0E1
:10484000FEF7BAFC801BB842F2D90320BDE8F0871E
:104850002168880708D4B9F1000F1ED0D8F80000ED
:1048600020F0F00017E000BF480705D5D8F8000099
:1048700040F4E060C8F80000080706D5D8F800004A
:10488000072262F30D20C8F80000D8F80000A268E3
:1048900020F0F0001043C8F80000DAF8000000F043
:1048A0000F00A8421BD9DAF8000020F00F002843BF
:1048B000CAF80000FEF780FC064641F2883700BFC8
:1048C000DAF8000000F00F00A84207D0FEF774FCF1
:1048D000801BB842F4D90320BDE8F087216848075F
:1048E00007D5D8F80000E26820F4E0601043C8F86B
:1048F0000000080708D5D8F80000216920F46050AE
:1049000040EAC100C8F80000D8F8000042F20041B7
:10491000C0F2F40100F00C00042808462DD0D8F8AD
:10492000000000F00C00082841F20020C0F27A00DC
:1049300023D0D8F8002002F00C020C2A1CD1D8F8A1
:104940000420D8F8043002F00302C3F30313D8F8AC
:1049500004700133032A08BF0146B1FBF3F0D8F815
:104960000410C7F30627C1F341610222784302EB2A
:104970004101B0FBF1F000E00020D8F800104BF648
:10498000D822C1F30311C0F60002515C40F22802A4
:1049900001F01F0120FA01F140F20000C2F2000014
:1049A0000068C2F200021160BDE8F047FEF728BCC3
:1049B00040F2280041F20801C2F20000C4F20201F4
:1049C000006809684BF6E822C1F30221C0F6000234
:1049D000515C01F01F01C8407047000040F2280000
:1049E00041F20801C2F20000C4F202010068096845
:1049F0004BF6E822C1F3C221C0F60002515C01F07F
:104A00001F01C8407047000041F20C01C4F20201CE
:104A100051F8040C42F20042C0F2F40200F00C0023
:104A20000428104608BF704751F8040C00F00C0031
:104A3000082841F20020C0F27A0025D051F8043C49
:104A400003F00C030C2B1CBF0020704780B5D1F87D
:104A500000C00B680CF0030CC3F3031E0B680EF1CF
:104A6000010EBCF1030F08BF02460968B2FBFEF05D
:104A7000C3F30623C1F341610222584302EB410113
:104A8000B0FBF1F0BDE8804070470000002804BF93
:104A9000012070472DE9F04182B00446007841F2D0
:104AA0000006C007C4F202061ED1207880073DD45C
:104AB0002078000764D42078400700F187802078B0
:104AC000800600F1D980E569002D00F04282B068CF
:104AD00000F00C000C2840F03181012D40F08E8157
:104AE000012002B0BDE8F081B06800F00C01F06870
:104AF000082961D0032281F00C0122EA0000084459
:104B0000B0FA80F0400957D161683068B1F5803F54
:104B100007D0B1F5A02F40F0E38040F48020306052
:104B2000306840F480303060E4E000BFB068F16885
:104B300000F00C00042871D001F0030180F00C009B
:104B400081F002010844B0FA80F0400966D1E168C2
:104B50003068002900F0E08040F480703060FEF79B
:104B60002BFB05463068400500F10A81FEF724FB67
:104B7000401B0228F6D9032002B0BDE8F08100BF37
:104B80006169D6F89400002900F0948040F001009B
:104B9000C6F89400FEF710FB054600BFD6F8940057
:104BA00080073FF588AFFEF707FB401B0228F5D9C9
:104BB000032002B0BDE8F081306880037FF575AF57
:104BC000606800287FF471AF3EE000BFB06D5FEA1F
:104BD000C00808D4B06D40F08050B065B06D00F0F2
:104BE00080500190019847F20007C4F2000738682E
:104BF000C0052DD4386840F480703860FEF7DCFAC8
:104C0000054600BF3868C00522D4FEF7D5FA401B20
:104C10000228F7D9032002B0BDE8F08130684005D2
:104C200001D5E06880B17068216920F0FE4040EA5B
:104C30000160706040F20000C2F200000068FEF700
:104C4000DFFA00283FF434AF012002B0BDE8F08164
:104C5000A168D6F89000012908D0052940F0AE805F
:104C600040F00400C6F89000D6F8900040F0010033
:104C7000C6F89000AEE000BFA169D6F89800002900
:104C800000F0868040F00100C6F89800FEF794FA24
:104C9000054600BFD6F8980080073FF514AFFEF731
:104CA0008BFA401B02284FF00300F3D902B0BDE895
:104CB000F08100BF20F00100C6F89400FEF77CFAF6
:104CC000054600BFD6F8940080077FF5F4AEFEF7E6
:104CD00073FA401B0228F5D9032002B0BDE8F08129
:104CE00020F4803030603068002920F4802030606B
:104CF00000F0BE80FEF760FA054600BF3068800312
:104D00003FF5D3AEFEF758FA401B6428F6D90320CE
:104D100002B0BDE8F08100BF20F480703060FEF783
:104D20004BFA0546306840057FF5C2AEFEF744FAFF
:104D3000401B02284FF00300F4D9B7E7306820F099
:104D400080703060FEF738FA022D05460CD100BFA6
:104D50003068800140F1B880FEF72EFA401B02282F
:104D60004FF00300F4D9A1E73068800140F1EA80F8
:104D7000FEF722FA401B02284FF00300F4D995E712
:104D80007068216920F0FE4040EA016070608FE6A3
:104D900020F00100C6F89800FEF70EFA054600BFA5
:104DA000D6F8980080077FF58EAEFEF705FA401B17
:104DB00002284FF00300F3D978E700BF20F001008C
:104DC000C6F89000D6F89000002920F00400C6F83C
:104DD00090005DD0FEF7F0F9054641F2883700BF3C
:104DE000D6F89000800765D4FEF7E6F9401BB8427C
:104DF000F6D9032002B0BDE8F08100BFF068216A57
:104E000000F003028A427FF41FAF626A6FF00F0363
:104E100000F0F00103EB021291427FF415AFA16A9A
:104E200000F4FE42B2EB012F7FF40EAFE16A00F016
:104E30007842B2EBC16F7FF407AF226B0023CFF64D
:104E4000E07303EA025200F4C001A2F5001291429D
:104E50007FF4FAAE616B4FF07E4202EA016100F02E
:104E6000C06001F17E4188427FF4EEAE71E000BF88
:104E7000FEF7A2F9054600BF306880037FF515AE46
:104E8000FEF79AF9401B64284FF00300F4D90DE7B0
:104E9000FEF792F9054641F2883700BFD6F8900038
:104EA000800707D5FEF788F9401BB8424FF0030092
:104EB000F4D9FBE6B8F1000F3FF501AEB06D20F07C
:104EC0008050B065FBE500BFF06848F20C01C0F20D
:104ED0009F1104F1200700EA010C8ECF6FF00F0044
:104EE000D4E90C5400EB02100022CFF6E07241EA44
:104EF0000C0102EA05520843A2F500124FF07E456C
:104F000040EA032005EA0465104305F17E4540EAC6
:104F1000C7602843F060306840F080703060F0680F
:104F200040F08070F060FEF747F904463068800179
:104F30000FD4FEF741F9001B02284FF00300F5D90A
:104F4000B4E600BFF0684FF6FC71CFF6EE610840A2
:104F5000F060002002B0BDE8F08100007047000062
:104F6000B0B582B001684A688B6803F04105012D35
:104F700008D112F0400505D0C16C02B0BDE8B040C8
:104F8000084700BF9D0707D512F0800504D0016DCA
:104F900002B0BDE8B040084713F4B07F18BF12F06C
:104FA000200501D102B0B0BD5D0618D590F85D5066
:104FB000032D09D100200190C868019088680190F4
:104FC000019802B0B0BD00BF056E45F0040505664E
:104FD00000250195CD6801958D680195019D9D067F
:104FE00004D4DB0511D4036EDBB9DBE7056E45F0B5
:104FF00001050566002501958D6801950D6825F070
:1050000040050D60019DDB05EDD5036E43F00803FF
:105010000366002301938B680193019B036E002BB1
:10502000C0D04B68920723F0E0034B604FF00103C0
:1050300080F85D3026D04A6847F26D4422F00302C2
:105040004A60816DC0F6000459B1054608468C637C
:10505000FDF778FF0146284619B1016E41F0400185
:105060000166416D00299DD08C6304460846FDF71A
:1050700069FF002896D0206E40F04000206602B004
:10508000B0BD00BF02B0BDE8B040FFF767BF000091
:10509000002804BF01207047416A19B10021016155
:1050A000142104E04168B1F5827F02D01C21002266
:1050B0004250B0B50025856290F85D1029B980F89E
:1050C0005C50044600F056F82046022180F85D103E
:1050D0000168D0F80CE00B68BEF5E06F23F04003E8
:1050E0000B6098BF01254EF40063B3F5706F4FEA73
:1050F000053C1CBF00258562D0E90154D0E904328B
:1051000005F4827504F404442C4403F002032344A0
:10511000846902F00102C5691A4404F400731A4458
:1051200005F03803056A1A4405F08003856A1A44BD
:1051300005F400531A430A600422436A0EF47065B2
:1051400002EA1442446B45EA0C0503F010032A43BB
:1051500004F008041A4322434A60CA6922F4006238
:10516000CA6100210122016680F85D20BDE8B040DF
:105170000846704780B586B0006843F20002C4F26A
:10518000010200219042CDE90411CDE90211019103
:1051900002D006B080BD00BF41F24C00C4F2020054
:1051A000426942F480524261426902F480520092A4
:1051B000009A026842F002020260006800F00200F9
:1051C00000900098382001900220CDE902010520CE
:1051D000059040F200400491C4F6000001A9FDF7DB
:1051E00005FF232000210022FEF75EF82320FEF7B2
:1051F00049F806B080BD0000411E0020B0EB116FE1
:105200001CBF012070474EF21002CEF20002516026
:105210004EF62351CEF20001F0230B70072190606F
:105220001160704770470000704700007047000031
:1052300090F83C20012A04BF02207047B0B5D1E9A4
:105240000232D1E900CE22F47C5223F4705343EAB7
:10525000020448F2FF73CEF6F0730EEA0302224313
:1052600003F5006404EA0C0442EA040C0C6903F53B
:10527000C05222404C6942EA0C02224303F56054BA
:1052800022400C6B03F5F04323401A438B6940F234
:10529000000CCC69CEF6FF7C0CEA034C1443026888
:1052A00042F60043C4F201039A4244EA0C030BD0D5
:1052B00045F20004C4F20104A24205D043F20044C6
:1052C000C4F20104A24217D14FF6FF74CDF60F4489
:1052D00003EA040ED1E9084CD1E90A310025CDF6E4
:1052E000F04505EA035343EA0E0324F008552B4327
:1052F0002CF000552B430B430021536480F83C10E5
:105300000020B0BD90F83C30012B04BF0220704754
:10531000F0B513685D1E3F2D00F230804FF0090E8E
:105320004FF0000C4FF40074DFE805F05A20303CD9
:1053300030303044303030303030304C303030303D
:105340003030303030303030303030543030303039
:10535000303030303030303030303030303030304D
:105360003030303030303030303030364FF00A0EA0
:105370004FF0010C4FF48064022331E0802B05D103
:105380004FF0070C0024802328E000BF00230024F6
:105390004FF0000C22E000BF4FF0060C0024402329
:1053A0001CE000BF4FF00B0E4FF0020C4FF40064F6
:1053B000042315E04FF00C0E4FF0030C4FF4805413
:1053C00008230DE04FF00D0E4FF0040C4FF4005485
:1053D000102305E04FF0050C002420234FF0000EB1
:1053E000012903D0022913D1642100E0602105685E
:1053F0006E58D2E901279E4302FA0CF21A40324459
:1054000007FA0EF3A24323401A446A50002100E039
:105410000121002280F83C20BDE8F040084670479A
:1054200070470000704700007047000090F83C2073
:10543000012A4FF0020266D070B580F83D20026864
:1054400042F6004C54689368C4F2010C45F2000E19
:105450006245C4F2010E18BF72452BD14D6824F489
:1054600070042C434FF68F75CFF6FF550E682C4015
:1054700042F6FF35C4F201053443AA4254600DDC04
:1054800040F2FF76C4F20006B2421BDCB2F1804F5C
:105490002CD040F20046C4F2000625E043F6FF742B
:1054A000C4F20104A24219DC62451FD043F2004657
:1054B00018E000BF43F20045C4F20105AA42CDD076
:1054C000D0E700BF40F60006C4F20006B2420DD09D
:1054D00040F60046C4F2000606E000BF724505D063
:1054E00044F20006C4F20106B24204D1896823F0F6
:1054F0008003194391600121002280F83D1080F85B
:105500003C20BDE87040104670470000C1B104293E
:1055100008D0082914BF47224622825C012A05D000
:1055200016E000BF4522825C012A11D1022208291F
:1055300010D0042914BF80F8472080F845200BE0E4
:1055400090F84420012A03D1022280F8442003E08D
:105550000120704780F84620026801F00F00042106
:10556000136A01FA00F023EA00011162116A08438C
:105570001062506C42F6FF31C4F2010140F4004069
:105580008A4250640EDC40F2FF70C4F20000824296
:1055900018DCB2F1804F2DD040F20040C4F2000080
:1055A00026E000BF43F6FF70C4F20100824215DC22
:1055B00042F60040C4F2010082421BD043F2004098
:1055C00014E000BF40F60000C4F20000824211D097
:1055D00040F60040C4F200000AE000BF45F20000BF
:1055E000C4F20100824205D044F20000C4F201007E
:1055F00082420CD190680721C0F2010101400629C6
:105600004FF00000A5D0B1F5803F08BF704710688B
:1056100040F001001060002070470000704700005B
:10562000002804BF0120704710B5044690F83D00E3
:1056300028B9002084F83C00204600F023F802201E
:1056400084F83D002068211D01F074FF012084F8DA
:10565000480084F83E0084F83F0084F8400084F855
:10566000410084F8420084F8430084F8440084F840
:10567000450084F8460084F8470084F83D00002087
:1056800010BD000080B586B0006840F20041C4F251
:10569000000188424FF000010591CDE90311CDE9E9
:1056A000011133D042F60041C4F2010188422BD1EE
:1056B00041F24C00C4F20200416941F400614161D1
:1056C000416901F4006100910099016841F0010114
:1056D0000160006801A900F00100009000984020DE
:1056E0000190122002900020CDE9030006200590D1
:1056F0004FF09040FDF77AFC192000210022FDF7C1
:10570000D3FD1920FDF7BEFD06B080BD41F24C006F
:10571000C4F20200C168002241F00201C160C06809
:10572000012100F00200009000981D20FDF7BCFD53
:105730001D2006B0BDE88040FDF7A4BD90F83D10E7
:1057400001291BD1022180F83D10016842F6FF3289
:10575000C868C4F20102914240F00100C8600FDC49
:1057600040F2FF70C4F20000814219DCB1F1804FB9
:105770002ED040F20040C4F2000027E00120704724
:1057800043F6FF70C4F20100814215DC42F600408E
:10579000C4F2010081421BD043F2004014E000BF7C
:1057A00040F60000C4F20000814211D040F60040F3
:1057B000C4F200000AE000BF45F20000C4F201009C
:1057C000814205D044F20000C4F2010081420CD1B4
:1057D00088680722C0F201020240062A4FF000004A
:1057E000CDD0B2F5803F08BF7047086840F0010097
:1057F000086000207047000090F83C20012A4FF01C
:10580000020200F0998080B580F83D20D0F800C0F9
:105810008822DCF80830CFF6CE721A40CCF8082087
:105820000B68B3F5005F0DDA3F2B21DD5F2B3BDD0D
:10583000602B00F0AB80702B00F09480B3F5805F9C
:1058400071D0E7E02F22C0F21002934218DD4F2101
:10585000C0F210018B424FDD5021C0F210018B428B
:1058600055D06021C0F210018B4250D0702149E028
:105870001F2B0FDC002B4AD0102B48D0CAE000BFF2
:10588000B3F1101F0CDAB3F5005F57D0B3F5801FEA
:105890003DD0BFE0202B3AD0302B38D0BAE000BF4B
:1058A00035D020212EE000BF402B00F09180502BFE
:1058B00040F0B080D1F804E0C968DCF82030DCF8B2
:1058C000202022F00102CCF82020DCF8182022F061
:1058D000F00242EA011123F00A0242EA0E02CCF879
:1058E0001810CCF82020DCF808104FF68872CFF69C
:1058F000CF721140573114E03021C0F210018B42B9
:1059000005D04021C0F210018B4240F08380DCF8CA
:1059100008104FF68872CFF6CF721140194341F04C
:105920000701CCF808100022012180F83D10002169
:1059300080F83C10BDE8804010467047D1E901E393
:10594000C968DCF8082043EA0E0322F47F4243EAE8
:1059500001211143CCF80810DCF8081041F4804113
:10596000DFE700BFD1E901E3C968DCF8082043EABA
:105970000E0322F47F4243EA01211143CCF80810C0
:10598000DCF8081041F07701CBE700BFD1F804E064
:10599000C968DCF82030DCF8202022F01002CCF8B6
:1059A0002020DCF8182022F4704242EA013123F072
:1059B000A00242EA0E12CCF81810CCF82020DCF835
:1059C00008104FF68872CFF6CF7211406731A8E702
:1059D000D1F804E0C968DCF82030DCF8202022F09F
:1059E0000102CCF82020DCF8182022F0F00242EA74
:1059F000011123F00A0242EA0E02CCF81810CCF88A
:105A00002020DCF808104FF68872CFF6CF721140D4
:105A1000473186E7012287E770470000F0B581B083
:105A200004460068C5680669B10717D515F002017C
:105A300014D06FF002010161012121778069800794
:105A400004D02046FFF7E8FF06E000BF204600F044
:105A500039F9204600F06AFB00202077700719D53D
:105A600015F0040016D020686FF0040101610221D6
:105A70002177806910F4407F04D02046FFF7CCFFE7
:105A800006E000BF204600F01DF9204600F04EFB66
:105A900000202077300717D515F0080014D02068B3
:105AA0006FF00801016104212177C069800703D0EC
:105AB0002046FFF7B1FF05E0204600F003F920463D
:105AC00000F034FB00202077F00619D515F0100007
:105AD00016D020686FF01001016108212177C0699C
